:100000000C9434000C943E000C943E000C943E0082
:100010000C943E000C943E000C943E000C943E0068
:100020000C943E000C943E000C943E000C943E0058
:100030000C943E000C943E000C943E000C943E0048
:100040000C943E000C943E000C943E000C943E0038
:100050000C943E000C943E000C943E000C943E0028
:100060000C943E000C943E0011241FBECFEFD8E04C
:10007000DEBFCDBF0E9440000C9454000C940000E1
:1000800080E287B9E8E2F0E0A0E260E177E248ECE4
:1000900050E080818A2780839B01CA010197F1F794
:0C00A00021503040D1F7F5CFF894FFCF8D
:00000001FF
