:100000000C9434000C943E000C943E000C943E0082
:100010000C943E000C943E000C943E000C943E0068
:100020000C943E000C943E000C943E000C943E0058
:100030000C943E000C943E000C943E000C943E0048
:100040000C943E000C943E000C943E000C943E0038
:100050000C943E000C943E000C943E000C943E0028
:100060000C943E000C943E0011241FBECFEFD8E04C
:10007000DEBFCDBF0E9440000C9459000C940000DC
:1000800080E287B9E8E2F0E0808180628083E7E285
:10009000F0E0A0E260E177E244EF51E080818A275E
:1000A00080839B01CA010197F1F721503040D1F7BD
:0600B000F5CFF894FFCF2C
:00000001FF
