:107000000C9434380C9446380C9446380C9446381A
:107010000C9446380C9446380C9446380C944638F8
:107020000C9446380C9446380C9446380C944638E8
:107030000C9446380C9446380C9446380C944638D8
:107040000C9446380C9446380C9446380C944638C8
:107050000C9446380C9446380C9446380C944638B8
:107060000C9446380C94463811241FBECFEFD8E05C
:10707000DEBFCDBF11E0A0E0B1E001C01D92A1389C
:10708000B107E1F70E9432390C9480390C94003832
:10709000A82F20E030E0E6E2F0E070E048E853E1BD
:1070A000808190E00A2E02C0959587950A94E2F7B8
:1070B000817090708617970711F481E008952F5F13
:1070C0003F4FCA010197F1F783E0283E380741F7A7
:1070D00080E00895E7E2F0E080818062808328EC20
:1070E00030E044EF51E0CA010197F1F72150304000
:1070F000D1F717B818B828EC30E044EF51E0CA01D6
:107100000197F1F721503040D1F70C940000089519
:107110009F92AF92BF92CF92DF92EF92FF920F9326
:107120001F93CF93DF9383E061E00E944838882368
:10713000B9F189B180938001E8E2F0E080818B7F32
:107140008083C0E0D1E010E00F2EF9E2AF2EBB2427
:10715000F02D0F2EF8E2EF2EFF24F02D99246894E5
:1071600092F80F2EF0E8CF2EF1E0DF2EF02D01E0A7
:1071700083E0612F0E944838882391F0F5018081D7
:107180008993F701808189258083CC15DD0511F075
:107190001027EECF83E060E00E94483881E001C014
:1071A00080E0DF91CF911F910F91FF90EF90DF90E2
:1071B000CF90BF90AF909F9008958FB7F894909123
:1071C0008001E7E5F0E0808180FDFDCFEFE3F0E0B6
:1071D000808181FDFDCF892F90E0AC015695542F21
:1071E00044275795479583E0FA0180935700E89527
:1071F000E7E5F0E0808180FDFDCFA0E0B1E020E098
:1072000030E061E0F901EE0FFF1FE40FF51F8D91F3
:107210009D910C0160935700E89511242F5F3F4F1B
:107220002034310579F7E7E5F0E0808180FDFDCF7E
:10723000EFE3F0E0808181FDFDCF85E0FA018093EE
:107240005700E895E7E5F0E0808180FDFDCFEFE3B2
:10725000F0E0808181FDFDCF81E180935700E895CA
:107260008FB70895EF92FF920F931F93CF93DF9301
:10727000F894A89514BEE0E6F0E0808188618083F0
:107280001082E8E2F0E080E2808388E087B98083C2
:1072900082E061E00E944838882311F40E946A3835
:1072A00018B886E087B9C8E2D0E00F2EF0E1EF2EE3
:1072B000F7E2FF2EF02D09E210E0888184FF07C07D
:1072C000888183FD04C0C7010197F1F7F6CFF8016B
:1072D0009081888184608883983839F40E94883846
:1072E000882359F30E94DD38E8CF0E946A3880E095
:1072F00090E0DF91CF911F910F91FF90EF90089553
:04730000F894FFCF2F
:040000030000700089
:00000001FF
