:107000000C9434380C943E380C943E380C943E3832
:107010000C943E380C943E380C943E380C943E3818
:107020000C943E380C943E380C943E380C943E3808
:107030000C943E380C943E380C943E380C943E38F8
:107040000C943E380C943E380C943E380C943E38E8
:107050000C943E380C943E380C943E380C943E38D8
:107060000C943E380C943E3811241FBECFEFD8E06C
:10707000DEBFCDBF0E9440380C9469380C940038B4
:10708000E8E2F0E080818062808320E533EC44EF29
:1070900051E0CA010197F1F721503040D1F7E7E202
:1070A000F0E080818062808328EC30E044EF51E0A2
:1070B000CA010197F1F721503040D1F717B8E8E243
:1070C000F0E080818F7D80830C94000080E090E070
:0670D0000895F894FFCFC3
:040000030000700089
:00000001FF
