:107000000C9434380C9446380C9446380C9446381A
:107010000C9446380C9446380C9446380C944638F8
:107020000C9446380C9446380C9446380C944638E8
:107030000C9446380C9446380C9446380C944638D8
:107040000C9446380C9446380C9446380C944638C8
:107050000C9446380C9446380C9446380C944638B8
:107060000C9446380C94463811241FBECFEFD8E05C
:10707000DEBFCDBF11E0A0E0B1E001C01D92A1389C
:10708000B107E1F70E9460390C94E9390C9400389B
:10709000A82F20E030E0E6E2F0E070E044EF51E0BD
:1070A000808190E00A2E02C0959587950A94E2F7B8
:1070B000817090708617970711F481E008952F5F13
:1070C0003F4FCA010197F1F78EE42032380741F7AC
:1070D00080E00895682FE8E2F0E080818F7D808372
:1070E00020E137E244EF51E0CA010197F1F7215066
:1070F0003040D1F716C08081806280839D01CA0133
:107100000197F1F721503040D1F780818F7D808346
:107110009D01CA010197F1F721503040D1F761502C
:1071200006C0E8E2F0E0A8E8B3E144EF51E06623EE
:1071300011F720E137E244EF51E0CA010197F1F77E
:1071400021503040D1F708950F931F9307E210E0CC
:10715000F8019081906290830E946A3818B8F80113
:1071600010820C9400001F910F9108959F92AF928E
:10717000BF92CF92DF92EF92FF920F931F93CF9324
:10718000DF9383E061E00E9448388823B9F189B138
:1071900080938001E8E2F0E080818B7F8083C0E013
:1071A000D1E010E00F2EF9E2AF2EBB24F02D0F2E10
:1071B000F8E2EF2EFF24F02D9924689492F80F2E18
:1071C000F0E8CF2EF1E0DF2EF02D01E083E0612F1B
:1071D0000E944838882391F0F50180818993F70156
:1071E000808189258083CC15DD0511F01027EECF35
:1071F00083E060E00E94483881E001C080E0DF91D8
:10720000CF911F910F91FF90EF90DF90CF90BF90A3
:10721000AF909F9008958FB7F89490918001E7E523
:10722000F0E0808180FDFDCFEFE3F0E0808181FD23
:10723000FDCF892F90E0AC015695542F44275795E8
:10724000479583E0FA0180935700E895E7E5F0E081
:10725000808180FDFDCFA0E0B1E020E030E061E082
:10726000F901EE0FFF1FE40FF51F8D919D910C01A9
:1072700060935700E89511242F5F3F4F203431056C
:1072800079F7E7E5F0E0808180FDFDCFEFE3F0E006
:10729000808181FDFDCF85E0FA0180935700E8955C
:1072A000E7E5F0E0808180FDFDCFEFE3F0E0808155
:1072B00081FDFDCF81E180935700E8958FB7089558
:1072C000CF92DF92EF92FF920F931F93DF93CF93B2
:1072D0000F92CDB7DEB7F894A89514BEE0E6F0E0C3
:1072E0008081886180831082E7E2F0E0808186609F
:1072F0008083E8E2F0E080818B6180831AB8FF240C
:1073000008E210E00F2EF8EACF2EF1E6DF2EF02D86
:1073100083E061E00E944838882319F481E00E94EC
:10732000A438F80180818D7F8083C6010197F1F731
:1073300080818260808383E060E00E9448388823F7
:1073400019F481E00E94A438F80180818D7F808348
:10735000C6010197F1F7808182608083F394F3E0A6
:10736000FF16B1F60F2EF9E2CF2EDD24F02D08E244
:1073700010E00F2EF0E1EF2EF7E2FF2EF02D84E06B
:1073800061E00E944838882319F483E00E94A43801
:10739000F60180818983F8018081846080838981FE
:1073A000883819F084E00E94A4380E94B6388823F7
:1073B00019F485E00E94A4380E940B39F8018081FD
:1073C00082608083C7010197F1F780818D7F808380
:0673D000D6CFF894FFCFB8
:040000030000700089
:00000001FF
