:100000000C9409010C9426010C9426010C942601F1
:100010000C9426010C9426010C9426010C942601C4
:100020000C9426010C9426010C9426010C94520188
:100030000C9426010C9426010C9426010C942601A4
:100040000C9426010C9426010C9426010C94260194
:100050000C9426010C9426010C9426010C94260184
:100060000C9426010C942601B600A805B900D50011
:10007000A405D800F400A005F70007019C050A01BB
:100080001B0179051D01390130053C015501300581
:1000900058016E01F50471018801F5048B01A4017A
:1000A000D504A701BC01F504BF01D1013005D4017D
:1000B000000000000000706C006C6F6164207061D3
:1000C00072616D65746572732066726F6D2045454F
:1000D00050524F4D007072007265736574207061EC
:1000E00072616D657465727320746F2064656661FA
:1000F000756C740073640064756D70207374617442
:100100006973746963730073720072657365742038
:1001100073746174697374696373006D006D6163F6
:100120002061646472657373206F6620646576690C
:100130006365203C6D61633E0066640073657420F6
:1001400066756C6C206475706C65206D6F646520DD
:100150005B6F6E5D0066630073657420666C6F771D
:1001600020636F6E74726F6C205B6F6E5D00746CD9
:100170000074657374207061636B6574206C656EC8
:10018000677468203C6E3E0074740074657374205C
:100190007061636B65742065746820747970652084
:1001A0003C6E3E0074690074657374204950206190
:1001B000646472657373203C69703E0074700074EF
:1001C0006573742055445020706F7274203C6E3EED
:1001D00000746D0074657374206D6F6465205B300E
:1001E0007C315D0073AD05EE010000000000647518
:1001F0006D702073746174697374696373001A118C
:10020000AFA047110000EA05FDFFC0A802DE901A6A
:10021000000011241FBECFEFD8E0DEBFCDBF11E03C
:10022000A0E0B1E0E2E5FBE102C005900D92AC3345
:10023000B107D9F717E0ACE3B1E001C01D92AD38CA
:10024000B107E1F70E94B0050C94A70D0C940000D3
:10025000F89488E08093800081E08093810080EDB5
:1002600097E0909389008093880010928500109207
:10027000840082E080936F00109247011092460143
:1002800010924501109244011092480110924901C8
:1002900010924A0110924B0110923D0110923C01C4
:1002A000789408951F920F920FB60F9211248F9396
:1002B0009F93AF93BF93109285001092840080911A
:1002C0004601909147010196909347018093460122
:1002D0008091480190914901A0914A01B0914B0150
:1002E0000196A11DB11D8093480190934901A093EF
:1002F0004A01B0934B0180913C0190913D010196E0
:1003000090933D0180933C018436910568F01092F2
:100310003D0110923C01809144019091450101966C
:100320009093450180934401BF91AF919F918F912C
:100330000F900FBE0F901F9018959C0110924501D1
:1003400010924401809144019091450182179307D6
:10035000C8F308959C0110924701109246018091C4
:1003600046019091470182179307C8F30895CF93F0
:10037000DF93EB016115710519F420E030E016C040
:10038000BC0180E090E020EA36E841E050E00E94C5
:10039000270D9E0140E050E0220F331F441F551FE0
:1003A000220F331F441F551F0E94520D822F932F7F
:1003B000DF91CF9108958A3010F4805D0895895CB3
:1003C0000895FF920F931F93F82E8B0182958F70E3
:1003D0000E94DB01F80180838F2D8F700E94DB016A
:1003E000F80181831F910F91FF900895FF920F9361
:1003F0001F93F82E8B01892F0E94E1010E5F1F4F82
:100400008F2DB8010E94E1011F910F91FF90089577
:10041000CF92DF92EF92FF920F931F936B017C01BB
:100420008A01AA27BB27BA010E94F6010C5F1F4F61
:10043000C601B8010E94F6011F910F91FF90EF9045
:10044000DF90CF900895282FFB0164E60E94460DAF
:10045000392F822F0E94460D805D8083832F6AE0B2
:100460000E94460D805D8183832F0E94460D905D22
:1004700092830895AF92BF92CF92DF92EF92FF9254
:100480000F931F93CF93DF93C62ED72EE82EF92E0E
:10049000B22E822F90E00197EA01C80FD91F0217F0
:1004A00008F42196BB2041F110E00F2EFEE2AF2EA2
:1004B000F02D101711F4A88221976C2D7D2D8E2D13
:1004C0009F2D2AE030E040E050E00E94520D605D38
:1004D00068831F5F1B1580F421976C2D7D2D8E2D59
:1004E0009F2D2AE030E040E050E00E94520DC22EE5
:1004F000D32EE42EF52EDDCFDF91CF911F910F91FA
:10050000FF90EF90DF90CF90BF90AF900895FB01E8
:10051000982F8156863020F4865F808381E008958D
:10052000892F8154863020F4865F808381E008958E
:10053000892F80538A3010F080E00895808381E015
:100540000895EF92FF920F931F93DF93CF930F9233
:10055000CDB7DEB78C017B01FC018081BE016F5FEE
:100560007F4F0E948702882391F089818295807F46
:100570008983F8018181B7010E948702882339F0BD
:10058000F70180819981892B808381E001C080E01F
:100590000F90CF91DF911F910F91FF90EF900895F1
:1005A000EF92FF920F931F93DF93CF9300D0CDB7BD
:1005B000DEB78C017B01BE016F5F7F4F0E94A102FD
:1005C0008823A1F0C8010296BE016E5F7F4F0E9492
:1005D000A102882359F0998180E02A8130E0822BA2
:1005E000932BF7019183808381E001C080E00F901D
:1005F0000F90CF91DF911F910F91FF90EF90089591
:10060000EF92FF920F931F93DF93CF9300D000D010
:10061000CDB7DEB78C017B01BE016F5F7F4F0E94BB
:10062000A102882309F44AC0C8010296BE016E5F88
:100630007F4F0E94A102882309F440C0C80104969C
:10064000BE016D5F7F4F0E94A1028823B9F1C801EE
:100650000696BE016C5F7F4F0E94A102882371F154
:10066000298130E040E050E0522F442733272227F1
:100670008A8190E0A0E0B0E0DC0199278827282B50
:10068000392B4A2B5B2B8C8190E0A0E0B0E0282B2B
:10069000392B4A2B5B2B8B8190E0A0E0B0E0BA2F86
:1006A000A92F982F8827282B392B4A2B5B2BF70152
:1006B000208331834283538381E001C080E00F9027
:1006C0000F900F900F90CF91DF911F910F91FF909E
:1006D000EF900895DB01FC0130E020E04AE08081EA
:1006E000982F90539A3050F4349F802D1124382F36
:1006F000390F2F5F3196233091F701C021113C93C0
:10070000822F0895F8942CE088E190E00FB6F894D9
:10071000A895809360000FBE20936000FFCF80916A
:100720003E01882329F481E080933E010E94770BEB
:100730000895CF92DF92FF920F931F93DF93CF9391
:1007400000D0CDB7DEB70E9403080E949A0B682F35
:100750000FE411E0C8010E94C50C0E94E70C109242
:100760004C0110923E01F801F68010E06E010894F1
:10077000C11CD11C0E9454080E94D00C082F882351
:1007800051F080914C0180FF03C00E948F0303C091
:10079000C6010E94940CFF2069F3112341F000234D
:1007A00049F780E060E00E94C80C10E0E3CF00232E
:1007B00009F380E061E00E94C80C11E0DBCF0F93E9
:1007C0001F93CF93DF93EC018FE791E00E945406D3
:1007D0002FEF8D3F920799F12FEF8E3F920728F46C
:1007E0008C5F9F4F09F040C032C02FEF8E3F9207C1
:1007F00001F18F5F9F4FC1F580914C01856080931F
:100800004C018FE491E069E771E00E94A006882323
:10081000B9F50FE411E089E791E0B8010E943406D0
:100820000E94E8070E94C70CC80164E00E94C50C42
:1008300027C080914C018E7F80934C0121C0809114
:100840004C01826080934C010E948F0319C0CE013D
:100850000E94860480914C01886080934C01109224
:100860003E010E948F030CC0CE010E94140C8091A7
:100870004C0180FD05C0866080934C010E948F036F
:1008800081E0DF91CF911F910F9108950F931F93F6
:10089000CF93DF93EC0180914C0181FF1CC08D7FD1
:1008A00080934C0103E711E080E091E0B8010E94E1
:1008B0003406B8016A5F7F4F8FE491E00E943406EE
:1008C000C8010C966FEF7FEF0E945E068EE090E00D
:1008D0009983888313C083FF07C080914D01909155
:1008E0004E01998388830AC0CE010E94940C8091A6
:1008F0004C0182FF03C08B7F80934C0110923E011C
:1009000081E0DF91CF911F910F9108951F93E3E74D
:10091000F1E09081892F80688083933041F094309A
:10092000B1F0913009F03FC00E9482033CC0A1E8C1
:10093000B1E0EFE4F1E084E101900D928150E1F744
:1009400082E290E090934E0180934D012CC0809103
:1009500074018150823010F013E01DC0AFE4B1E0AB
:10096000E1E8F1E084E101900D928150E1F780919E
:100970007401823031F40E94E807882311F015E0F9
:1009800001C011E00E94C70C0E949A0B682F8FE4EF
:1009900091E00E94C50C109374018EE090E090935A
:1009A0004E0180934D011F910895DF93CF9300D0A6
:1009B00000D0CDB7DEB7FB0182819381BE016F5FAE
:1009C0007F4F0E942807882311F481E107C0CE01E0
:1009D00001966BE571E00E94430680E00F900F9056
:1009E0000F900F90CF91DF9108950F931F93DF9396
:1009F000CF9300D0CDB7DEB7282FDB01ED91FC916E
:100A0000119791818081843719F5903759F0943787
:100A100019F09C36E9F403C009E511E005C007E5CB
:100A200011E002C00FE511E0213091F012968D9196
:100A30009C911397BE016F5F7F4F0E94D002882365
:100A400039F089819A81F8019183808380E001C027
:100A500081E10F900F90CF91DF911F910F91089539
:100A6000EF92FF921F93DF93CF930F92CDB7DEB734
:100A7000DB01ED91FC91119790812181943741F434
:100A80002D3671F5E2E6F1E090817F0110E011C0B2
:100A9000963631F5233641F0243611F5E6E5F1E0DE
:100AA00090817F0113E005C0E5E5F1E090817F01D1
:100AB00013E0813031F4F7011082992391F480839F
:100AC00010C012968D919C911397BE016F5F7F4F5E
:100AD0000E94A102882321F08981F701808301C04F
:100AE00011E1812F0F90CF91DF911F91FF90EF9037
:100AF0000895DF93CF9300D000D000D0CDB7DEB7FC
:100B0000FB0182819381BE016F5F7F4F0E94EF06E0
:100B1000882311F481E107C0CE0101966FE471E0F2
:100B20000E94340680E026960FB6F894DEBF0FBE12
:100B3000CDBFCF91DF9108950E94E70C80E008952A
:100B40000E94250D80E008950E94A80780E0089586
:100B50000E94B7078111806208950E94250D0895B3
:100B6000F894A89514BEE0E6F0E080818861808367
:100B7000108278940E942801E7E2F0E08081806290
:100B80008083E8E2F0E08081806280830E94E10758
:100B90000E94990380E090E008958F929F92AF9217
:100BA000BF92CF92DF92EF92FF920F931F938C012F
:100BB0005B014A01069662E070E00E945E06CC246A
:100BC000DD246894C3F8C00ED11EB8016E5E7F4F5D
:100BD000C6010E9434060F2EFEE0EF2EFF24F02DFA
:100BE000E00EF11E085E1F4FC701B8010E944306C8
:100BF000C501B6010E943406C401B7010E94430634
:100C00001F910F91FF90EF90DF90CF90BF90AF902A
:100C10009F908F9008950F931F93CF93DF93EC01D4
:100C20006C31710510F480E01AC00E9454068C01EA
:100C3000CE0102960E9454062C813D81013011059F
:100C400061F48050984049F4263039F490E0343013
:100C500009F091E081E0892702C080E090E0DF9117
:100C6000CF911F910F910895AC0125E0822F90E064
:100C7000DB01A80FB91FFA01E80FF91F80818C93DF
:100C80002150A0F70895FC01DB01838113968C931A
:100C90001397828112968C931297818111968C936F
:100CA000119780818C930895FC01218130E090811F
:100CB00080E0282B392B822F932F0895FC0170831D
:100CC00061830895FC01238130E040E050E08081A1
:100CD00090E0A0E0B0E0B82FAA2799278827282B1A
:100CE000392B4A2B5B2B818190E0A0E0B0E0DC0146
:100CF00099278827282B392B4A2B5B2B828190E060
:100D0000A0E0B0E0BA2FA92F982F8827282B392BE5
:100D10004A2B5B2B622F732F842F952F0895FC0194
:100D2000872F9927AA27BB278083CB01AA27BB2718
:100D30008183BB27A72F962F852F82834383089516
:100D4000AC0120E030E0FA01E20FF31FDB01A20F5B
:100D5000B31F90818C91981711F080E008952F5F58
:100D60003F4F2630310579F781E00895AC0120E04E
:100D700030E0FA01E20FF31FDB01A20FB31F9081F5
:100D80008C91981711F080E008952F5F3F4F243029
:100D9000310579F781E00895EF92FF920F931F9349
:100DA000CF93DF9320912401309125018C01E9013B
:100DB000EE24FF246894E4F8E20EF31EF80181911A
:100DC0008F01BE010E9423022496CE15DF05B1F7E4
:100DD000DF91CF911F910F91FF90EF900895AF9207
:100DE000BF92CF92DF92EF92FF920F931F93DF9308
:100DF000CF930F92CDB7DEB77C016B0100E010E01E
:100E00005E010894A11CB11CC701B5010E94A1029A
:100E1000882389F0F601E00FF11F898180830F5F3D
:100E20001F4F0630110511F481E006C083E090E009
:100E3000E80EF91EE9CF80E00F90CF91DF911F916E
:100E40000F91FF90EF90DF90CF90BF90AF900895FB
:100E5000AF92BF92CF92DF92EF92FF920F931F93C8
:100E6000DF93CF930F92CDB7DEB77C016B0100E02B
:100E700010E05E010894A11CB11CC701B5010E94DD
:100E80006A03982F882391F0F601E00FF11F898102
:100E900080830F5F1F4F0430110511F481E007C0FC
:100EA000892F90E00196E80EF91EE7CF80E00F90C1
:100EB000CF91DF911F910F91FF90EF90DF90CF9036
:100EC000BF90AF900895EF92FF920F931F93CF932F
:100ED000DF93E0903801F09039018C01C0E0D0E060
:100EE000B7016C0F7D1FF80181918F010E94E10114
:100EF0002396C231D105A1F7DF91CF911F910F91B8
:100F0000FF90EF900895FC014FEF5FEF20E030E09D
:100F100081914827842F82958427082E869586956F
:100F20008025082E869580258770042E452F86956E
:100F300007948795502D4827069487955025482774
:100F40002F5F3F4F2431310519F7842F952F0895D6
:100F5000AFE4B1E02EEF31E043E651E0F9012F5F5D
:100F60003F4FE491ED93A417B507C1F70895EF92B1
:100F7000FF920F931F93F99B02C081E01DC00F2EBB
:100F8000FFE4EF2EF1E0FF2EF02DC70160E070E0EE
:100F900044E150E00E94740D84E190E00E94840DD1
:100FA0008C01C7010E9483070817190711F480E01C
:100FB00003C00E94A80782E01F910F91FF90EF905D
:100FC00008950E94B707882311F00E94A80708958A
:100FD0000F931F93F99B02C081E012C00FE411E050
:100FE000C80160E070E044E150E00E948A0DC80151
:100FF0000E948307BC0184E190E00E94A20D80E082
:101000001F910F910895A7E2B0E08C91807E8C93A0
:10101000E8E2F0E08081807E80838C9186608C9312
:1010200080818B6180831AB8089586B1282F30E0C3
:1010300020713070359527953595279535952795ED
:1010400035952795220F331F8870880F880F822BC4
:101050000895782F109247011092460140913A016D
:1010600050913B01E6E2F0E015C08081282F30E08E
:10107000C9018870907095958795959587959595F8
:101080008795781711F481E0089524FD03C0862F19
:1010900083600895809146019091470184179507D8
:1010A00020F3862F826008952F923F924F925F9295
:1010B0006F927F928F929F92AF92BF92CF92DF9268
:1010C000EF92FF920F931F93DF93CF9300D0CDB792
:1010D000DEB710926301349B02C0339B04C01092B0
:1010E000640120E0D0C2A9B01A82198222E2A216BD
:1010F00019F084E4A816B9F4CE0101960E944604C2
:10110000282F813081F0E4E6F1E08083E2818CE0F9
:10111000E89FF0011124E35AF84F868197810196E8
:1011200097838683B0C26090480170904901809097
:101130004A0190904B011092850010928400E8E2E1
:10114000F0E0808184608083A2E2AA16A1F0AA1553
:1011500020F0B1E1AB1649F475C0E3E3AE1609F433
:101160007AC1F4E4AF1609F4DDC0BB246894B2F888
:10117000CC24DD24FCC1E980FA808FEF8AB981E0BC
:1011800060E20E942908B82E21E0821709F057C0BA
:10119000FBB8E8E2F0E080818B7F808380E060E351
:1011A0000E942908B82E81E0B81609F048C0EBB8B3
:1011B000E8E2F0E0808184608083C70101960F2E11
:1011C000FEEF2F2EFFEF3F2EF02D28223922211483
:1011D000310461F101E00F2EF3E7EF2EF1E0FF2E75
:1011E000F02DCC24DD240F2EF8E24F2E5524F02DC7
:1011F00014E0802F60E40E942908B82EA1E08A172D
:10120000E1F4F7018081ABE2B0E08C93F2018081E0
:10121000812780830894C11CD11C2C143D0441F00B
:101220000894E11CF11CF1E00F27E3CFCC24DD246E
:1012300081E060E50E942908B82E1AB898C1CC2434
:10124000DD2495C181E060E20E942908B82E21E0EA
:10125000821709F064C009B1E8E2F0E080818B7F79
:10126000808380E060E30E942908B82E81E0B816F0
:1012700009F055C029B1902F80E030E0282B392BA0
:10128000E8E2F0E0808194E089278083A5E02B3EAE
:101290003A0738F00F2EF5E0BF2EF02DCC24DD24D8
:1012A00066C1C90101960F2EFEEF2F2EFFEF3F2ED4
:1012B000F02D282239222114310471F101E00F2E82
:1012C000F3E7EF2EF1E0FF2EF02DCC24DD240F2EDE
:1012D000F8E24F2E5524F02D14E0802F60E40E9498
:1012E0002908B82EB1E08B1709F041C1E9E2F0E01E
:1012F0008081D7018C93F2018081812780830894BB
:10130000C11CD11C2C143D0409F431C10894E11C0A
:10131000F11CF1E00F27E1CFCC24DD2428C1CC243F
:10132000DD2425C1E980FA8081E060E20E9429087D
:10133000B82E21E0821709F08BC08FEF8AB9FBB875
:10134000E8E2F0E080818B7F808380E060E30E94B0
:101350002908B82E81E0B81609F07AC0EBB8E8E2A7
:10136000F0E0808194E08927808381E060E40E943E
:101370002908B82EA1E08A1709F06AC0C7010196B2
:10138000AC0156954795F894E8E2F0E0808194E04E
:10139000892780834115510591F103E711E020E091
:1013A00030E09FE06BE270E0E6E2F0E0892F8A95A2
:1013B000F1F7D8018C91DB018C93808183FF03C00E
:1013C000808184FDFACF808184FF1BC0892F8A959C
:1013D000F1F7D80111968C91DB018C93808183FD0C
:1013E00003C0808184FDFACF808184FF0AC02F5F13
:1013F0003F4F2417350728F40E5F1F4FD7CF20E04B
:1014000030E0E6E2F0E0A8E2B0E0789403C080814A
:1014100084FFFBCF808183FDFACF8C9184608C9315
:1014200003C0808184FFF1CF808183FFFACF24172E
:10143000350720F40F2EF2E4BF2EF02DE8E2F0E0A5
:1014400080818B7F80831AB86901CC0CDD1C8FC032
:10145000CC24DD248CC081E060E20E942908B82EF3
:10146000B1E08B1709F081C009B1E8E2F0E08081BA
:101470008B7F808380E060E30E942908B82EE1E042
:101480008E1709F072C029B1902F80E030E0822BD6
:10149000932BF5E08B3E9F0738F00F2EF5E0BF2E23
:1014A000F02DCC24DD2463C00196BC0176956795B0
:1014B000F894E8E2F0E0808194E089278083611568
:1014C000710529F42DC0808184FD09C00EC003E799
:1014D00011E020E030E0E6E2F0E049E250E0808117
:1014E00083FD03C0808184FDEECFDA018C91D801A9
:1014F0008C9303C0808184FF06C0808183FF03C07A
:10150000808184FDF7CFDA018C91D80111968C93FC
:101510002F5F3F4F2617370718F40E5F1F4FDFCF9F
:101520007894E6E2F0E0A8E2B0E094E0808183FD08
:1015300003C0808184FDFACF808184FF09C08C9133
:1015400089278C93808183FF03C0808184FDFACF3B
:10155000808184FFEBCFE8E2F0E0808194E089278E
:1015600080836B01CC0CDD1C02C0CC24DD241092E6
:1015700047011092460120913A0130913B01E6E289
:10158000F0E003C0808184FF07C080914601909104
:10159000470182179307B0F3E8E2F0E080818B7F88
:1015A0008083E0908400F0908500B1E0BB1659F490
:1015B000E1E1AE1621F0F3E3AF1609F07AC0C601FF
:1015C0000E94DF03B82E03E611E0F801A192B08279
:1015D000D8011596DC92CE9214971796FC92EE9253
:1015E0001697C601B7010E94B701F801918780875D
:1015F000D8011C966D927D928D929C921F97B1E1BD
:10160000AB1631F0E3E3AE1619F080E090E002C0D3
:1016100081E090E0E5E6F1E081931082882311F00B
:1016200081E0808380916501882319F020E030E01B
:101630000AC020916F01309170018091400190911A
:101640004101281B390B30936E0120936D01F1E0AD
:10165000BF1659F4E6E6F1E0618172814581568159
:1016600080810E94FC0C21E00EC0E09166018CE0BC
:10167000E89FF0011124E35AF84F86819781019683
:10168000978386832B2D822F0F900F90CF91DF9120
:101690001F910F91FF90EF90DF90CF90BF90AF9090
:1016A0009F908F907F906F905F904F903F902F9082
:1016B000089503E611E0F801A19281E08083D8014A
:1016C0001596DC92CE9214971796FC92EE9216978E
:1016D000C601B7010E94B701F80191878087D80140
:1016E0001C966D927D928D929C921F978ECF0F9338
:1016F0001F9308E210E0F80180818D7F808384E1F0
:1017000090E00E94AA01F80180818260808380912C
:10171000480190914901A0914A01B0914B018093F9
:10172000400190934101A0934201B09343011F9166
:101730000F91089580915501882311F09CE001C01C
:1017400094E08091560181119160892F08958F92C4
:101750009F92AF92BF92CF92DF92EF92FF920F9340
:101760001F93CF93DF9301E811E0F8018081880F88
:10177000880F8C735801A80EB11CC50102960E94F7
:101780005406EC01005F1F4F8BE591E0B8010E9409
:10179000B6068823D9F180905F01909060018C1685
:1017A0009D06A1F50DE811E0B8016C5F7F4FC801FF
:1017B0000E9443060F2EFBE5CF2EF1E0DF2EF02D29
:1017C000C601B8010E944306C5010E9454067C016F
:1017D000C501B4010E945E06C5010296B7010E94D0
:1017E0005E060F2EFCEEEF2EFFEFFF2EF02DE00E2B
:1017F000F11E0A511040C701B8010E943406C6010B
:101800000C97B7010E94340681E001C080E0DF91AF
:10181000CF911F910F91FF90EF90DF90CF90BF90ED
:10182000AF909F908F900895FF920F931F93CF9347
:10183000DF93EC0104E810E0F8011182108283E7E5
:1018400091E0BE010E94CC0CF82EF80160817181FC
:10185000CE010E94B701AC01FF2029F483E0BE0154
:101860000E94FC0C07C0E7E8F7E0808191810196B7
:10187000918380838F2DDF91CF911F910F91FF90E6
:101880000895EF92FF920F931F93CF93DF93EC0194
:101890008FE791E00E94540686509840D9F5CF30EA
:1018A000D105C0F1BE016E50704081E891E00E9408
:1018B0000B06882389F187E891E00E94540601977E
:1018C00059F589E991E06BE571E00E94B60688233D
:1018D00019F101E811E00F2EFFE4EF2EF1E0FF2EE9
:1018E000F02DA701445F5F4FC801B7010E94CD05ED
:1018F0000E50104080E091E0B8010E9434060A5F6B
:101900001F4FC701B8010E943406CE010E94140C7B
:1019100081E003C080E001C081E0DF91CF911F91A1
:101920000F91FF90EF900895FF920F931F93CF9325
:10193000DF93EC0104E810E0F8011182108283E7E4
:1019400091E06AEE75E0AE010E94CE0CF82EF8012F
:1019500060817181888199810E94B701AC01FF206B
:1019600031F46881798182E00E94FC0C07C0EBE7CA
:10197000F7E0808191810196918380838F2DDF91A3
:10198000CF911F910F91FF90089580E008950895E1
:1019900080E0089580E0089580E0089580E0089553
:1019A00080E00895E4E2F0E080818E6280838081AF
:1019B0008E768083E5E2F0E08081877D8083808180
:1019C0008460808380E58CBD81E08DBD0895EDE568
:1019D000F7E02DE837E0108211821282138215821F
:1019E00014821782168211861086138612863C9600
:1019F000E217F30781F708950F931F939CE0899FE7
:101A0000C0011124FC01E35AF84F848195810196AD
:101A1000958384838B0120E030E080819181A281D5
:101A2000B381800F911FA21FB31F80839183A28374
:101A3000B383828593858417950710F45387428773
:101A40001F910F9108950895089508950895629F34
:101A5000D001739FF001829FE00DF11D649FE00DA6
:101A6000F11D929FF00D839FF00D749FF00D659F07
:101A7000F00D9927729FB00DE11DF91F639FB00D06
:101A8000E11DF91FBD01CF0111240895991B79E0D3
:101A900004C0991F961708F0961B881F7A95C9F7FE
:101AA00080950895A1E21A2EAA1BBB1BFD010DC053
:101AB000AA1FBB1FEE1FFF1FA217B307E407F507FE
:101AC00020F0A21BB30BE40BF50B661F771F881FDA
:101AD000991F1A9469F760957095809590959B0170
:101AE000AC01BD01CF010895DC01CB01FC01F999E6
:101AF000FECF06C0F2BDE1BDF89A319600B40D925A
:101B000041505040B8F70895A8E1B0E042E050E0FD
:101B10000C94760DDC01CB0103C02D910E94950D34
:101B200041505040D0F70895262FF999FECF1FBAA3
:101B300092BD81BD20BD0FB6F894FA9AF99A0FBEF6
:101B4000019608950E94940D272F0C94950DF894FA
:021B5000FFCFC5
:101B5200FFFFFFFFFFFF0000000000000000000089
:101B6200FFFFFFFF3030302E3030302E3030302E3D
:101B720030303000140130303A30303A30303A30C0
:0C1B8200303A30303A3030002601881331
:00000001FF
