:100000000C94D7010C94F4010C94F4010C94F401B9
:100010000C94F4010C94F4010C94F4010C94F4018C
:100020000C94F4010C94F4010C94F4010C9420024F
:100030000C94F4010C94F4010C94F4010C94F4016C
:100040000C94F4010C94F4010C94F4010C94F4015C
:100050000C94F4010C94F4010C94F4010C94F4014C
:100060000C94F4010C94F401D400C705D600E80008
:10007000C905EA00FC00CB05FE001501AA06170120
:100080002801A5062B014501A006480164019C0634
:100090006701830198068601960194069901AA01D9
:1000A0007106AC01C8012806CB01E4012806E7016E
:1000B000FD01ED0500021702ED051A023302CD0520
:1000C00036024B02ED054E02600228066302000074
:1000D0000000000071007175697420636F6D6D61BF
:1000E0006E64206D6F6465007200736F66742072B9
:1000F0006573657420646576696365007600707267
:10010000696E74206669726D7761726520766572BA
:1001100073696F6E0070007072696E742070617226
:10012000616D65746572730070730073617665202C
:10013000706172616D657465727320746F204545DE
:1001400050524F4D00706C006C6F61642070617292
:10015000616D65746572732066726F6D20454550E0
:10016000524F4D0070720072657365742070617239
:10017000616D657465727320746F20646566617566
:100180006C740073640064756D70207374617469BD
:10019000737469637300737200726573657420739E
:1001A000746174697374696373006D006D616320B9
:1001B00061646472657373206F6620646576696339
:1001C00065203C6D61633E00666400736574206663
:1001D000756C6C206475706C65206D6F6465205B58
:1001E0006F6E5D0066630073657420666C6F7720C8
:1001F000636F6E74726F6C205B6F6E5D00746C0069
:1002000074657374207061636B6574206C656E67D0
:100210007468203C6E3E00747400746573742070C2
:1002200061636B6574206574682074797065203C27
:100230006E3E0074690074657374204950206164D7
:100240006472657373203C69703E0074700074655D
:1002500073742055445020706F7274203C6E3E00C1
:10026000746D0074657374206D6F6465205B307C01
:10027000315D0031B606AA0232B906BC0233B206BD
:10028000D30234AE06E70273D406FA0253D1060A4B
:100290000376BD061B0370CD06310350C906520319
:1002A00061C6067C030000000000656E7465722064
:1002B000627269646765206D6F646500656E746560
:1002C00072206272696467652074657374206D6F53
:1002D000646500656E7465722050494F20746573C3
:1002E00074206D6F646500656E74657220504220E5
:1002F00074657374206D6F64650064756D70207330
:1003000074617469737469637300726573657420D2
:100310007374617469737469637300746F67676C75
:100320006520766572626F7365206F757470757481
:100330000073656E6420612074657374207061635E
:100340006B65742028706274657374206D6F6465CA
:10035000290073656E642061207465737420706178
:10036000636B6574202873696C656E74292028702E
:100370006274657374206D6F64652900746F6767BC
:100380006C65206175746F2073656E6420287062DF
:1003900074657374206D6F646529001A11AFA047EE
:1003A000110000EA05FDFFC0A802DE901A0011242A
:1003B0001FBECFEFD8E0DEBFCDBF11E0A0E0B1E0BF
:1003C000E0E6F6E202C005900D92AC33B107D9F732
:1003D00017E0ACE3B1E001C01D92A939B107E1F724
:1003E0000E9428070C942E130C940000F89488E0C7
:1003F0008093800081E08093810080ED97E090936E
:10040000890080938800109285001092840082E019
:1004100080936F001092570110925601109255016F
:1004200010925401109258011092590110925A01E1
:1004300010925B0110923D0110923C017894089556
:100440001F920F920FB60F9211242F938F939F93A9
:10045000AF93BF9310928500109284008091560153
:100460009091570101969093570180935601809186
:10047000580190915901A0915A01B0915B010196E8
:10048000A11DB11D8093580190935901A0935A0169
:10049000B0935B0180913C0190913D010196909356
:1004A0003D0180933C01885E934068F010923D01CD
:1004B00010923C01809154019091550101969093C6
:1004C000550180935401BF91AF919F918F912F91CE
:1004D0000F900FBE0F901F9018959C011092550120
:1004E0001092540180915401909155018217930705
:1004F000C8F308959C011092570110925601809103
:1005000056019091570182179307C8F30895CF932E
:10051000DF93EB016115710519F420E030E016C09E
:10052000BC0180E090E020EA36E841E050E00E9423
:10053000AE129E0140E050E0220F331F441F551FB2
:10054000220F331F441F551F0E94D912822F932F51
:10055000DF91CF9108958A3010F4805D0895895C11
:100560000895FF920F931F93F82E8B0182958F7041
:100570000E94AB02F80180838F2D8F700E94AB0226
:10058000F80181831F910F91FF900895FF920F93BF
:100590001F93F82E8B01892F0E94B1020E5F1F4F0F
:1005A0008F2DB8010E94B1021F910F91FF90089505
:1005B000CF92DF92EF92FF920F931F936B017C011A
:1005C0008A01AA27BB27BA010E94C6020C5F1F4FEF
:1005D000C601B8010E94C6021F910F91FF90EF90D3
:1005E000DF90CF900895282FFB0164E60E94CD1282
:1005F000392F822F0E94CD12805D8083832F6AE085
:100600000E94CD12805D8183832F0E94CD12905D68
:1006100092830895AF92BF92CF92DF92EF92FF92B2
:100620000F931F93CF93DF93C62ED72EE82EF92E6C
:10063000B22E822F90E00197EA01C80FD91F02174E
:1006400008F42196BB2041F110E00F2EFEE2AF2E00
:10065000F02D101711F4A88221976C2D7D2D8E2D71
:100660009F2D2AE030E040E050E00E94D912605D0A
:1006700068831F5F1B1580F421976C2D7D2D8E2DB7
:100680009F2D2AE030E040E050E00E94D912C22EB7
:10069000D32EE42EF52EDDCFDF91CF911F910F9158
:1006A000FF90EF90DF90CF90BF90AF900895FB0147
:1006B000982F8156863020F4865F808381E00895EC
:1006C000892F8154863020F4865F808381E00895ED
:1006D000892F80538A3010F080E00895808381E074
:1006E0000895EF92FF920F931F93DF93CF930F9292
:1006F000CDB7DEB78C017B01FC018081BE016F5F4D
:100700007F4F0E945703882391F089818295807FD3
:100710008983F8018181B7010E945703882339F04A
:10072000F70180819981892B808381E001C080E07D
:100730000F90CF91DF911F910F91FF90EF9008954F
:10074000EF92FF920F931F93DF93CF9300D0CDB71B
:10075000DEB78C017B01BE016F5F7F4F0E9471038A
:100760008823A1F0C8010296BE016E5F7F4F0E94F0
:100770007103882359F0998180E02A8130E0822B2F
:10078000932BF7019183808381E001C080E00F907B
:100790000F90CF91DF911F910F91FF90EF900895EF
:1007A000EF92FF920F931F93DF93CF9300D000D06F
:1007B000CDB7DEB78C017B01BE016F5F7F4F0E941A
:1007C0007103882309F44AC0C8010296BE016E5F16
:1007D0007F4F0E947103882309F440C0C80104962A
:1007E000BE016D5F7F4F0E9471038823B9F1C8017C
:1007F0000696BE016C5F7F4F0E947103882371F1E2
:10080000298130E040E050E0522F4427332722274F
:100810008A8190E0A0E0B0E0DC0199278827282BAE
:10082000392B4A2B5B2B8C8190E0A0E0B0E0282B89
:10083000392B4A2B5B2B8B8190E0A0E0B0E0BA2FE4
:10084000A92F982F8827282B392B4A2B5B2BF701B0
:10085000208331834283538381E001C080E00F9085
:100860000F900F900F90CF91DF911F910F91FF90FC
:10087000EF900895DB01FC0130E020E04AE0808148
:10088000982F90539A3050F4349F802D1124382F94
:10089000390F2F5F3196233091F701C021113C931E
:1008A000822F089580913F01882329F481E080936D
:1008B0003F010E94C9090895CF92DF92FF920F93E2
:1008C0001F93DF93CF9300D0CDB7DEB78BE095E0D9
:1008D00069EB74E00E94A6090E94580E682F0CE58F
:1008E00011E0C8010E94EB100E946E1210923E01AE
:1008F00010923F01F801F68010E06E010894C11CCF
:10090000D11C24C00E94DD0D0E94E710082F88230F
:1009100051F080913E0180FF03C00E94520403C049
:10092000C6010E94520FFF2089F0112341F00023DD
:1009300069F480E060E00E944A1010E007C00023E4
:1009400029F080E061E00E944A1011E080914201AC
:100950008823C1F20E94AC120E94411080E00F90E7
:100960000F90CF91DF911F910F91FF90DF90CF906B
:1009700008950F931F93CF93DF93EC018BE891E0E1
:100980000E94F6072FEF8E3F920729F12FEF8F3F3E
:10099000920720F48D5F9F4F61F523C080913E0147
:1009A000856080933E018CE591E065E871E00E94EE
:1009B0004208882351F50CE511E085E891E0B80183
:1009C0000E94D6070E948B090E944110C80164E072
:1009D0000E94EB101AC080913E018E7F80933E01F1
:1009E00014C080913E01826080933E010E945204B7
:1009F0000CC0CE010E94D20E80913E0180FD05C048
:100A0000866080933E010E94520481E0DF91CF9185
:100A10001F910F9108950F931F93CF93DF93EC01D4
:100A200080913E0181FF1CC08D7F80933E010FE7C6
:100A300011E080E091E0B8010E94D607B8016A5F3A
:100A40007F4F8CE591E00E94D607C8010C966FEFAE
:100A50007FEF0E9400088EE090E0998388830AC0AF
:100A6000CE010E94520F80913E0182FF03C08B7F16
:100A700080933E0110923F0181E0DF91CF911F9161
:100A80000F9108950F931F93DF93CF9300D0CDB7AD
:100A9000DEB78BE895E067EA75E00E94A6090E9440
:100AA000580E682F8CE591E00E94EB100E946E12A8
:100AB0008E010F5F1F4F1FC00E94DD0D0E94E710C7
:100AC0008823C9F0C8010E94520F8823A1F48981AC
:100AD0009A810E94FF0E882371F489819A810E9475
:100AE000650E882341F089819A819093410180931A
:100AF00040010E94C909809142018130E9F20E94BF
:100B0000AC120E94411080E00F900F90CF91DF91C6
:100B10001F910F910895FC01809140019091410136
:100B2000918380838B5E954010F085E008958091DD
:100B30006E01882331F48BE891E06DEF7FEF0E9426
:100B40000008109241011092400181E00895CF9376
:100B5000DF93EC018BE891E00E94F6079C01809105
:100B60006E01882351F42D5F3F4F69F48BE891E0CB
:100B700060E078E00E94000803C02050384019F47B
:100B8000CE010E94D20E81E0DF91CF91089581E0E5
:100B9000089582E0089580E00895DF93CF9300D018
:100BA00000D0CDB7DEB7FB0182819381BE016F5FBC
:100BB0007F4F0E94CA08882311F481E107C0CE014B
:100BC000019668E671E00E94E50780E00F900F90C3
:100BD0000F900F90CF91DF9108950F931F93DF93A4
:100BE000CF9300D0CDB7DEB7282FDB01ED91FC917C
:100BF000119791818081843719F5903759F0943796
:100C000019F09C36E9F403C006E611E005C004E6DD
:100C100011E002C00CE611E0213091F012968D91A6
:100C20009C911397BE016F5F7F4F0E94A0038823A2
:100C300039F089819A81F8019183808380E001C035
:100C400081E10F900F90CF91DF911F910F91089547
:100C5000EF92FF921F93DF93CF930F92CDB7DEB742
:100C6000DB01ED91FC91119790812181943741F442
:100C70002D3671F5EEE6F1E090817F0110E011C0B4
:100C8000963631F5233641F0243611F5E3E6F1E0EE
:100C900090817F0113E005C0E2E6F1E090817F01E1
:100CA00013E0813031F4F7011082992391F48083AD
:100CB00010C012968D919C911397BE016F5F7F4F6C
:100CC0000E947103882321F08981F701808301C08C
:100CD00011E1812F0F90CF91DF911F91FF90EF9045
:100CE0000895DF93CF9300D000D000D0CDB7DEB70A
:100CF000FB0182819381BE016F5F7F4F0E9491084B
:100D0000882311F481E107C0CE0101966CE571E002
:100D10000E94D60780E026960FB6F894DEBF0FBE7D
:100D2000CDBFCF91DF9108950E946E1280E00895AB
:100D30000E94AC1280E008950E944B0980E0089563
:100D40000E945A098111806208950E948B098111C5
:100D5000806208950E94250980E0089582E08093D2
:100D60004201089583E08093420108951092420168
:100D7000089581E080934201089590E080914301BD
:100D8000882309F491E09093430108950E94140D83
:100D9000089581E00E940F0D089580E00E940F0DDC
:100DA00008950E946E1208950E94AC12089508954D
:100DB0000895089506960E94F60708951F93CF930D
:100DC000DF93FC018081880F880F8C73EF01C80FBF
:100DD000D11D8185813141F4CE010E94F607CE01FB
:100DE00002960E94F60718C08630B1F4CE010E9428
:100DF000F607CE0102960E94F607CE010C960E94DD
:100E0000F607182FCE0104960E94040814FF04C0B0
:100E1000CE0108960E940408DF91CF911F9108959A
:100E2000CF93DF93EC012E960C960E94F60728E0F4
:100E30008630920721F4CE010E94DA0606C0805067
:100E4000984019F4CE010E94DE06DF91CF910895FB
:100E500088E10FB6F89480936000109260000FBE96
:100E600078940E94F601A7E2B0E08C91807E8C938A
:100E7000E8E2F0E08081807E80838C9186608C93B4
:100E800080818B6180838FEF8AB90E9484090E94E0
:100E9000250980914201823029F0833031F0813080
:100EA00051F406C00E94240D08C00E940B0E05C01C
:100EB0000E94420502C00E945C04823051F78AE021
:100EC00090E00E946D0228E088E190E00FB6F8946F
:100ED000A895809360000FBE20936000FFCF8F9293
:100EE0009F92AF92BF92CF92DF92EF92FF920F93B9
:100EF0001F938C015B014A01069662E070E00E943C
:100F00000008CC24DD246894C3F8C00ED11EB801BB
:100F10006E5E7F4FC6010E94D6070F2EFEE0EF2EB9
:100F2000FF24F02DE00EF11E085E1F4FC701B8012F
:100F30000E94E507C501B6010E94D607C401B701AA
:100F40000E94E5071F910F91FF90EF90DF90CF90E7
:100F5000BF90AF909F908F9008950F931F93CF9362
:100F6000DF93EC016C31710510F480E01AC00E942F
:100F7000F6078C01CE0102960E94F6072C813D8176
:100F80000130110561F48050984049F4263039F45D
:100F900090E0343009F091E081E0892702C080E0E0
:100FA00090E0DF91CF911F910F910895AC0125E062
:100FB000822F90E0DB01A80FB91FFA01E80FF91F9B
:100FC00080818C932150A0F70895FC01DB0183817F
:100FD00013968C931397828112968C93129781812A
:100FE00011968C93119780818C930895FC01218137
:100FF00030E0908180E0282B392B822F932F0895A9
:10100000FC01708361830895FC01238130E040E09E
:1010100050E0808190E0A0E0B0E0B82FAA279927A7
:101020008827282B392B4A2B5B2B818190E0A0E06D
:10103000B0E0DC0199278827282B392B4A2B5B2B22
:10104000828190E0A0E0B0E0BA2FA92F982F8827E6
:10105000282B392B4A2B5B2B622F732F842F952F34
:101060000895FC01872F9927AA27BB278083CB01EE
:10107000AA27BB278183BB27A72F962F852F828383
:1010800043830895AC0120E030E0FA01E20FF31F42
:10109000DB01A20FB31F90818C91981711F080E0B3
:1010A00008952F5F3F4F2630310579F781E008958D
:1010B000AC0120E030E0FA01E20FF31FDB01A20FE8
:1010C000B31F90818C91981711F080E008952F5FE5
:1010D0003F4F2430310579F781E00895EF92FF9278
:1010E0000F931F93CF93DF9320912401309125011B
:1010F0008C01E901EE24FF246894E4F8E20EF31E6B
:10110000F80181918F01BE010E94F3022496CE1551
:10111000DF05B1F7DF91CF911F910F91FF90EF9015
:101120000895AF92BF92CF92DF92EF92FF920F930A
:101130001F93DF93CF930F92CDB7DEB77C016B0186
:1011400000E010E05E010894A11CB11CC701B501CC
:101150000E947103882389F0F601E00FF11F898155
:1011600080830F5F1F4F0630110511F481E006C028
:1011700083E090E0E80EF91EE9CF80E00F90CF9178
:10118000DF911F910F91FF90EF90DF90CF90BF9074
:10119000AF900895AF92BF92CF92DF92EF92FF92FD
:1011A0000F931F93DF93CF930F92CDB7DEB77C01E0
:1011B0006B0100E010E05E010894A11CB11CC701A6
:1011C000B5010E943A04982F882391F0F601E00FB0
:1011D000F11F898180830F5F1F4F0430110511F4C7
:1011E00081E007C0892F90E00196E80EF91EE7CF55
:1011F00080E00F90CF91DF911F910F91FF90EF90C2
:10120000DF90CF90BF90AF900895EF92FF920F9331
:101210001F93CF93DF93E0903801F09039018C0158
:10122000C0E0D0E0B7016C0F7D1FF80181918F0104
:101230000E94B1022396C231D105A1F7DF91CF916F
:101240001F910F91FF90EF9008950895FC014FEFCB
:101250005FEF20E030E081914827842F829584273A
:10126000082E869586958025082E86958025877080
:10127000042E452F869507948795502D4827069470
:101280008795502548272F5F3F4F2331310519F7A8
:10129000842F952F0895ACE5B1E02BE933E04FE6BC
:1012A00051E0F9012F5F3F4FE491ED93A417B5078B
:1012B000C1F70895EF92FF920F931F93F99B02C01D
:1012C00081E01DC00F2EFCE5EF2EF1E0FF2EF02D8A
:1012D000C70160E070E043E150E00E94FB1283E14F
:1012E00090E00E940B138C01C7010E942609081789
:1012F000190711F480E003C00E944B0982E01F919E
:101300000F91FF90EF9008950E945A09882311F0E1
:101310000E944B0908950F931F93F99B02C081E02F
:1013200012C00CE511E0C80160E070E043E150E05C
:101330000E941113C8010E942609BC0183E190E0BC
:101340000E94291380E01F910F9108959093450109
:101350008093440170934701609346011AB8E6E216
:10136000F0E080818B7F8083089586B1282F30E064
:1013700020713070359527953595279535952795AA
:1013800035952795220F331F8870880F880F822B81
:101390000895E8E2F0E080818D7F808381E08A9586
:1013A000F1F780818260808380915801909159018A
:1013B000A0915A01B0915B0180934801909349013B
:1013C000A0934A01B0934B010895782F10925701D2
:1013D0001092560140913A0150913B01E6E2F0E053
:1013E00015C08081282F30E0C901887090709595D4
:1013F00087959595879595958795781711F481E050
:10140000089524FD03C0862F8360089580915601BE
:10141000909157018417950720F3862F82600895D5
:101420002F923F924F925F926F927F928F929F92F4
:10143000AF92BF92CF92DF92EF92FF920F931F93E2
:10144000DF93CF9300D0CDB7DEB710926F01349BFE
:1014500002C0339B04C01092700180E0ADC2A9B0FD
:101460001A82198222E2A21619F084E4A81661F405
:10147000E0914401F0914501CE010196099581303A
:1014800019F08093700198C26090580170905901D2
:1014900080905A0190905B01109285001092840018
:1014A000E8E2F0E0808184608083A2E2AA16A1F0E5
:1014B000AA1520F0B1E1AB1649F475C0E3E3AE160E
:1014C00009F47AC1F4E4AF1609F4DDC0BB246894D2
:1014D000B2F8CC24DD24FCC1E980FA808FEF8AB910
:1014E00081E060E20E94E509B82E21E0821709F050
:1014F00057C0FBB8E8E2F0E080818B7F808380E01A
:1015000060E30E94E509B82E81E0B81609F048C0F2
:10151000EBB8E8E2F0E0808184608083C701019647
:101520000F2EFEEF2F2EFFEF3F2EF02D2822392217
:101530002114310461F101E00F2EFFE7EF2EF1E0FD
:10154000FF2EF02DCC24DD240F2EF8E24F2E552453
:10155000F02D14E0802F60E40E94E509B82EA1E090
:101560008A17E1F4F7018081ABE2B0E08C93F201DD
:101570008081812780830894C11CD11C2C143D04D8
:1015800041F00894E11CF11CF1E00F27E3CFCC24DB
:10159000DD2481E060E50E94E509B82E1AB898C103
:1015A000CC24DD2495C181E060E20E94E509B82EDB
:1015B00021E0821709F064C009B1E8E2F0E080811F
:1015C0008B7F808380E060E30E94E509B82E81E094
:1015D000B81609F055C029B1902F80E030E0282BD3
:1015E000392BE8E2F0E0808194E089278083A5E050
:1015F0002B3E3A0738F00F2EF5E0BF2EF02DCC240D
:10160000DD2466C1C90101960F2EFEEF2F2EFFEFDC
:101610003F2EF02D282239222114310471F101E0EE
:101620000F2EFFE7EF2EF1E0FF2EF02DCC24DD246E
:101630000F2EF8E24F2E5524F02D14E0802F60E499
:101640000E94E509B82EB1E08B1709F041C1E9E22B
:10165000F0E08081D7018C93F20180818127808323
:101660000894C11CD11C2C143D0409F431C1089408
:10167000E11CF11CF1E00F27E1CFCC24DD2428C1CF
:10168000CC24DD2425C1E980FA8081E060E20E945B
:10169000E509B82E21E0821709F08BC08FEF8AB9D7
:1016A000FBB8E8E2F0E080818B7F808380E060E33C
:1016B0000E94E509B82E81E0B81609F07AC0EBB8AF
:1016C000E8E2F0E0808194E08927808381E060E4B3
:1016D0000E94E509B82EA1E08A1709F06AC0C70187
:1016E0000196AC0156954795F894E8E2F0E08081C8
:1016F00094E0892780834115510591F10FE711E0AE
:1017000020E030E09FE06BE270E0E6E2F0E0892F5D
:101710008A95F1F7D8018C91DB018C93808183FF4E
:1017200003C0808184FDFACF808184FF1BC0892F94
:101730008A95F1F7D80111968C91DB018C93808109
:1017400083FD03C0808184FDFACF808184FF0AC0BD
:101750002F5F3F4F2417350728F40E5F1F4FD7CF59
:1017600020E030E0E6E2F0E0A8E2B0E0789403C0E8
:10177000808184FFFBCF808183FDFACF8C918460D0
:101780008C9303C0808184FFF1CF808183FFFACFE7
:101790002417350720F40F2EF2E4BF2EF02DE8E2D7
:1017A000F0E080818B7F80831AB86901CC0CDD1C4E
:1017B0008FC0CC24DD248CC081E060E20E94E5096A
:1017C000B82EB1E08B1709F081C009B1E8E2F0E072
:1017D00080818B7F808380E060E30E94E509B82EE2
:1017E000E1E08E1709F072C029B1902F80E030E05F
:1017F000822B932BF5E08B3E9F0738F00F2EF5E000
:10180000BF2EF02DCC24DD2463C00196BC0176955B
:101810006795F894E8E2F0E0808194E0892780837E
:101820006115710529F42DC0808184FD09C00EC0A9
:101830000FE711E020E030E0E6E2F0E049E250E0BE
:10184000808183FD03C0808184FDEECFDA018C911D
:10185000D8018C9303C0808184FF06C0808183FF00
:1018600003C0808184FDF7CFDA018C91D8011196F5
:101870008C932F5F3F4F2617370718F40E5F1F4FCB
:10188000DFCF7894E6E2F0E0A8E2B0E094E0808177
:1018900083FD03C0808184FDFACF808184FF09C06D
:1018A0008C9189278C93808183FF03C0808184FD84
:1018B000FACF808184FFEBCFE8E2F0E0808194E012
:1018C000892780836B01CC0CDD1C02C0CC24DD2475
:1018D000109257011092560120913A0130913B012C
:1018E000E6E2F0E003C0808184FF07C080915601EA
:1018F0009091570182179307B0F3E8E2F0E08081FE
:101900008B7F8083E0908400F0908500B1E0BB166F
:1019100071F4E1E1AE1621F0F3E3AF1609F061C016
:10192000E0914601F0914701C6010995B82E0FE6F6
:1019300011E0F801A192B082D8011596DC92CE9206
:1019400014971796FC92EE921697C601B7010E9463
:101950008702F80191878087D8011C966D927D924D
:101960008D929C921F97B1E1AB1631F0E3E3AE1676
:1019700019F080E090E002C081E090E0E1E7F1E062
:1019800081931082882311F081E08083809171011E
:10199000882319F020E030E00AC020917B013091CB
:1019A0007C018091480190914901281B390B3093AB
:1019B0007A01209379018B2D0F900F90CF91DF91B9
:1019C0001F910F91FF90EF90DF90CF90BF90AF905D
:1019D0009F908F907F906F905F904F903F902F904F
:1019E00008950FE611E0F801A19281E08083D8010B
:1019F0001596DC92CE9214971796FC92EE9216975B
:101A0000C601B7010E948702F80191878087D8013B
:101A10001C966D927D928D929C921F97AACF809377
:101A20004E010E94C909089590E080914D018823DC
:101A300009F491E090934D01992329F081E00E94EF
:101A40000F0D0E946E1208950F931F93CF93DF9393
:101A50000E946E128DE99DE06AE67DE00E94A60973
:101A600010924D0110924C0110924E01C1E7D1E04D
:101A70000FE611E021C00E94DD0D8130A9F48091B4
:101A80004E01882319F4C8010E94D9068881882351
:101A900099F080914D01882321F081E00E940F0D83
:101AA0000BC010924E0108C0882331F080914D0187
:101AB000882311F00E94140D809142018230D9F2E6
:101AC00081E060E00E94AD1280E0DF91CF911F9134
:101AD0000F910895CF93DF93C0E0D0E0209164018F
:101AE000309165012817390711F0C1E0D0E08FE788
:101AF00091E060E071E00E944208882309F4219699
:101B000085E891E06CE571E00E944208882309F4C1
:101B10002196E6E6F1E02081918180918B01891781
:101B200019F480918C0182132196CD2B11F481E060
:101B300001C086E0DF91CF910895EF92FF920F935D
:101B40001F93CF93DF93EC01809164019091650125
:101B5000998388838B5E954010F085E027C00F2E17
:101B6000FFE7EF2EF1E0FF2EF02D80E091E0B701CE
:101B70000E94D6070CE511E0B7016A5F7F4FC801EC
:101B80000E94D607065F1F4FF80190818181F701FF
:101B900084879587888199810E9739F0EDE8F1E087
:101BA00020E021932F5F0197E1F781E0DF91CF9152
:101BB0001F910F91FF90EF9008950F930E94100ACC
:101BC000082F882329F1813091F4E2E7F1E0618167
:101BD00072814581568180810E94831280914301E8
:101BE0008823B1F08FE691E00E94D90611C08FE6FC
:101BF00091E00E94D906E09172018CE0E89FF0012B
:101C00001124E759F84F868197810196978386833F
:101C1000802F0F910895EF92FF920F931F93DF9300
:101C2000CF9300D0CDB7DEB70E94580E682F8CE559
:101C300091E00E94EB100E946E127E010894E11C5C
:101C4000F11C07E817E020C00E94E7108823E1F0AC
:101C5000C7010E94520F882389F489819A810E94CA
:101C6000FF0E882389F489819A810E94650E88235A
:101C700059F089819A810E94D20E06C0F8018081B4
:101C80009181019691838083809142018330E1F2BA
:101C900080E061E00E94AD120E94411080E00F9050
:101CA0000F90CF91DF911F910F91FF90EF900895CA
:101CB00080916201882311F09CE001C094E0809142
:101CC000630181119160892F08958F929F92AF9245
:101CD000BF92CF92DF92EF92FF920F931F93CF9319
:101CE000DF930DE811E0F8018081880F880F8C7375
:101CF0005801A80EB11CC50102960E94F607EC011E
:101D0000005F1F4F88E691E0B8010E9458088823C1
:101D1000D9F180906C0190906D018C169D06A1F513
:101D200009E911E0B8016C5F7F4FC8010E94E50727
:101D30000F2EF8E6CF2EF1E0DF2EF02DC601B80110
:101D40000E94E507C5010E94F6077C01C501B401A8
:101D50000E940008C5010296B7010E9400080F2EDC
:101D6000FCEEEF2EFFEFFF2EF02DE00EF11E0A51DC
:101D70001040C701B8010E94D607C6010C97B701F1
:101D80000E94D60781E001C080E0DF91CF911F91D2
:101D90000F91FF90EF90DF90CF90BF90AF909F900A
:101DA0008F900895FF920F931F93CF93DF93EC01D1
:101DB00004E810E0F801118210828FE791E0BE0183
:101DC0000E948E10F82EF80160817181CE010E9470
:101DD0008702AC01FF2029F483E0BE010E94831238
:101DE00007C0E3E9F7E080819181019691838083C8
:101DF0008F2DDF91CF911F910F91FF900895EF925A
:101E0000FF920F931F93CF93DF93EC018BE891E048
:101E10000E94F60786509840D9F5CF30D105C0F121
:101E2000BE016E5070408DE891E00E94AD0788239E
:101E300089F183E991E00E94F607019759F585EA57
:101E400091E068E671E00E945808882319F10DE8D6
:101E500011E00F2EFCE5EF2EF1E0FF2EF02DA70193
:101E6000445F5F4FC801B7010E946F070E501040DA
:101E700080E091E0B8010E94D6070A5F1F4FC701BA
:101E8000B8010E94D607CE010E94D20E81E003C0A5
:101E900080E001C081E0DF91CF911F910F91FF9011
:101EA000EF900895FF920F931F93CF93DF93EC0170
:101EB00004E810E0F801118210828FE791E06AEEE9
:101EC00075E0AE010E94DF11F82EF801608171818A
:101ED000888199810E948702AC01FF2031F46881DA
:101EE000798182E00E94831207C0E7E8F7E08081F1
:101EF00091810196918380838F2DDF91CF911F91E6
:101F00000F91FF900895E5E2F0E090819B7F908330
:101F1000962F9F71982B9EBDEDE4F0E08081882381
:101F2000ECF7662334F41EBCEDE4F0E080818823F6
:101F3000ECF71EBCEDE4F0E080818823ECF78EB571
:101F4000E5E2F0E09081946090830895E5E2F0E0AE
:101F500090819B7F90836F71682B6EBDEDE4F0E004
:101F600080818823ECF74EBDEDE4F0E0808188238A
:101F7000ECF7E5E2F0E08081846080830895CF9300
:101F8000DF939C01DB01E5E2F0E080818B7F8083C1
:101F90008AE38EBDEDE4F0E080818823ECF7211523
:101FA000310579F0CEE4D0E0EDE4F0E018828081F4
:101FB0008823ECF788818C932150304011F01196E2
:101FC000F5CFE5E2F0E0808184608083DF91CF91FE
:101FD00008951F93182F282F30E0207630708091BD
:101FE0004F0190E02817390781F080EA6FE143E064
:101FF0000E94A60F412F407640934F01429546958F
:10200000477080E86FE10E94A60F1F9108951F930B
:10201000182F0E94E90F80E0612F0E94830F1F910B
:1020200008950F931F93182F062F0E94E90F80E445
:10203000612F402F0E94A60F1F910F9108950F93BB
:102040001F93182F072F0E941110812F8F5F602F71
:102050000E9411101F910F9108950F931F93982FB5
:102060008B0184ED692F0E94111086EDB8010E944A
:102070001F108AEE0E94071080FDFBCF1F910F9169
:1020800008958FE10E94E90F80EA6FE144E00E9429
:10209000A60F0895882311F081E0089580915201E0
:1020A000882331F0662311F463E004C062E002C0CB
:1020B000611161E087E70E94111080E00895CF93DD
:1020C000DF93EB01882319F0813019F505C0809169
:1020D0005301888380E01FC084ED61E10E941110EC
:1020E00082ED61E00E9411108AEE0E94071080FDCF
:1020F000FBCF82ED60E00E94111089ED0E94071075
:1021000090E096958795969587958170888380E075
:1021100002C0188281E0DF91CF9108950F931F9341
:10212000CF93DF93EC018B0182E060E07AE10E94C3
:102130001F108AE760E040E00E94A60FE5E2F0E0B1
:1021400080818B7F80838AE78EBDEDE4F0E0808123
:102150008823ECF79801AEE4B0E0EDE4F0E008C0CD
:1021600088818C9380818823ECF721962150304020
:1021700021153105A9F7E5E2F0E0808184608083D4
:102180000FC08CE10E94071081FF0AC080E86FE158
:1021900040E80E94A60F80EA6FE140E80E94A60F87
:1021A00080E06FE10E94830F83FDEBCFB8016050A8
:1021B000764E86E00E941F1080E86FE148E00E94A2
:1021C000A60F80E0DF91CF911F910F91089589E3D1
:1021D0000E9407100895DF92EF92FF920F931F93D2
:1021E000DF93CF930F92CDB7DEB77C01D62E0E943E
:1021F0005912E5E2F0E08081846080838D2D81704A
:10220000809352018FEF60E04FEF0E94A60F84E1B0
:1022100090E00E947A0200E010E008C00F5F1F4FBC
:102220008FE00F3F180711F481E0C0C080E06DE13E
:102230000E94830F882391F3109251011092500154
:1022400088E060E070E00E941F108CE060E070E0C9
:102250000E941F108AE06FEF79E10E941F1084E056
:1022600060E07AE10E941F1086E06FEF7FE10E943C
:102270001F10D2FE05C088E361EA0E94111004C05D
:1022800088E360EA0E94111088E26FE370E30E9425
:102290001F1080E369EF77EF0E941F1080EC6DE064
:1022A0000E94111081EC60E00E9411108091520197
:1022B000882311F063E301C062E382EC0E941110F5
:1022C00080915201882351F084EC65E10E94111045
:1022D00086EC62E170E00E941F1009C084EC62E1AC
:1022E0000E94111086EC62E17CE00E941F108AECD3
:1022F0006EEE75E00E941F1080915201882359F004
:1023000080E060E071E00E942D1080E160E070E00C
:102310000E942D100AC080E060E070E00E942D1045
:1023200080E160E071E00E942D1088E760ED77E0C9
:102330000E941F1082E70E9407108093530186308D
:1023400018F08F5F8093530184EEF70160810E9443
:10235000111085EEF70161810E94111082EEF701E4
:1023600062810E94111083EEF70163810E941110B7
:1023700080EEF70164810E94111081EEF701658102
:102380000E9411108FE10E94E90F80E86BE140ECA0
:102390000E94A60F80E86FE144E00E94A60F80E053
:1023A000BE016F5F7F4F0E945F1080E00F90CF9162
:1023B000DF911F910F91FF90EF90DF900895AF9202
:1023C000BF92CF92DF92EF92FF920F931F93DF9312
:1023D000CF9300D000D000D0CDB7DEB75C016B0149
:1023E0008A01609150017091510180E00E941F109C
:1023F00086E090E0BE016F5F7F4F0E94BF0FE980D3
:10240000FA80F0925101E09250018B819C819C01F5
:1024100024503040F801318320838D818823BCF023
:10242000B70161507040FAE160307F0730F08CE016
:102430006FEF79E10E941F1003C08CE00E941F1013
:1024400080E86EE140E40E94A60F03E020C0C216BF
:10245000D30618F4960102E001C000E0C901B501FD
:102460000E94BF0FB701615070408AE16030780769
:1024700030F08CE06FEF79E10E941F1003C08CE018
:102480000E941F1080E86EE140E40E94A60F802F9A
:1024900026960FB6F894DEBF0FBECDBFCF91DF9169
:1024A0001F910F91FF90EF90DF90CF90BF90AF9072
:1024B0000895E4E2F0E080818E62808380818E76F0
:1024C0008083E5E2F0E08081877D80838081846085
:1024D000808380E58CBD81E08DBD0895E9E6F7E05D
:1024E00029E937E010821182128213821582148248
:1024F0001782168211861086138612863C96E21782
:10250000F30781F708950F931F939CE0899FC00103
:102510001124FC01E759F84F848195810196958338
:1025200084838B0120E030E080819181A281B3819E
:10253000800F911FA21FB31F80839183A283B38357
:10254000828593858417950710F4538742871F91DE
:102550000F9108950895089508950895629FD001F8
:10256000739FF001829FE00DF11D649FE00DF11D4E
:10257000929FF00D839FF00D749FF00D659FF00DFD
:102580009927729FB00DE11DF91F639FB00DE11DEA
:10259000F91FBD01CF0111240895991B79E004C0F2
:1025A000991F961708F0961B881F7A95C9F7809592
:1025B0000895A1E21A2EAA1BBB1BFD010DC0AA1F84
:1025C000BB1FEE1FFF1FA217B307E407F50720F09C
:1025D000A21BB30BE40BF50B661F771F881F991F17
:1025E0001A9469F760957095809590959B01AC0160
:1025F000BD01CF010895DC01CB01FC01F999FECFAB
:1026000006C0F2BDE1BDF89A319600B40D9241507A
:102610005040B8F70895A8E1B0E042E050E00C94D3
:10262000FD12DC01CB0103C02D910E941C1341500F
:102630005040D0F70895262FF999FECF1FBA92BDCA
:1026400081BD20BD0FB6F894FA9AF99A0FBE019693
:1026500008950E941B13272F0C941C13F894FFCF8E
:10266000FFFFFFFFFFFF0000000000000000000070
:10267000FFFFFFFF3030302E3030302E3030302E24
:1026800030303000140130303A30303A30303A30A7
:0C269000303A30303A3030002601881318
:00000001FF
