:100000000C94D7010C94F4010C94F4010C94F401B9
:100010000C94F4010C94F4010C94F4010C94F4018C
:100020000C94F4010C94F4010C94F4010C9420024F
:100030000C94F4010C94F4010C94F4010C94F4016C
:100040000C94F4010C94F4010C94F4010C94F4015C
:100050000C94F4010C94F4010C94F4010C94F4014C
:100060000C94F4010C94F401D400D305D600E800FC
:10007000D505EA00FC00D705FE001501B6061701FC
:100080002801B1062B014501AC0648016401A80610
:1000900067018301A40686019601A0069901AA01C1
:1000A0007D06AC01C8013406CB01E4013406E7014A
:1000B000FD01F90500021702F9051A023302D905FC
:1000C00036024B02F9054E0260023406630200005C
:1000D0000000000071007175697420636F6D6D61BF
:1000E0006E64206D6F6465007200736F66742072B9
:1000F0006573657420646576696365007600707267
:10010000696E74206669726D7761726520766572BA
:1001100073696F6E0070007072696E742070617226
:10012000616D65746572730070730073617665202C
:10013000706172616D657465727320746F204545DE
:1001400050524F4D00706C006C6F61642070617292
:10015000616D65746572732066726F6D20454550E0
:10016000524F4D0070720072657365742070617239
:10017000616D657465727320746F20646566617566
:100180006C740073640064756D70207374617469BD
:10019000737469637300737200726573657420739E
:1001A000746174697374696373006D006D616320B9
:1001B00061646472657373206F6620646576696339
:1001C00065203C6D61633E00666400736574206663
:1001D000756C6C206475706C65206D6F6465205B58
:1001E0006F6E5D0066630073657420666C6F7720C8
:1001F000636F6E74726F6C205B6F6E5D00746C0069
:1002000074657374207061636B6574206C656E67D0
:100210007468203C6E3E00747400746573742070C2
:1002200061636B6574206574682074797065203C27
:100230006E3E0074690074657374204950206164D7
:100240006472657373203C69703E0074700074655D
:1002500073742055445020706F7274203C6E3E00C1
:10026000746D0074657374206D6F6465205B307C01
:10027000315D0031C206AA0232C506BC0233BE0699
:10028000D30234BA06E70273E006FA0253DD060A27
:100290000376C9061B0370D906310350D5065203F5
:1002A00061D2067C030000000000656E7465722058
:1002B000627269646765206D6F646500656E746560
:1002C00072206272696467652074657374206D6F53
:1002D000646500656E7465722050494F20746573C3
:1002E00074206D6F646500656E74657220504220E5
:1002F00074657374206D6F64650064756D70207330
:1003000074617469737469637300726573657420D2
:100310007374617469737469637300746F67676C75
:100320006520766572626F7365206F757470757481
:100330000073656E6420612074657374207061635E
:100340006B65742028706274657374206D6F6465CA
:10035000290073656E642061207465737420706178
:10036000636B6574202873696C656E74292028702E
:100370006274657374206D6F64652900746F6767BC
:100380006C65206175746F2073656E6420287062DF
:1003900074657374206D6F646529001A11AFA047EE
:1003A000110000EA05FDFFC0A802DE901A0011242A
:1003B0001FBECFEFD8E0DEBFCDBF11E0A0E0B1E0BF
:1003C000EAE6F6E202C005900D92AC33B107D9F728
:1003D00017E0ACE3B1E001C01D92A939B107E1F724
:1003E0000E9434070C9433130C940000F89488E0B6
:1003F0008093800081E08093810080ED97E090936E
:10040000890080938800109285001092840082E019
:1004100080936F001092570110925601109255016F
:1004200010925401109258011092590110925A01E1
:1004300010925B0110923D0110923C017894089556
:100440001F920F920FB60F9211242F938F939F93A9
:10045000AF93BF9310928500109284008091560153
:100460009091570101969093570180935601809186
:10047000580190915901A0915A01B0915B010196E8
:10048000A11DB11D8093580190935901A0935A0169
:10049000B0935B0180913C0190913D010196909356
:1004A0003D0180933C01885E934068F010923D01CD
:1004B00010923C01809154019091550101969093C6
:1004C000550180935401BF91AF919F918F912F91CE
:1004D0000F900FBE0F901F9018959C011092550120
:1004E0001092540180915401909155018217930705
:1004F000C8F308959C011092570110925601809103
:1005000056019091570182179307C8F30895CF932E
:10051000DF93EB016115710519F420E030E016C09E
:10052000BC0180E090E020EA36E841E050E00E9423
:10053000B3129E0140E050E0220F331F441F551FAD
:10054000220F331F441F551F0E94DE12822F932F4C
:10055000DF91CF9108958A3010F4805D0895895C11
:100560000895FF920F931F93F82E8B0182958F7041
:100570000E94AB02F80180838F2D8F700E94AB0226
:10058000F80181831F910F91FF900895FF920F93BF
:100590001F93F82E8B01892F0E94B1020E5F1F4F0F
:1005A0008F2DB8010E94B1021F910F91FF90089505
:1005B000CF92DF92EF92FF920F931F936B017C011A
:1005C0008A01AA27BB27BA010E94C6020C5F1F4FEF
:1005D000C601B8010E94C6021F910F91FF90EF90D3
:1005E000DF90CF900895282FFB0164E60E94D2127D
:1005F000392F822F0E94D212805D8083832F6AE080
:100600000E94D212805D8183832F0E94D212905D5E
:1006100092830895AF92BF92CF92DF92EF92FF92B2
:100620000F931F93CF93DF93C62ED72EE82EF92E6C
:10063000B22E822F90E00197EA01C80FD91F02174E
:1006400008F42196BB2041F110E00F2EFEE2AF2E00
:10065000F02D101711F4A88221976C2D7D2D8E2D71
:100660009F2D2AE030E040E050E00E94DE12605D05
:1006700068831F5F1B1580F421976C2D7D2D8E2DB7
:100680009F2D2AE030E040E050E00E94DE12C22EB2
:10069000D32EE42EF52EDDCFDF91CF911F910F9158
:1006A000FF90EF90DF90CF90BF90AF900895FB0147
:1006B000982F8156863020F4865F808381E00895EC
:1006C000892F8154863020F4865F808381E00895ED
:1006D000892F80538A3010F080E00895808381E074
:1006E0000895EF92FF920F931F93DF93CF930F9292
:1006F000CDB7DEB78C017B01FC018081BE016F5F4D
:100700007F4F0E945703882391F089818295807FD3
:100710008983F8018181B7010E945703882339F04A
:10072000F70180819981892B808381E001C080E07D
:100730000F90CF91DF911F910F91FF90EF9008954F
:10074000EF92FF920F931F93DF93CF9300D0CDB71B
:10075000DEB78C017B01BE016F5F7F4F0E9471038A
:100760008823A1F0C8010296BE016E5F7F4F0E94F0
:100770007103882359F0998180E02A8130E0822B2F
:10078000932BF7019183808381E001C080E00F907B
:100790000F90CF91DF911F910F91FF90EF900895EF
:1007A000EF92FF920F931F93DF93CF9300D000D06F
:1007B000CDB7DEB78C017B01BE016F5F7F4F0E941A
:1007C0007103882309F44AC0C8010296BE016E5F16
:1007D0007F4F0E947103882309F440C0C80104962A
:1007E000BE016D5F7F4F0E9471038823B9F1C8017C
:1007F0000696BE016C5F7F4F0E947103882371F1E2
:10080000298130E040E050E0522F4427332722274F
:100810008A8190E0A0E0B0E0DC0199278827282BAE
:10082000392B4A2B5B2B8C8190E0A0E0B0E0282B89
:10083000392B4A2B5B2B8B8190E0A0E0B0E0BA2FE4
:10084000A92F982F8827282B392B4A2B5B2BF701B0
:10085000208331834283538381E001C080E00F9085
:100860000F900F900F90CF91DF911F910F91FF90FC
:10087000EF900895DB01FC0130E020E04AE0808148
:10088000982F90539A3050F4349F802D1124382F94
:10089000390F2F5F3196233091F701C021113C931E
:1008A000822F089528E088E190E00FB6F894A8958B
:1008B000809360000FBE20936000FFCF80913F01C6
:1008C000882329F481E080933F010E94CE09089596
:1008D000CF92DF92FF920F931F93DF93CF9300D0BD
:1008E000CDB7DEB787E195E065EC74E00E94AB0917
:1008F0000E945D0E682F0CE511E0C8010E94F01007
:100900000E94731210923E0110923F01F801F6808E
:1009100010E06E010894C11CD11C24C00E94E20D9D
:100920000E94EC10082F882351F080913E0180FF37
:1009300003C00E945E0403C0C6010E94570FFF203F
:1009400089F0112341F0002369F480E060E00E9407
:100950004F1010E007C0002329F080E061E00E9402
:100960004F1011E0809142018823C1F20E94B11220
:100970000E94461080E00F900F90CF91DF911F9161
:100980000F91FF90DF90CF9008950F931F93CF9317
:10099000DF93EC018BE891E00E94FB072FEF8E3F85
:1009A000920729F12FEF8F3F920720F48D5F9F4F21
:1009B00061F523C080913E01856080933E018CE506
:1009C00091E065E871E00E944708882351F50CE545
:1009D00011E085E891E0B8010E94DB070E949009D0
:1009E0000E944610C80164E00E94F0101AC0809175
:1009F0003E018E7F80933E0114C080913E01826053
:100A000080933E010E945E040CC0CE010E94D70E6E
:100A100080913E0180FD05C0866080933E010E946A
:100A20005E0481E0DF91CF911F910F9108950F93A4
:100A30001F93CF93DF93EC0180913E0181FF1CC097
:100A40008D7F80933E010FE711E080E091E0B801D7
:100A50000E94DB07B8016A5F7F4F8CE591E00E943E
:100A6000DB07C8010C966FEF7FEF0E9405088EE050
:100A700090E0998388830AC0CE010E94570F80912D
:100A80003E0182FF03C08B7F80933E0110923F01A5
:100A900081E0DF91CF911F910F9108950F931F93E4
:100AA000DF93CF9300D0CDB7DEB787E995E063EB56
:100AB00075E00E94AB090E945D0E682F8CE591E005
:100AC0000E94F0100E9473128E010F5F1F4F1FC013
:100AD0000E94E20D0E94EC108823C9F0C8010E9418
:100AE000570F8823A1F489819A810E94040F8823DB
:100AF00071F489819A810E946A0E882341F089816C
:100B00009A8190934101809340010E94CE09809187
:100B100042018130E9F20E94B1120E94461080E049
:100B20000F900F90CF91DF911F910F910895FC01CD
:100B30008091400190914101918380838B5E95402B
:100B400010F085E0089580916E01882331F48BE8E0
:100B500091E06DEF7FEF0E94050810924101109225
:100B6000400181E00895CF93DF93EC018BE891E0A1
:100B70000E94FB079C0180916E01882351F42D5F38
:100B80003F4F69F48BE891E060E078E00E9405084F
:100B900003C02050384019F4CE010E94D70E81E0E6
:100BA000DF91CF91089581E0089582E0089580E07B
:100BB0000895DF93CF9300D000D0CDB7DEB7FB010F
:100BC00082819381BE016F5F7F4F0E94CF0888238F
:100BD00011F481E107C0CE01019668E671E00E9440
:100BE000EA0780E00F900F900F900F90CF91DF9168
:100BF00008950F931F93DF93CF9300D0CDB7DEB747
:100C0000282FDB01ED91FC91119791818081843730
:100C100019F5903759F0943719F09C36E9F403C070
:100C200006E611E005C004E611E002C00CE611E0A2
:100C3000213091F012968D919C911397BE016F5FB8
:100C40007F4F0E94A003882339F089819A81F8019F
:100C50009183808380E001C081E10F900F90CF915C
:100C6000DF911F910F910895EF92FF921F93DF93F1
:100C7000CF930F92CDB7DEB7DB01ED91FC911197C9
:100C800090812181943741F42D3671F5EEE6F1E043
:100C900090817F0110E011C0963631F5233641F086
:100CA000243611F5E3E6F1E090817F0113E005C001
:100CB000E2E6F1E090817F0113E0813031F4F70149
:100CC0001082992391F4808310C012968D919C918B
:100CD0001397BE016F5F7F4F0E947103882321F03D
:100CE0008981F701808301C011E1812F0F90CF919D
:100CF000DF911F91FF90EF900895DF93CF9300D085
:100D000000D000D0CDB7DEB7FB0182819381BE0158
:100D10006F5F7F4F0E949608882311F481E107C01E
:100D2000CE0101966CE571E00E94DB0780E026961B
:100D30000FB6F894DEBF0FBECDBFCF91DF910895FF
:100D40000E94731280E008950E94B11280E008951D
:100D50000E94500980E008950E945F09811180621D
:100D600008950E9490098111806208950E942A09C5
:100D700080E0089582E080934201089583E08093AB
:100D80004201089510924201089581E0809342014A
:100D9000089590E080914301882309F491E09093B5
:100DA000430108950E94190D089581E00E94140DD9
:100DB000089580E00E94140D08950E947312089512
:100DC0000E94B112089508950895089506960E940C
:100DD000FB0708951F93CF93DF93FC018081880F59
:100DE000880F8C73EF01C80FD11D8185813141F4CB
:100DF000CE010E94FB07CE0102960E94FB0718C09D
:100E00008630B1F4CE010E94FB07CE0102960E940B
:100E1000FB07CE010C960E94FB07182FCE0104960B
:100E20000E94090814FF04C0CE0108960E94090818
:100E3000DF91CF911F910895CF93DF93EC012E9610
:100E40000C960E94FB0728E08630920721F4CE0121
:100E50000E94E60606C08050984019F4CE010E9418
:100E6000EA06DF91CF91089588E10FB6F894809358
:100E70006000109260000FBE78940E94F601A7E215
:100E8000B0E08C91807E8C93E8E2F0E08081807EFF
:100E900080838C9186608C9380818B6180838FEFBF
:100EA0008AB90E9489090E942A09809142018230F0
:100EB00029F0833031F0813051F406C00E94290DB1
:100EC00008C00E94100E05C00E944E0502C00E947C
:100ED0006804823051F78AE090E00E946D020E941F
:100EE000520480E090E008958F929F92AF92BF925B
:100EF000CF92DF92EF92FF920F931F938C015B01D1
:100F00004A01069662E070E00E940508CC24DD24C8
:100F10006894C3F8C00ED11EB8016E5E7F4FC60143
:100F20000E94DB070F2EFEE0EF2EFF24F02DE00ED7
:100F3000F11E085E1F4FC701B8010E94EA07C501F4
:100F4000B6010E94DB07C401B7010E94EA071F91A6
:100F50000F91FF90EF90DF90CF90BF90AF909F9058
:100F60008F9008950F931F93CF93DF93EC016C3113
:100F7000710510F480E01AC00E94FB078C01CE01BD
:100F800002960E94FB072C813D810130110561F41E
:100F90008050984049F4263039F490E0343009F01C
:100FA00091E081E0892702C080E090E0DF91CF915D
:100FB0001F910F910895AC0125E0822F90E0DB0195
:100FC000A80FB91FFA01E80FF91F80818C932150F7
:100FD000A0F70895FC01DB01838113968C9313978E
:100FE000828112968C931297818111968C9311971E
:100FF00080818C930895FC01218130E0908180E014
:10100000282B392B822F932F0895FC017083618345
:101010000895FC01238130E040E050E0808190E0C1
:10102000A0E0B0E0B82FAA2799278827282B392BD2
:101030004A2B5B2B818190E0A0E0B0E0DC01992796
:101040008827282B392B4A2B5B2B828190E0A0E04C
:10105000B0E0BA2FA92F982F8827282B392B4A2B9D
:101060005B2B622F732F842F952F0895FC01872F00
:101070009927AA27BB278083CB01AA27BB27818377
:10108000BB27A72F962F852F828343830895AC011A
:1010900020E030E0FA01E20FF31FDB01A20FB31FE3
:1010A00090818C91981711F080E008952F5F3F4F49
:1010B0002630310579F781E00895AC0120E030E079
:1010C000FA01E20FF31FDB01A20FB31F90818C9195
:1010D000981711F080E008952F5F3F4F24303105BD
:1010E00079F781E00895EF92FF920F931F93CF93CA
:1010F000DF9320912401309125018C01E901EE2438
:10110000FF246894E4F8E20EF31EF80181918F0148
:10111000BE010E94F3022496CE15DF05B1F7DF91E0
:10112000CF911F910F91FF90EF900895AF92BF92D2
:10113000CF92DF92EF92FF920F931F93DF93CF93A3
:101140000F92CDB7DEB77C016B0100E010E05E01CD
:101150000894A11CB11CC701B5010E94710388232A
:1011600089F0F601E00FF11F898180830F5F1F4F27
:101170000630110511F481E006C083E090E0E80E2E
:10118000F91EE9CF80E00F90CF91DF911F910F9171
:10119000FF90EF90DF90CF90BF90AF900895AF9207
:1011A000BF92CF92DF92EF92FF920F931F93DF9344
:1011B000CF930F92CDB7DEB77C016B0100E010E05A
:1011C0005E010894A11CB11CC701B5010E943A043C
:1011D000982F882391F0F601E00FF11F8981808319
:1011E0000F5F1F4F0430110511F481E007C0892FF4
:1011F00090E00196E80EF91EE7CF80E00F90CF91C6
:10120000DF911F910F91FF90EF90DF90CF90BF90F3
:10121000AF900895EF92FF920F931F93CF93DF93B8
:10122000E0903801F09039018C01C0E0D0E0B701C6
:101230006C0F7D1FF80181918F010E94B1022396EE
:10124000C231D105A1F7DF91CF911F910F91FF908E
:10125000EF9008950895FC014FEF5FEF20E030E03C
:1012600081914827842F82958427082E869586951C
:101270008025082E869580258770042E452F86951B
:1012800007948795502D4827069487955025482721
:101290002F5F3F4F2331310519F7842F952F089584
:1012A000ACE5B1E02BE933E04FE651E0F9012F5F07
:1012B0003F4FE491ED93A417B507C1F70895EF925E
:1012C000FF920F931F93F99B02C081E01DC00F2E68
:1012D000FCE5EF2EF1E0FF2EF02DC70160E070E09D
:1012E00043E150E00E94001383E190E00E9410135C
:1012F0008C01C7010E942B090817190711F480E01F
:1013000003C00E94500982E01F910F91FF90EF905F
:1013100008950E945F09882311F00E9450090895E2
:101320000F931F93F99B02C081E012C00CE511E0FE
:10133000C80160E070E043E150E00E941613C8016C
:101340000E942B09BC0183E190E00E942E1380E0F3
:101350001F910F91089590934501809344017093DC
:101360004701609346011AB8E6E2F0E080818B7F86
:101370008083089586B1282F30E020713070359534
:101380002795359527953595279535952795220FDE
:10139000331F8870880F880F822B0895E8E2F0E0F1
:1013A00080818D7F808381E08A95F1F780818260E2
:1013B00080838091580190915901A0915A01B09178
:1013C0005B018093480190934901A0934A01B09337
:1013D0004B010895782F10925701109256014091B9
:1013E0003A0150913B01E6E2F0E015C08081282FE0
:1013F00030E0C9018870907095958795959587958F
:1014000095958795781711F481E0089524FD03C020
:10141000862F83600895809156019091570184171B
:10142000950720F3862F826008952F923F924F9266
:101430005F926F927F928F929F92AF92BF92CF9264
:10144000DF92EF92FF920F931F93DF93CF9300D021
:10145000CDB7DEB710926F01349B02C0339B04C03E
:101460001092700180E0ADC2A9B01A82198222E206
:10147000A21619F084E4A81661F4E0914401F091F9
:101480004501CE0101960995813019F080937001D4
:1014900098C2609058017090590180905A019090C4
:1014A0005B011092850010928400E8E2F0E08081F8
:1014B00084608083A2E2AA16A1F0AA1520F0B1E10F
:1014C000AB1649F475C0E3E3AE1609F47AC1F4E44F
:1014D000AF1609F4DDC0BB246894B2F8CC24DD2437
:1014E000FCC1E980FA808FEF8AB981E060E20E9456
:1014F000EA09B82E21E0821709F057C0FBB8E8E2EC
:10150000F0E080818B7F808380E060E30E94EA09C5
:10151000B82E81E0B81609F048C0EBB8E8E2F0E078
:10152000808184608083C70101960F2EFEEF2F2EED
:10153000FFEF3F2EF02D282239222114310461F1D2
:1015400001E00F2EFFE7EF2EF1E0FF2EF02DCC246F
:10155000DD240F2EF8E24F2E5524F02D14E0802FBD
:1015600060E40E94EA09B82EA1E08A17E1F4F701CD
:101570008081ABE2B0E08C93F2018081812780838F
:101580000894C11CD11C2C143D0441F00894E11CAA
:10159000F11CF1E00F27E3CFCC24DD2481E060E5EE
:1015A0000E94EA09B82E1AB898C1CC24DD2495C14E
:1015B00081E060E20E94EA09B82E21E0821709F07A
:1015C00064C009B1E8E2F0E080818B7F808380E035
:1015D00060E30E94EA09B82E81E0B81609F055C010
:1015E00029B1902F80E030E0282B392BE8E2F0E0A1
:1015F000808194E089278083A5E02B3E3A0738F06C
:101600000F2EF5E0BF2EF02DCC24DD2466C1C901DC
:1016100001960F2EFEEF2F2EFFEF3F2EF02D2822EA
:1016200039222114310471F101E00F2EFFE7EF2E72
:10163000F1E0FF2EF02DCC24DD240F2EF8E24F2E0A
:101640005524F02D14E0802F60E40E94EA09B82EA2
:10165000B1E08B1709F041C1E9E2F0E08081D701E8
:101660008C93F2018081812780830894C11CD11C56
:101670002C143D0409F431C10894E11CF11CF1E083
:101680000F27E1CFCC24DD2428C1CC24DD2425C1C3
:10169000E980FA8081E060E20E94EA09B82E21E048
:1016A000821709F08BC08FEF8AB9FBB8E8E2F0E04F
:1016B00080818B7F808380E060E30E94EA09B82EFE
:1016C00081E0B81609F07AC0EBB8E8E2F0E080817A
:1016D00094E08927808381E060E40E94EA09B82EC3
:1016E000A1E08A1709F06AC0C7010196AC015695BE
:1016F0004795F894E8E2F0E0808194E089278083C0
:101700004115510591F10FE711E020E030E09FE035
:101710006BE270E0E6E2F0E0892F8A95F1F7D801FC
:101720008C91DB018C93808183FF03C0808184FDD9
:10173000FACF808184FF1BC0892F8A95F1F7D801E9
:1017400011968C91DB018C93808183FD03C0808195
:1017500084FDFACF808184FF0AC02F5F3F4F24179A
:10176000350728F40E5F1F4FD7CF20E030E0E6E2C8
:10177000F0E0A8E2B0E0789403C0808184FFFBCF62
:10178000808183FDFACF8C9184608C9303C080812B
:1017900084FFF1CF808183FFFACF2417350720F42F
:1017A0000F2EF2E4BF2EF02DE8E2F0E080818B7F77
:1017B00080831AB86901CC0CDD1C8FC0CC24DD24D9
:1017C0008CC081E060E20E94EA09B82EB1E08B177C
:1017D00009F081C009B1E8E2F0E080818B7F80836D
:1017E00080E060E30E94EA09B82EE1E08E1709F07C
:1017F00072C029B1902F80E030E0822B932BF5E06E
:101800008B3E9F0738F00F2EF5E0BF2EF02DCC2435
:10181000DD2463C00196BC0176956795F894E8E2F3
:10182000F0E0808194E0892780836115710529F4B7
:101830002DC0808184FD09C00EC00FE711E020E0BB
:1018400030E0E6E2F0E049E250E0808183FD03C051
:10185000808184FDEECFDA018C91D8018C9303C096
:10186000808184FF06C0808183FF03C0808184FD66
:10187000F7CFDA018C91D80111968C932F5F3F4FEF
:101880002617370718F40E5F1F4FDFCF7894E6E274
:10189000F0E0A8E2B0E094E0808183FD03C08081A5
:1018A00084FDFACF808184FF09C08C9189278C93B5
:1018B000808183FF03C0808184FDFACF808184FF13
:1018C000EBCFE8E2F0E0808194E0892780836B0130
:1018D000CC0CDD1C02C0CC24DD24109257011092E8
:1018E000560120913A0130913B01E6E2F0E003C05D
:1018F000808184FF07C08091560190915701821723
:101900009307B0F3E8E2F0E080818B7F8083E09082
:101910008400F0908500B1E0BB1671F4E1E1AE16F1
:1019200021F0F3E3AF1609F061C0E0914601F091B8
:101930004701C6010995B82E0FE611E0F801A19202
:10194000B082D8011596DC92CE9214971796FC922D
:10195000EE921697C601B7010E948702F80191879F
:101960008087D8011C966D927D928D929C921F97D4
:10197000B1E1AB1631F0E3E3AE1619F080E090E090
:1019800002C081E090E0E1E7F1E0819310828823DA
:1019900011F081E0808380917101882319F020E0AB
:1019A00030E00AC020917B0130917C018091480198
:1019B00090914901281B390B30937A0120937901CA
:1019C0008B2D0F900F90CF91DF911F910F91FF9072
:1019D000EF90DF90CF90BF90AF909F908F907F90CF
:1019E0006F905F904F903F902F9008950FE611E019
:1019F000F801A19281E08083D8011596DC92CE9205
:101A000014971796FC92EE921697C601B7010E94A2
:101A10008702F80191878087D8011C966D927D928C
:101A20008D929C921F97AACF80934E010E94CE095F
:101A3000089590E080914D01882309F491E09093FE
:101A40004D01992329F081E00E94140D0E94731228
:101A500008950F931F93CF93DF930E94731282EA2E
:101A60009DE06FE67DE00E94AB0910924D0110925F
:101A70004C0110924E01C1E7D1E00FE611E021C008
:101A80000E94E20D8130A9F480914E01882319F45F
:101A9000C8010E94E5068881882399F080914D0154
:101AA000882321F081E00E94140D0BC010924E019A
:101AB00008C0882331F080914D01882311F00E94E5
:101AC000190D809142018230D9F281E060E00E94DC
:101AD000B21280E0DF91CF911F910F910895CF93C3
:101AE000DF93C0E0D0E020916401309165012817B8
:101AF000390711F0C1E0D0E08FE791E060E071E0DC
:101B00000E944708882309F4219685E891E06CE556
:101B100071E00E944708882309F42196E6E6F1E087
:101B20002081918180918B01891719F480918C011A
:101B300082132196CD2B11F481E001C086E0DF9164
:101B4000CF910895EF92FF920F931F93CF93DF935E
:101B5000EC018091640190916501998388838B5E8B
:101B6000954010F085E027C00F2EFFE7EF2EF1E043
:101B7000FF2EF02D80E091E0B7010E94DB070CE51D
:101B800011E0B7016A5F7F4FC8010E94DB07065F63
:101B90001F4FF80190818181F701848795878881A3
:101BA00099810E9739F0EDE8F1E020E021932F5F65
:101BB0000197E1F781E0DF91CF911F910F91FF90A5
:101BC000EF9008950F930E94150A082F882329F19A
:101BD000813091F4E2E7F1E06181728145815681C3
:101BE00080810E948812809143018823B1F08FE6A2
:101BF00091E00E94E50611C08FE691E00E94E506A3
:101C0000E09172018CE0E89FF0011124E759F84F50
:101C100086819781019697838683802F0F910895FF
:101C2000EF92FF920F931F93DF93CF9300D0CDB726
:101C3000DEB70E945D0E682F8CE591E00E94F010E7
:101C40000E9473127E010894E11CF11C07E817E062
:101C500020C00E94EC108823E1F0C7010E94570FBA
:101C6000882389F489819A810E94040F882389F44A
:101C700089819A810E946A0E882359F089819A810C
:101C80000E94D70E06C0F801808191810196918350
:101C90008083809142018330E1F280E061E00E9424
:101CA000B2120E94461080E00F900F90CF91DF910A
:101CB0001F910F91FF90EF9008958091620188230A
:101CC00011F09CE001C094E080916301811191606A
:101CD000892F08958F929F92AF92BF92CF92DF92F9
:101CE000EF92FF920F931F93CF93DF930DE811E0D4
:101CF000F8018081880F880F8C735801A80EB11CE1
:101D0000C50102960E94FB07EC01005F1F4F88E6A9
:101D100091E0B8010E945D088823D9F180906C01A0
:101D200090906D018C169D06A1F509E911E0B801AE
:101D30006C5F7F4FC8010E94EA070F2EF8E6CF2E96
:101D4000F1E0DF2EF02DC601B8010E94EA07C501BF
:101D50000E94FB077C01C501B4010E940508C50172
:101D60000296B7010E9405080F2EFCEEEF2EFFEF42
:101D7000FF2EF02DE00EF11E0A511040C701B801F0
:101D80000E94DB07C6010C97B7010E94DB0781E0C8
:101D900001C080E0DF91CF911F910F91FF90EF90F4
:101DA000DF90CF90BF90AF909F908F900895FF925B
:101DB0000F931F93CF93DF93EC0104E810E0F80139
:101DC000118210828FE791E0BE010E949310F82EDD
:101DD000F80160817181CE010E948702AC01FF2071
:101DE00029F483E0BE010E94881207C0E3E9F7E00E
:101DF000808191810196918380838F2DDF91CF9196
:101E00001F910F91FF900895EF92FF920F931F93F0
:101E1000CF93DF93EC018BE891E00E94FB078650A3
:101E20009840D9F5CF30D105C0F1BE016E50704059
:101E30008DE891E00E94B207882389F183E991E05F
:101E40000E94FB07019759F585EA91E068E671E089
:101E50000E945D08882319F10DE811E00F2EFCE5C2
:101E6000EF2EF1E0FF2EF02DA701445F5F4FC80178
:101E7000B7010E9474070E50104080E091E0B80155
:101E80000E94DB070A5F1F4FC701B8010E94DB07F2
:101E9000CE010E94D70E81E003C080E001C081E046
:101EA000DF91CF911F910F91FF90EF900895FF92D6
:101EB0000F931F93CF93DF93EC0104E810E0F80138
:101EC000118210828FE791E06AEE75E0AE010E9408
:101ED000E411F82EF80160817181888199810E9456
:101EE0008702AC01FF2031F46881798182E00E9491
:101EF000881207C0E7E8F7E080819181019691831D
:101F000080838F2DDF91CF911F910F91FF900895C6
:101F1000E5E2F0E090819B7F9083962F9F71982B54
:101F20009EBDEDE4F0E080818823ECF7662334F475
:101F30001EBCEDE4F0E080818823ECF71EBCEDE4EC
:101F4000F0E080818823ECF78EB5E5E2F0E0908147
:101F5000946090830895E5E2F0E090819B7F908308
:101F60006F71682B6EBDEDE4F0E080818823ECF7A3
:101F70004EBDEDE4F0E080818823ECF7E5E2F0E08F
:101F80008081846080830895CF93DF939C01DB017F
:101F9000E5E2F0E080818B7F80838AE38EBDEDE413
:101FA000F0E080818823ECF72115310579F0CEE44B
:101FB000D0E0EDE4F0E0188280818823ECF788819E
:101FC0008C932150304011F01196F5CFE5E2F0E00E
:101FD000808184608083DF91CF9108951F93182FB3
:101FE000282F30E02076307080914F0190E0281744
:101FF000390781F080EA6FE143E00E94AB0F412F87
:10200000407640934F0142954695477080E86FE1D6
:102010000E94AB0F1F9108951F93182F0E94EE0F7F
:1020200080E0612F0E94880F1F9108950F931F93E6
:10203000182F062F0E94EE0F80E4612F402F0E9480
:10204000AB0F1F910F9108950F931F93182F072F18
:102050000E941610812F8F5F602F0E9416101F9113
:102060000F9108950F931F93982F8B0184ED692F83
:102070000E94161086EDB8010E9424108AEE0E947C
:102080000C1080FDFBCF1F910F9108958FE10E94EE
:10209000EE0F80EA6FE144E00E94AB0F08958823C1
:1020A00011F081E0089580915201882331F0662378
:1020B00011F463E004C062E002C0611161E087E7EF
:1020C0000E94161080E00895CF93DF93EB018823E0
:1020D00019F0813019F505C080915301888380E0A3
:1020E0001FC084ED61E10E94161082ED61E00E9444
:1020F00016108AEE0E940C1080FDFBCF82ED60E08E
:102100000E94161089ED0E940C1090E0969587951C
:10211000969587958170888380E002C0188281E05F
:10212000DF91CF9108950F931F93CF93DF93EC012D
:102130008B0182E060E07AE10E9424108AE760E08F
:1021400040E00E94AB0FE5E2F0E080818B7F80836E
:102150008AE78EBDEDE4F0E080818823ECF79801FA
:10216000AEE4B0E0EDE4F0E008C088818C938081BB
:102170008823ECF721962150304021153105A9F72D
:10218000E5E2F0E08081846080830FC08CE10E94F2
:102190000C1081FF0AC080E86FE140E80E94AB0F9D
:1021A00080EA6FE140E80E94AB0F80E06FE10E949F
:1021B000880F83FDEBCFB8016050764E86E00E9419
:1021C000241080E86FE148E00E94AB0F80E0DF91CF
:1021D000CF911F910F91089589E30E940C100895EB
:1021E000DF92EF92FF920F931F93DF93CF930F92A3
:1021F000CDB7DEB77C01D62E0E945E12E5E2F0E09C
:102200008081846080838D2D8170809352018FEF57
:1022100060E04FEF0E94AB0F84E190E00E947A02F1
:1022200000E010E008C00F5F1F4F8FE00F3F18075E
:1022300011F481E0C0C080E06DE10E94880F882326
:1022400091F3109251011092500188E060E070E02B
:102250000E9424108CE060E070E00E9424108AE06C
:102260006FEF79E10E94241084E060E07AE10E943F
:10227000241086E06FEF7FE10E942410D2FE05C09B
:1022800088E361EA0E94161004C088E360EA0E94B5
:10229000161088E26FE370E30E94241080E369EF78
:1022A00077EF0E94241080EC6DE00E94161081EC04
:1022B00060E00E94161080915201882311F063E3C0
:1022C00001C062E382EC0E941610809152018823C3
:1022D00051F084EC65E10E94161086EC62E170E03A
:1022E0000E94241009C084EC62E10E94161086EC62
:1022F00062E17CE00E9424108AEC6EEE75E00E94A0
:10230000241080915201882359F080E060E071E050
:102310000E94321080E160E070E00E9432100AC03A
:1023200080E060E070E00E94321080E160E071E0E7
:102330000E94321088E760ED77E00E94241082E767
:102340000E940C1080935301863018F08F5F8093A9
:10235000530184EEF70160810E94161085EEF701AB
:1023600061810E94161082EEF70162810E941610B0
:1023700083EEF70163810E94161080EEF7016481FD
:102380000E94161081EEF70165810E9416108FE100
:102390000E94EE0F80E86BE140EC0E94AB0F80E8FA
:1023A0006FE144E00E94AB0F80E0BE016F5F7F4FA2
:1023B0000E94641080E00F90CF91DF911F910F91E8
:1023C000FF90EF90DF900895AF92BF92CF92DF928F
:1023D000EF92FF920F931F93DF93CF9300D000D023
:1023E00000D0CDB7DEB75C016B018A01609150016E
:1023F0007091510180E00E94241086E090E0BE01BF
:102400006F5F7F4F0E94C40FE980FA80F092510104
:10241000E09250018B819C819C0124503040F80156
:10242000318320838D818823BCF0B70161507040D7
:10243000FAE160307F0730F08CE06FEF79E10E94C5
:10244000241003C08CE00E94241080E86EE140E478
:102450000E94AB0F03E020C0C216D30618F4960109
:1024600002E001C000E0C901B5010E94C40FB7013C
:10247000615070408AE16030780730F08CE06FEF97
:1024800079E10E94241003C08CE00E94241080E8AF
:102490006EE140E40E94AB0F802F26960FB6F894B1
:1024A000DEBF0FBECDBFCF91DF911F910F91FF9087
:1024B000EF90DF90CF90BF90AF900895E4E2F0E00E
:1024C00080818E62808380818E768083E5E2F0E079
:1024D0008081877D808380818460808380E58CBD5E
:1024E00081E08DBD0895E9E6F7E029E937E0108243
:1024F000118212821382158214821782168211862B
:102500001086138612863C96E217F30781F708952A
:102510000F931F939CE0899FC0011124FC01E75990
:10252000F84F848195810196958384838B0120E007
:1025300030E080819181A281B381800F911FA21F21
:10254000B31F80839183A283B3838285938584178D
:10255000950710F4538742871F910F9108950895AE
:10256000089508950895629FD001739FF001829F9E
:10257000E00DF11D649FE00DF11D929FF00D839F12
:10258000F00D749FF00D659FF00D9927729FB00DAF
:10259000E11DF91F639FB00DE11DF91FBD01CF01C2
:1025A00011240895991B79E004C0991F961708F02B
:1025B000961B881F7A95C9F780950895A1E21A2E77
:1025C000AA1BBB1BFD010DC0AA1FBB1FEE1FFF1FD7
:1025D000A217B307E407F50720F0A21BB30BE40B27
:1025E000F50B661F771F881F991F1A9469F760956E
:1025F0007095809590959B01AC01BD01CF01089528
:10260000DC01CB01FC01F999FECF06C0F2BDE1BDB2
:10261000F89A319600B40D9241505040B8F70895A1
:10262000A8E1B0E042E050E00C940213DC01CB01E1
:1026300003C02D910E94211341505040D0F70895BE
:10264000262FF999FECF1FBA92BD81BD20BD0FB6CE
:10265000F894FA9AF99A0FBE019608950E942013F1
:0A266000272F0C942113F894FFCFEC
:10266A00FFFFFFFFFFFF0000000000000000000066
:10267A00FFFFFFFF3030302E3030302E3030302E1A
:10268A0030303000140130303A30303A30303A309D
:0C269A00303A30303A303000260188130E
:00000001FF
