:100000000C94D7010C94F4010C94F4010C94F401B9
:100010000C94F4010C94F4010C94F4010C9424025B
:100020000C94F4010C94F4010C94F4010C94F4017C
:100030000C94F4010C94F4010C94F4010C94F4016C
:100040000C94F4010C94F4010C94F4010C94F4015C
:100050000C94F4010C94F4010C94F4010C94F4014C
:100060000C94F4010C94F401D400CF05D600E80000
:10007000D105EA00FC00D305FE001501B206170108
:100080002801AD062B014501A80648016401A4061C
:1000900067018301A006860196019C069901AA01C9
:1000A0007906AC01C8013006CB01E4013006E70156
:1000B000FD01F50500021702F5051A023302D50508
:1000C00036024B02F5054E02600230066302000064
:1000D0000000000071007175697420636F6D6D61BF
:1000E0006E64206D6F6465007200736F66742072B9
:1000F0006573657420646576696365007600707267
:10010000696E74206669726D7761726520766572BA
:1001100073696F6E0070007072696E742070617226
:10012000616D65746572730070730073617665202C
:10013000706172616D657465727320746F204545DE
:1001400050524F4D00706C006C6F61642070617292
:10015000616D65746572732066726F6D20454550E0
:10016000524F4D0070720072657365742070617239
:10017000616D657465727320746F20646566617566
:100180006C740073640064756D70207374617469BD
:10019000737469637300737200726573657420739E
:1001A000746174697374696373006D006D616320B9
:1001B00061646472657373206F6620646576696339
:1001C00065203C6D61633E00666400736574206663
:1001D000756C6C206475706C65206D6F6465205B58
:1001E0006F6E5D0066630073657420666C6F7720C8
:1001F000636F6E74726F6C205B6F6E5D00746C0069
:1002000074657374207061636B6574206C656E67D0
:100210007468203C6E3E00747400746573742070C2
:1002200061636B6574206574682074797065203C27
:100230006E3E0074690074657374204950206164D7
:100240006472657373203C69703E0074700074655D
:1002500073742055445020706F7274203C6E3E00C1
:10026000746D0074657374206D6F6465205B307C01
:10027000315D0031BE06AA0232C106BC0233BA06A5
:10028000D30234B606E70273DC06FA0253D9060A33
:100290000376C5061B0370D506310350D106520301
:1002A00061CE067C030000000000656E746572205C
:1002B000627269646765206D6F646500656E746560
:1002C00072206272696467652074657374206D6F53
:1002D000646500656E7465722050494F20746573C3
:1002E00074206D6F646500656E74657220504220E5
:1002F00074657374206D6F64650064756D70207330
:1003000074617469737469637300726573657420D2
:100310007374617469737469637300746F67676C75
:100320006520766572626F7365206F757470757481
:100330000073656E6420612074657374207061635E
:100340006B65742028706274657374206D6F6465CA
:10035000290073656E642061207465737420706178
:10036000636B6574202873696C656E74292028702E
:100370006274657374206D6F64652900746F6767BC
:100380006C65206175746F2073656E6420287062DF
:1003900074657374206D6F646529001A11AFA047EE
:1003A000110000EA05FDFFC0A802DE901A0011242A
:1003B0001FBECFEFD8E0DEBFCDBF11E0A0E0B1E0BF
:1003C000E4ECF6E202C005900D92AC33B107D9F728
:1003D00017E0ACE3B1E001C01D92AD39B107E1F720
:1003E0000E9430070C9460130C940000F89482E093
:1003F0008093B0008093B1009AEF9093B300109275
:10040000B200809370001092800083E0809381009E
:1004100010928200109285001092840010925F0169
:1004200010925E0110925D0110925C0110925801D1
:100430001092590110925A0110925B0110923D01E5
:1004400010923C01789408951F920F920FB60F926C
:1004500011242F938F939F93AF93BF9380915E014D
:1004600090915F01019690935F0180935E0180916E
:10047000580190915901A0915A01B0915B010196E8
:10048000A11DB11D8093580190935901A0935A0169
:10049000B0935B0180913C0190913D010196909356
:1004A0003D0180933C01885E934068F010923D01CD
:1004B00010923C0180915C0190915D0101969093B6
:1004C0005D0180935C01BF91AF919F918F912F91BE
:1004D0000F900FBE0F901F9018959C0110925D0118
:1004E00010925C0180915C0190915D0182179307ED
:1004F000C8F308959C0110925F0110925E018091F3
:100500005E0190915F0182179307C8F30895CF931E
:10051000DF93EB016115710519F420E030E016C09E
:10052000BC0180E090E020EA36E841E050E00E9423
:10053000E0129E0140E050E0220F331F441F551F80
:10054000220F331F441F551F0E940B13822F932F1E
:10055000DF91CF9108958A3010F4805D0895895C11
:100560000895FF920F931F93F82E8B0182958F7041
:100570000E94AB02F80180838F2D8F700E94AB0226
:10058000F80181831F910F91FF900895FF920F93BF
:100590001F93F82E8B01892F0E94B1020E5F1F4F0F
:1005A0008F2DB8010E94B1021F910F91FF90089505
:1005B000CF92DF92EF92FF920F931F936B017C011A
:1005C0008A01AA27BB27BA010E94C6020C5F1F4FEF
:1005D000C601B8010E94C6021F910F91FF90EF90D3
:1005E000DF90CF900895282FFB0164E60E94FF1250
:1005F000392F822F0E94FF12805D8083832F6AE053
:100600000E94FF12805D8183832F0E94FF12905D04
:1006100092830895AF92BF92CF92DF92EF92FF92B2
:100620000F931F93CF93DF93C62ED72EE82EF92E6C
:10063000B22E822F90E00197EA01C80FD91F02174E
:1006400008F42196BB2041F110E00F2EFEE2AF2E00
:10065000F02D101711F4A88221976C2D7D2D8E2D71
:100660009F2D2AE030E040E050E00E940B13605DD7
:1006700068831F5F1B1580F421976C2D7D2D8E2DB7
:100680009F2D2AE030E040E050E00E940B13C22E84
:10069000D32EE42EF52EDDCFDF91CF911F910F9158
:1006A000FF90EF90DF90CF90BF90AF900895FB0147
:1006B000982F8156863020F4865F808381E00895EC
:1006C000892F8154863020F4865F808381E00895ED
:1006D000892F80538A3010F080E00895808381E074
:1006E0000895EF92FF920F931F93DF93CF930F9292
:1006F000CDB7DEB78C017B01FC018081BE016F5F4D
:100700007F4F0E945703882391F089818295807FD3
:100710008983F8018181B7010E945703882339F04A
:10072000F70180819981892B808381E001C080E07D
:100730000F90CF91DF911F910F91FF90EF9008954F
:10074000EF92FF920F931F93DF93CF9300D0CDB71B
:10075000DEB78C017B01BE016F5F7F4F0E9471038A
:100760008823A1F0C8010296BE016E5F7F4F0E94F0
:100770007103882359F0998180E02A8130E0822B2F
:10078000932BF7019183808381E001C080E00F907B
:100790000F90CF91DF911F910F91FF90EF900895EF
:1007A000EF92FF920F931F93DF93CF9300D000D06F
:1007B000CDB7DEB78C017B01BE016F5F7F4F0E941A
:1007C0007103882309F44AC0C8010296BE016E5F16
:1007D0007F4F0E947103882309F440C0C80104962A
:1007E000BE016D5F7F4F0E9471038823B9F1C8017C
:1007F0000696BE016C5F7F4F0E947103882371F1E2
:10080000298130E040E050E0522F4427332722274F
:100810008A8190E0A0E0B0E0DC0199278827282BAE
:10082000392B4A2B5B2B8C8190E0A0E0B0E0282B89
:10083000392B4A2B5B2B8B8190E0A0E0B0E0BA2FE4
:10084000A92F982F8827282B392B4A2B5B2BF701B0
:10085000208331834283538381E001C080E00F9085
:100860000F900F900F90CF91DF911F910F91FF90FC
:10087000EF900895DB01FC0130E020E04AE0808148
:10088000982F90539A3050F4349F802D1124382F94
:10089000390F2F5F3196233091F701C021113C931E
:1008A000822F089580913F01882329F481E080936D
:1008B0003F010E94D9090895CF92DF92FF920F93D2
:1008C0001F93DF93CF9300D0CDB7DEB78EE095E0D6
:1008D0006DEB74E043E851E02AEE35E00E94AE098A
:1008E0000E948A0E682F00E611E0C8010E941D11C7
:1008F0000E94A01210923E0110923F01F801F68072
:1009000010E06E010894C11CD11C24C00E940F0E7F
:100910000E941911082F882351F080913E0180FF19
:1009200003C00E94520403C0C6010E94840FFF202E
:1009300089F0112341F0002369F480E060E00E9417
:100940007C1010E007C0002329F080E061E00E94E5
:100950007C1011E0809142018823C1F20E94DE12D6
:100960000E94731080E00F900F90CF91DF911F9144
:100970000F91FF90DF90CF9008950F931F93CF9327
:10098000DF93EC018B010C960E94FE072FEF8E3F48
:10099000920721F12FEF8F3F920720F48D5F9F4F39
:1009A00059F522C080913E01856080933E012696D4
:1009B00080E691E0BE010E944A08882349F500E6DE
:1009C00011E0CE01B8010E94DE070E9493090E9447
:1009D0007310C80164E00E941D111AC080913E018D
:1009E0008E7F80933E0114C080913E01826080938F
:1009F0003E010E9452040CC0C8010E94040F809165
:100A00003E0180FD05C0866080933E010E94520435
:100A100081E0DF91CF911F910F9108950F931F9364
:100A2000CF93DF93EA0180913E0181FF1CC08D7F4F
:100A300080933E0103E811E080E091E0B8010E945C
:100A4000DE07B8016A5F7F4F80E691E00E94DE0713
:100A5000C8010C966FEF7FEF0E9408088EE090E0CF
:100A6000998388830AC0CA010E94840F80913E0145
:100A700082FF03C08B7F80933E0110923F0181E093
:100A8000DF91CF911F910F9108950F931F93DF93E3
:100A9000CF9300D0CDB7DEB782E995E06FEA75E07D
:100AA00043E851E02AEE35E00E94AE090E948A0E2A
:100AB000682F80E691E00E941D110E94A0128E0115
:100AC0000F5F1F4F1FC00E940F0E0E941911882335
:100AD000C9F0C8010E94840F8823A1F489819A81FA
:100AE0000E94310F882371F489819A810E94970EA8
:100AF000882341F089819A8190934101809340013C
:100B00000E94D909809142018130E9F20E94DE12EF
:100B10000E94731080E00F900F90CF91DF911F9192
:100B20000F9108959C01FA0180914001909141013B
:100B3000918380836817790710F485E00895809188
:100B40007201882331F4C9010C966DEF7FEF0E948A
:100B50000808109241011092400181E00895CF935E
:100B6000DF93EB018FE891E00E94FE079C018091EA
:100B70007201882351F42D5F3F4F69F48FE891E0B3
:100B800060E078E00E94080803C02050384019F463
:100B9000CE010E94040F81E0DF91CF91089581E0A2
:100BA000089582E0089580E00895DF93CF9300D008
:100BB00000D0CDB7DEB7FB0182819381BE016F5FAC
:100BC0007F4F0E94D208882311F481E107C0CE0133
:100BD00001966CE671E00E94ED0780E00F900F90A7
:100BE0000F900F90CF91DF9108950F931F93DF9394
:100BF000CF9300D0CDB7DEB7282FDB01ED91FC916C
:100C0000119791818081843719F5903759F0943785
:100C100019F09C36E9F403C00AE611E005C008E6C5
:100C200011E002C000E711E0213091F012968D91A1
:100C30009C911397BE016F5F7F4F0E94A003882392
:100C400039F089819A81F8019183808380E001C025
:100C500081E10F900F90CF91DF911F910F91089537
:100C6000EF92FF921F93DF93CF930F92CDB7DEB732
:100C7000DB01ED91FC91119790812181943741F432
:100C80002D3671F5E2E7F1E090817F0110E011C0AF
:100C9000963631F5233641F0243611F5E7E6F1E0DA
:100CA00090817F0113E005C0E6E6F1E090817F01CD
:100CB00013E0813031F4F7011082992391F480839D
:100CC00010C012968D919C911397BE016F5F7F4F5C
:100CD0000E947103882321F08981F701808301C07C
:100CE00011E1812F0F90CF91DF911F91FF90EF9035
:100CF0000895DF93CF9300D000D000D0CDB7DEB7FA
:100D0000FB0182819381BE016F5F7F4F0E94990832
:100D1000882311F481E107C0CE01019660E671E0FD
:100D20000E94DE0780E026960FB6F894DEBF0FBE65
:100D3000CDBFCF91DF9108950E94A01280E0089569
:100D40000E94DE1280E008950E94530980E0089519
:100D50000E9462098111806208950E9493098111A5
:100D6000806208950E942D0980E0089582E08093BA
:100D70004201089583E08093420108951092420158
:100D8000089581E080934201089590E080914301AD
:100D9000882309F491E09093430108950E943B0D4C
:100DA000089581E00E94360D089580E00E94360D7E
:100DB00008950E94A01208950E94DE1208950895D9
:100DC0000895089506960E94FE0708951F93CF93F5
:100DD000DF93FC018081880F880F8C73EF01C80FAF
:100DE000D11D8185813141F4CE010E94FE07CE01E3
:100DF00002960E94FE0718C08630B1F4CE010E9410
:100E0000FE07CE0102960E94FE07CE010C960E94BC
:100E1000FE07182FCE0104960E940C0814FF04C090
:100E2000CE0108960E940C08DF91CF911F91089582
:100E3000CF93DF93EC012E960C960E94FE0728E0DC
:100E40008630920721F4CE010E94E20606C080504F
:100E5000984019F4CE010E94E606DF91CF910895E3
:100E600088E10FB6F89480936000109260000FBE86
:100E700078940E94F601A7E2B0E08C91807E8C937A
:100E8000E8E2F0E08081807E80838C9186608C93A4
:100E900080818B6180838FEF8AB90E948C090E94C8
:100EA0002D0980914201823029F0833031F0813068
:100EB00051F406C00E944B0D08C00E943D0E05C0B3
:100EC0000E94450502C00E945C04823051F78AE00E
:100ED00090E00E946D0228E088E190E00FB6F8945F
:100EE000A895809360000FBE20936000FFCF8F9283
:100EF0009F92AF92BF92CF92DF92EF92FF920F93A9
:100F00001F938C015B014A01069662E070E00E942B
:100F10000808CC24DD246894C3F8C00ED11EB801A3
:100F20006E5E7F4FC6010E94DE070F2EFEE0EF2EA1
:100F3000FF24F02DE00EF11E085E1F4FC701B8011F
:100F40000E94ED07C501B6010E94DE07C401B7018A
:100F50000E94ED071F910F91FF90EF90DF90CF90CF
:100F6000BF90AF909F908F9008950F931F93CF9352
:100F7000DF93EC016C31710510F480E01AC00E941F
:100F8000FE078C01CE0102960E94FE072C813D8156
:100F90000130110561F48050984049F4263039F44D
:100FA00090E0343009F091E081E0892702C080E0D0
:100FB00090E0DF91CF911F910F910895AC0125E052
:100FC000822F90E0DB01A80FB91FFA01E80FF91F8B
:100FD00080818C932150A0F70895FC01DB0183816F
:100FE00013968C931397828112968C93129781811A
:100FF00011968C93119780818C930895FC01218127
:1010000030E0908180E0282B392B822F932F089598
:10101000FC01708361830895FC01238130E040E08E
:1010200050E0808190E0A0E0B0E0B82FAA27992797
:101030008827282B392B4A2B5B2B818190E0A0E05D
:10104000B0E0DC0199278827282B392B4A2B5B2B12
:10105000828190E0A0E0B0E0BA2FA92F982F8827D6
:10106000282B392B4A2B5B2B622F732F842F952F24
:101070000895FC01872F9927AA27BB278083CB01DE
:10108000AA27BB278183BB27A72F962F852F828373
:1010900043830895AC0120E030E0FA01E20FF31F32
:1010A000DB01A20FB31F90818C91981711F080E0A3
:1010B00008952F5F3F4F2630310579F781E008957D
:1010C000AC0120E030E0FA01E20FF31FDB01A20FD8
:1010D000B31F90818C91981711F080E008952F5FD5
:1010E0003F4F2430310579F781E00895EF92FF9268
:1010F0000F931F93CF93DF9320912401309125010B
:101100008C01E901EE24FF246894E4F8E20EF31E5A
:10111000F80181918F01BE010E94F3022496CE1541
:10112000DF05B1F7DF91CF911F910F91FF90EF9005
:101130000895AF92BF92CF92DF92EF92FF920F93FA
:101140001F93DF93CF930F92CDB7DEB77C016B0176
:1011500000E010E05E010894A11CB11CC701B501BC
:101160000E947103882389F0F601E00FF11F898145
:1011700080830F5F1F4F0630110511F481E006C018
:1011800083E090E0E80EF91EE9CF80E00F90CF9168
:10119000DF911F910F91FF90EF90DF90CF90BF9064
:1011A000AF900895AF92BF92CF92DF92EF92FF92ED
:1011B0000F931F93DF93CF930F92CDB7DEB77C01D0
:1011C0006B0100E010E05E010894A11CB11CC70196
:1011D000B5010E943A04982F882391F0F601E00FA0
:1011E000F11F898180830F5F1F4F0430110511F4B7
:1011F00081E007C0892F90E00196E80EF91EE7CF45
:1012000080E00F90CF91DF911F910F91FF90EF90B1
:10121000DF90CF90BF90AF900895EF92FF920F9321
:101220001F93CF93DF93E0903801F09039018C0148
:10123000C0E0D0E0B7016C0F7D1FF80181918F01F4
:101240000E94B1022396C231D105A1F7DF91CF915F
:101250001F910F91FF90EF9008950895FC014FEFBB
:101260005FEF20E030E081914827842F829584272A
:10127000082E869586958025082E86958025877070
:10128000042E452F869507948795502D4827069460
:101290008795502548272F5F3F4F2331310519F798
:1012A000842F952F0895A0E6B1E02BE933E043E7C2
:1012B00051E0F9012F5F3F4FE491ED93A417B5077B
:1012C000C1F70895EF92FF920F931F93F99B02C00D
:1012D00081E01DC00F2EF0E6EF2EF1E0FF2EF02D85
:1012E000C70160E070E043E150E00E942D1383E10C
:1012F00090E00E943D138C01C7010E942E0908173F
:10130000190711F480E003C00E94530982E01F9185
:101310000F91FF90EF9008950E946209882311F0C9
:101320000E94530908950F931F93F99B02C081E017
:1013300012C000E611E0C80160E070E043E150E057
:101340000E944313C8010E942E09BC0183E190E072
:101350000E945B1380E01F910F91089590934501C7
:101360008093440170934701609346015093490173
:101370004093480130934B0120934A011AB8E6E2AA
:10138000F0E080818B7F8083089586B1282F30E044
:10139000207130703595279535952795359527958A
:1013A00035952795220F331F8870880F880F822B61
:1013B0000895E8E2F0E080818D7F808381E08A9566
:1013C000F1F780818260808380915801909159016A
:1013D000A0915A01B0915B0180934C0190934D0113
:1013E000A0934E01B0934F010895782F10925F01A2
:1013F00010925E0140913A0150913B01E6E2F0E02B
:1014000015C08081282F30E0C901887090709595B3
:1014100087959595879595958795781711F481E02F
:10142000089524FD03C0862F8360089580915E0196
:1014300090915F018417950720F3862F82600895AD
:101440002F923F924F925F926F927F928F929F92D4
:10145000AF92BF92CF92DF92EF92FF920F931F93C2
:10146000DF93CF9300D0CDB7DEB710927301349BDA
:1014700002C0339B04C01092740180E0C4C2A9B0C2
:101480001A82198282E2A81619F0A4E4AA16A9F415
:1014900060914A0170914B01E0914401F091450146
:1014A0008091480190914901AE014F5F5F4F0995CE
:1014B000813019F080937401A6C260905801709039
:1014C000590180905A0190905B0110928500109212
:1014D0008400E8E2F0E0808184608083B2E2AB16B1
:1014E000A1F0BA1520F0E1E1AE1649F473C0F3E3C0
:1014F000AF1609F47BC184E4A81609F4DCC0BB2450
:101500006894B2F8CC24DD2406C2C980DA808FEF5B
:101510008AB981E060E20E94F509B82EA1E08A173D
:1015200009F055C0DBB8E8E2F0E080818B7F808372
:1015300080E060E30E94F509B82EB1E08B1709F056
:1015400046C0CBB8E8E2F0E0808184608083E09020
:101550004801F0904901C60101960F2EFEEF2F2E93
:10156000FFEF3F2EF02D282239222114310431F1D2
:1015700001E0CC24DD240F2EF8E24F2E5524F02D6F
:1015800014E0802F60E40E94F509B82EE1E08E1788
:10159000E1F4D7018C91EBE2F0E08083D2018C91F1
:1015A00081278C930894C11CD11C2C143D0441F05C
:1015B0000894E11CF11CB1E00B27E3CFCC24DD241F
:1015C00081E060E50E94F509B82E1AB8A4C1CC24C8
:1015D000DD24A1C181E060E20E94F509B82EE1E0BE
:1015E0008E1709F065C009B1E8E2F0E080818B7FD9
:1015F000808380E060E30E94F509B82EF1E08F1748
:1016000009F056C029B1902F80E030E0282B392B0B
:10161000E8E2F0E0808194E08927808380914A01AC
:1016200090914B018217930738F40F2EF5E0BF2EEF
:10163000F02DCC24DD246FC1C90101960F2EFEEFE1
:101640002F2EFFEF3F2EF02D28223922E090480167
:10165000F09049012114310441F101E0CC24DD2452
:101660000F2EF8E24F2E5524F02D14E0802F60E469
:101670000E94F509B82E81E0B81609F04CC1A9E224
:10168000B0E08C91F7018083D2018C9181278C93FB
:101690000894C11CD11C2C143D0409F43CC10894CD
:1016A000E11CF11CB1E00B27E1CFCC24DD2433C1D8
:1016B000CC24DD2430C1E980FA8081E060E20E9420
:1016C000F509B82EE1E08E1709F08DC08FEF8AB9C9
:1016D000FBB8E8E2F0E080818B7F808380E060E30C
:1016E0000E94F509B82EF1E08F1709F07CC0EBB825
:1016F000E8E2F0E0808194E08927808381E060E483
:101700000E94F509B82E81E0B81609F06CC0C70137
:1017100001969C0136952795009148011091490149
:10172000F894E8E2F0E0808194E089278083211535
:10173000310581F160E070E09FE04BE250E0E6E2CD
:10174000F0E0892F8A95F1F7D8018C91DA018C931A
:10175000808183FF03C0808184FDFACF808184FF74
:101760001BC0892F8A95F1F7D80111968C91DA0167
:101770008C93808183FD03C0808184FDFACF8081BA
:1017800084FF0AC06F5F7F4F6217730728F40E5FF4
:101790001F4FD7CF60E070E0E6E2F0E0A8E2B0E0F3
:1017A000789403C0808184FFFBCF808183FDFACFD2
:1017B0008C9184608C9303C0808184FFF1CF808101
:1017C00083FFFACF6217730720F40F2EF2E4BF2EC7
:1017D000F02DE8E2F0E080818B7F80831AB86B0106
:1017E000CC0CDD1C98C0CC24DD2495C081E060E2E7
:1017F0000E94F509B82EB1E08B1709F08AC009B133
:10180000E8E2F0E080818B7F808380E060E30E94EB
:10181000F509B82EE1E08E1709F07BC089B1302FB1
:1018200020E090E0282B392B80914A0190914B01C8
:101830008217930738F40F2EF5E0BF2EF02DCC243D
:10184000DD2469C0C90101969C0136952795009158
:10185000480110914901F894E8E2F0E0808194E0B9
:10186000892780832115310529F42EC0808184FDCC
:101870000AC00FC040E050E0E6E2F0E00F2EF9E2CF
:10188000EF2EFF24F02D808183FD03C0808184FD35
:10189000EDCFD7018C91D8018C9303C0808184FF58
:1018A00006C0808183FF03C0808184FDF7CFD7010C
:1018B0008C91D80111968C934F5F5F4F421753075D
:1018C00018F40E5F1F4FDFCF7894E6E2F0E0A8E255
:1018D000B0E094E0808183FD03C0808184FDFACF75
:1018E000808184FF09C08C9189278C93808183FF3C
:1018F00003C0808184FDFACF808184FFEBCFE8E2D2
:10190000F0E0808194E0892780836901CC0CDD1CA4
:1019100002C0CC24DD2410925F0110925E01209160
:101920003A0130913B01E6E2F0E003C0808184FFA0
:1019300007C080915E0190915F0182179307B0F319
:10194000E8E2F0E080818B7F8083E0908400F0907B
:101950008500B1E0BB1691F4E1E1AE1621F0F3E3AE
:10196000AF1609F065C0E0914601F0914701809102
:10197000480190914901B6010995B82E03E711E09D
:10198000F801A192B082D8011596DC92CE921497FC
:101990001796FC92EE921697C601B7010E94870235
:1019A000F80191878087D8011C966D927D928D9267
:1019B0009C921F97B1E1AB1631F0E3E3AE1619F03C
:1019C00080E090E002C081E090E0E5E7F1E0819303
:1019D0001082882311F081E0808380917501882333
:1019E00019F020E030E00AC020917F0130918001A1
:1019F00080914C0190914D01281B390B30937E0151
:101A000020937D018B2D0F900F90CF91DF911F912F
:101A10000F91FF90EF90DF90CF90BF90AF909F908D
:101A20008F907F906F905F904F903F902F90089590
:101A300003E711E0F801A19281E08083D8011596B7
:101A4000DC92CE9214971796FC92EE921697C601EE
:101A5000B7010E948702F80191878087D8011C9600
:101A60006D927D928D929C921F97AACF8093520186
:101A70000E94D909089590E080915101882309F4CA
:101A800091E090935101992329F081E00E94360D55
:101A90000E94A01208950F931F93CF93DF930E948B
:101AA000A0128BEC9DE065E97DE043E851E02AEE71
:101AB00035E00E94AE09109251011092500110922F
:101AC0005201C5E7D1E003E711E021C00E940F0EEB
:101AD0008130A9F480915201882319F4C8010E9431
:101AE000E1068881882399F080915101882321F0B3
:101AF00081E00E94360D0BC01092520108C088236D
:101B000031F080915101882311F00E943B0D8091AA
:101B100042018230D9F281E060E00E94DF1280E071
:101B2000DF91CF911F910F9108950F931F93CF9342
:101B3000DF938C01C0E0D0E0809168019091690151
:101B40008617970711F0C1E0D0E0C80160E071E0AE
:101B50000E944A08882309F42196C801069660E687
:101B600071E00E944A08882309F42196EAE6F1E030
:101B700020819181F8018485891711F4858582136C
:101B80002196CD2B11F481E001C086E0DF91CF9149
:101B90001F910F910895EF92FF920F931F93CF9390
:101BA000DF93EC017A018091680190916901FA015B
:101BB000918380836817790710F485E029C080E05D
:101BC00091E0BE010E94DE0700E611E0BE016A5FFF
:101BD0007F4FC8010E94DE07065F1F4FF80190810A
:101BE00081818C879D87F70180819181AC014E5066
:101BF000504069F06C2F2C2F3D2FF9018E2F861B42
:101C0000868741505040319641155105B9F781E022
:101C1000DF91CF911F910F91FF90EF9008950F9357
:101C20000E94200A082F882329F1813091F4E6E7E9
:101C3000F1E0618172814581568180810E94B512F7
:101C4000809143018823B1F083E791E00E94E1068F
:101C500011C083E791E00E94E106E09176018CE0FB
:101C6000E89FF0011124E359F84F8681978101968E
:101C700097838683802F0F910895EF92FF920F93A1
:101C80001F93DF93CF9300D0CDB7DEB70E948A0EAB
:101C9000682F80E691E00E941D110E94A0127E0133
:101CA0000894E11CF11C0BE817E020C00E941911F8
:101CB0008823E1F0C7010E94840F882389F4898179
:101CC0009A810E94310F882389F489819A810E9428
:101CD000970E882359F089819A810E94040F06C0CB
:101CE000F8018081918101969183808380914201E6
:101CF0008330E1F280E061E00E94DF120E94731005
:101D000080E00F900F90CF91DF911F910F91FF9086
:101D1000EF90089580916601882311F09CE001C046
:101D200094E08091670181119160892F08958F92CD
:101D30009F92AF92BF92CF92DF92EF92FF920F935A
:101D40001F93CF93DF9301E911E0F8018081880FA1
:101D5000880F8C735801A80EB11CC50102960E9411
:101D6000FE07EC01005F1F4F8CE691E0B8010E9476
:101D700060088823D9F180907001909071018C16D1
:101D80009D06A1F50DE911E0B8016C5F7F4FC80118
:101D90000E94ED070F2EFCE6CF2EF1E0DF2EF02D96
:101DA000C601B8010E94ED07C5010E94FE077C0133
:101DB000C501B4010E940808C5010296B7010E943E
:101DC00008080F2EFCEEEF2EFFEFFF2EF02DE00E99
:101DD000F11E0A511040C701B8010E94DE07C6017A
:101DE0000C97B7010E94DE0781E001C080E0DF911F
:101DF000CF911F910F91FF90EF90DF90CF90BF9008
:101E0000AF909F908F900895FF920F931F93CF9361
:101E1000DF93EC0104E810E0F8011182108283E8FE
:101E200091E0BE010E94C010F82EF801608171811E
:101E3000CE010E948702AC01FF2029F483E0BE019D
:101E40000E94B51207C0E7E9F7E080819181019611
:101E5000918380838F2DDF91CF911F910F91FF9000
:101E60000895EF92FF920F931F93CF93DF93EC01AE
:101E70008FE891E00E94FE0786509840D9F5CF3058
:101E8000D105C0F1BE016E50704081E991E00E9421
:101E9000B507882389F187E991E00E94FE07019741
:101EA00059F589EA91E06CE671E00E9460088823A8
:101EB00019F101E911E00F2EF0E6EF2EF1E0FF2E0F
:101EC000F02DA701445F5F4FC801B7010E9477075B
:101ED0000E50104080E091E0B8010E94DE070A5FDA
:101EE0001F4FC701B8010E94DE07CE010E94040FF8
:101EF00081E003C080E001C081E0DF91CF911F91BC
:101F00000F91FF90EF900895FF920F931F93CF933F
:101F1000DF93EC0104E810E0F8011182108283E8FD
:101F200091E06AEE75E0AE010E941112F82EF80100
:101F300060817181888199810E948702AC01FF20B4
:101F400031F46881798182E00E94B51207C0EBE824
:101F5000F7E0808191810196918380838F2DDF91BD
:101F6000CF911F910F91FF900895E5E2F0E09081ED
:101F70009B7F9083962F9F71982B9EBDEDE4F0E0A0
:101F800080818823ECF7662334F41EBCEDE4F0E096
:101F900080818823ECF71EBCEDE4F0E0808188238B
:101FA000ECF78EB5E5E2F0E09081946090830895BF
:101FB000E5E2F0E090819B7F90836F71682B6EBDAE
:101FC000EDE4F0E080818823ECF74EBDEDE4F0E035
:101FD00080818823ECF7E5E2F0E0808184608083F3
:101FE0000895CF93DF939C01DB01E5E2F0E080816F
:101FF0008B7F80838AE38EBDEDE4F0E080818823CF
:10200000ECF72115310579F0CEE4D0E0EDE4F0E015
:10201000188280818823ECF788818C93215030408E
:1020200011F01196F5CFE5E2F0E0808184608083C5
:10203000DF91CF9108951F93182F282F30E020763D
:1020400030708091530190E02817390781F080EAC1
:102050006FE143E00E94D80F412F40764093530137
:1020600042954695477080E86FE10E94D80F1F9116
:1020700008951F93182F0E941B1080E0612F0E946B
:10208000B50F1F9108950F931F93182F062F0E94CD
:102090001B1080E4612F402F0E94D80F1F910F91D9
:1020A00008950F931F93182F072F0E944310812F1D
:1020B0008F5F602F0E9443101F910F9108950F931F
:1020C0001F93982F8B0184ED692F0E94431086ED9A
:1020D000B8010E9451108AEE0E94391080FDFBCF9A
:1020E0001F910F9108958FE10E941B1080EA6FE10C
:1020F00044E00E94D80F0895882311F081E00895EC
:1021000080915601882331F0662311F463E004C006
:1021100062E002C0611161E087E70E94431080E045
:102120000895CF93DF93EB01882319F0813019F5DF
:1021300005C080915701888380E01FC084ED61E174
:102140000E94431082ED61E00E9443108AEE0E94DB
:10215000391080FDFBCF82ED60E00E94431089EDD5
:102160000E94391090E09695879596958795817095
:10217000888380E002C0188281E0DF91CF910895CA
:102180000F931F93CF93DF93EC018B0182E060E00C
:102190007AE10E9451108AE760E040E00E94D80F87
:1021A000E5E2F0E080818B7F80838AE78EBDEDE4FD
:1021B000F0E080818823ECF79801AEE4B0E0EDE434
:1021C000F0E008C088818C9380818823ECF7219609
:1021D0002150304021153105A9F7E5E2F0E080817A
:1021E000846080830FC08CE10E94391081FF0AC097
:1021F00080E86FE140E80E94D80F80EA6FE140E894
:102200000E94D80F80E06FE10E94B50F83FDEBCFF5
:10221000B8016050764E86E00E94511080E86FE170
:1022200048E00E94D80F80E0DF91CF911F910F917D
:10223000089589E30E9439100895DF92EF92FF928A
:102240000F931F93DF93CF930F92CDB7DEB77C012F
:10225000D62E0E948B12E5E2F0E0808184608083BC
:102260008D2D8170809356018FEF60E04FEF0E94BB
:10227000D80F84E190E00E947A0200E010E008C0EC
:102280000F5F1F4F8FE00F3F180711F481E0C0C0B0
:1022900080E06DE10E94B50F882391F31092550103
:1022A0001092540188E060E070E00E9451108CE0D0
:1022B00060E070E00E9451108AE06FEF79E10E94C7
:1022C000511084E060E07AE10E94511086E06FEFE7
:1022D0007FE10E945110D2FE05C088E361EA0E94AE
:1022E000431004C088E360EA0E94431088E26FE371
:1022F00070E30E94511080E369EF77EF0E94511064
:1023000080EC6DE00E94431081EC60E00E9443107D
:1023100080915601882311F063E301C062E382ECEF
:102320000E94431080915601882351F084EC65E1AE
:102330000E94431086EC62E170E00E94511009C0D7
:1023400084EC62E10E94431086EC62E17CE00E9432
:1023500051108AEC6EEE75E00E945110809156018A
:10236000882359F080E060E071E00E945F1080E116
:1023700060E070E00E945F100AC080E060E070E002
:102380000E945F1080E160E071E00E945F1088E7CA
:1023900060ED77E00E94511082E70E94391080932F
:1023A0005701863018F08F5F8093570184EEF70154
:1023B00060810E94431085EEF70161810E94431005
:1023C00082EEF70162810E94431083EEF701638180
:1023D0000E94431080EEF70164810E94431081EE59
:1023E000F70165810E9443108FE10E941B1080E875
:1023F0006BE140EC0E94D80F80E86FE144E00E945E
:10240000D80F80E0BE016F5F7F4F0E94911080E087
:102410000F90CF91DF911F910F91FF90EF90DF9080
:102420000895AF92BF92CF92DF92EF92FF920F93F7
:102430001F93DF93CF9300D000D000D0CDB7DEB78D
:102440005C016B018A01609154017091550180E03B
:102450000E94511086E090E0BE016F5F7F4F0E94A6
:10246000F10FE980FA80F0925501E09254018B81DE
:102470009C819C0124503040F801318320838D8160
:102480008823BCF0B70161507040FAE160307F07EB
:1024900030F08CE06FEF79E10E94511003C08CE0C6
:1024A0000E94511080E86EE140E40E94D80F03E0E2
:1024B00020C0C216D30618F4960102E001C000E065
:1024C000C901B5010E94F10FB701615070408AE166
:1024D0006030780730F08CE06FEF79E10E945110A6
:1024E00003C08CE00E94511080E86EE140E40E943D
:1024F000D80F802F26960FB6F894DEBF0FBECDBF43
:10250000CF91DF911F910F91FF90EF90DF90CF90CF
:10251000BF90AF900895E4E2F0E080818E62808306
:1025200080818E768083E5E2F0E08081877D808304
:1025300080818460808380E58CBD81E08DBD0895BD
:10254000EDE6F7E02DE937E0108211821282138266
:1025500015821482178216821186108613861286BF
:102560003C96E217F30781F708950F931F939CE0C1
:10257000899FC0011124FC01E359F84F84819581A2
:102580000196958384838B0120E030E080819181E6
:10259000A281B381800F911FA21FB31F80839183FB
:1025A000A283B383828593858417950710F453879C
:1025B00042871F910F9108950895089508950895F1
:1025C000629FD001739FF001829FE00DF11D649F17
:1025D000E00DF11D929FF00D839FF00D749FF00DA3
:1025E000659FF00D9927729FB00DE11DF91F639F44
:1025F000B00DE11DF91FBD01CF0111240895991BF4
:1026000079E004C0991F961708F0961B881F7A95E9
:10261000C9F780950895A1E21A2EAA1BBB1BFD01E4
:102620000DC0AA1FBB1FEE1FFF1FA217B307E407B1
:10263000F50720F0A21BB30BE40BF50B661F771F09
:10264000881F991F1A9469F76095709580959095E9
:102650009B01AC01BD01CF010895DC01CB01FC0160
:10266000F999FECF06C0F2BDE1BDF89A319600B4EB
:102670000D9241505040B8F70895A8E1B0E042E013
:1026800050E00C942F13DC01CB0103C02D910E946C
:102690004E1341505040D0F70895262FF999FECFA0
:1026A0001FBA92BD81BD20BD0FB6F894FA9AF99A6F
:1026B0000FBE019608950E944D13272F0C944E13C0
:0426C000F894FFCFBC
:1026C400FFFFFFFFFFFF000000000000000000000C
:1026D400FFFFFFFF3030302E3030302E3030302EC0
:1026E40030303000140130303A30303A30303A3043
:0C26F400303A30303A30300026018813B4
:00000001FF
