:100000000C94D7010C94F4010C94F4010C94F401B9
:100010000C94F4010C94F4010C94F4010C94F4018C
:100020000C94F4010C94F4010C94F4010C9420024F
:100030000C94F4010C94F4010C94F4010C94F4016C
:100040000C94F4010C94F4010C94F4010C94F4015C
:100050000C94F4010C94F4010C94F4010C94F4014C
:100060000C94F4010C94F401D400F505D600E800DA
:10007000F705EA00FC00F905FE001501D806170196
:100080002801D3062B014501CE0648016401CA06AA
:1000900067018301C60686019601C2069901AA017D
:1000A0009F06AC01C8015606CB01E4015606E701E4
:1000B000FD011B06000217021B061A023302FB0594
:1000C00036024B021B064E02600256066302000017
:1000D0000000000071007175697420636F6D6D61BF
:1000E0006E64206D6F6465007200736F66742072B9
:1000F0006573657420646576696365007600707267
:10010000696E74206669726D7761726520766572BA
:1001100073696F6E0070007072696E742070617226
:10012000616D65746572730070730073617665202C
:10013000706172616D657465727320746F204545DE
:1001400050524F4D00706C006C6F61642070617292
:10015000616D65746572732066726F6D20454550E0
:10016000524F4D0070720072657365742070617239
:10017000616D657465727320746F20646566617566
:100180006C740073640064756D70207374617469BD
:10019000737469637300737200726573657420739E
:1001A000746174697374696373006D006D616320B9
:1001B00061646472657373206F6620646576696339
:1001C00065203C6D61633E00666400736574206663
:1001D000756C6C206475706C65206D6F6465205B58
:1001E0006F6E5D0066630073657420666C6F7720C8
:1001F000636F6E74726F6C205B6F6E5D00746C0069
:1002000074657374207061636B6574206C656E67D0
:100210007468203C6E3E00747400746573742070C2
:1002200061636B6574206574682074797065203C27
:100230006E3E0074690074657374204950206164D7
:100240006472657373203C69703E0074700074655D
:1002500073742055445020706F7274203C6E3E00C1
:10026000746D0074657374206D6F6465205B307C01
:10027000315D0031E406AA0232E706BC0233E00633
:10028000D30234DC06E702730207FA0253FF060AC0
:100290000376EB061B0370FB06310350F70652038F
:1002A00061F4067C030000000000656E7465722036
:1002B000627269646765206D6F646500656E746560
:1002C00072206272696467652074657374206D6F53
:1002D000646500656E7465722050494F20746573C3
:1002E00074206D6F646500656E74657220504220E5
:1002F00074657374206D6F64650064756D70207330
:1003000074617469737469637300726573657420D2
:100310007374617469737469637300746F67676C75
:100320006520766572626F7365206F757470757481
:100330000073656E6420612074657374207061635E
:100340006B65742028706274657374206D6F6465CA
:10035000290073656E642061207465737420706178
:10036000636B6574202873696C656E74292028702E
:100370006274657374206D6F64652900746F6767BC
:100380006C65206175746F2073656E6420287062DF
:1003900074657374206D6F646529001A11AFA047EE
:1003A000110000EA05FDFFC0A802DE901A0011242A
:1003B0001FBECFEFD8E0DEBFCDBF11E0A0E0B1E0BF
:1003C000E6E1F1E202C005900D92AC33B107D9F736
:1003D00017E0ACE3B1E001C01D92A439B107E1F729
:1003E0000E9456070C9489100C940000F89488E041
:1003F0008093800081E08093810080ED97E090936E
:10040000890080938800109285001092840082E019
:1004100080936F001092520110925101109250017E
:1004200010924F01109253011092540110925501F5
:100430001092560110923D0110923C01789408955B
:100440001F920F920FB60F9211248F939F93AF9329
:10045000BF93109285001092840080915101909179
:100460005201019690935201809351018091530162
:1004700090915401A0915501B09156010196A11D92
:10048000B11D8093530190935401A0935501B093F3
:10049000560180913C0190913D01019690933D0160
:1004A00080933C018436910568F010923D011092D2
:1004B0003C0180914F019091500101969093500121
:1004C00080934F01BF91AF919F918F910F900FBE7D
:1004D0000F901F9018959C011092500110924F019F
:1004E00080914F019091500182179307C8F30895AE
:1004F0009C011092520110925101809151019091F2
:10050000520182179307C8F30895CF93DF93EB014D
:100510006115710519F420E030E016C0BC0180E0DF
:1005200090E020EA36E841E050E00E9409109E0188
:1005300040E050E0220F331F441F551F220F331F8E
:10054000441F551F0E943410822F932FDF91CF91AB
:1005500008958A3010F4805D0895895C0895FF92B3
:100560000F931F93F82E8B0182958F700E94A90222
:10057000F80180838F2D8F700E94A902F80181837A
:100580001F910F91FF900895FF920F931F93F82EE4
:100590008B01892F0E94AF020E5F1F4F8F2DB80174
:1005A0000E94AF021F910F91FF900895CF92DF92AA
:1005B000EF92FF920F931F936B017C018A01AA2790
:1005C000BB27BA010E94C4020C5F1F4FC601B801CD
:1005D0000E94C4021F910F91FF90EF90DF90CF9087
:1005E0000895282FFB0164E60E942810392F822FDE
:1005F0000E942810805D8083832F6AE00E9428106B
:10060000805D8183832F0E942810905D92830895DE
:10061000AF92BF92CF92DF92EF92FF920F931F9310
:10062000CF93DF93C62ED72EE82EF92EB22E822F2F
:1006300090E00197EA01C80FD91F021708F421962C
:10064000BB2041F110E00F2EFEE2AF2EF02D10176F
:1006500011F4A88221976C2D7D2D8E2D9F2D2AE0DF
:1006600030E040E050E00E943410605D68831F5F1E
:100670001B1580F421976C2D7D2D8E2D9F2D2AE04A
:1006800030E040E050E00E943410C22ED32EE42E21
:10069000F52EDDCFDF91CF911F910F91FF90EF905D
:1006A000DF90CF90BF90AF900895FB01982F8156B7
:1006B000863020F4865F808381E00895892F8154FD
:1006C000863020F4865F808381E00895892F8053EF
:1006D0008A3010F080E00895808381E00895EF92E1
:1006E000FF920F931F93DF93CF930F92CDB7DEB797
:1006F0008C017B01FC018081BE016F5F7F4F0E94F6
:100700005503882391F089818295807F8983F80140
:100710008181B7010E945503882339F0F701808158
:100720009981892B808381E001C080E00F90CF9177
:10073000DF911F910F91FF90EF900895EF92FF923C
:100740000F931F93DF93CF9300D0CDB7DEB78C010B
:100750007B01BE016F5F7F4F0E946F038823A1F072
:10076000C8010296BE016E5F7F4F0E946F0388230F
:1007700059F0998180E02A8130E0822B932BF70198
:100780009183808381E001C080E00F900F90CF9132
:10079000DF911F910F91FF90EF900895EF92FF92DC
:1007A0000F931F93DF93CF9300D000D0CDB7DEB768
:1007B0008C017B01BE016F5F7F4F0E946F03882316
:1007C00009F44AC0C8010296BE016E5F7F4F0E94C5
:1007D0006F03882309F440C0C8010496BE016D5F11
:1007E0007F4F0E946F038823B9F1C8010696BE01AE
:1007F0006C5F7F4F0E946F03882371F1298130E085
:1008000040E050E0522F4427332722278A8190E08E
:10081000A0E0B0E0DC0199278827282B392B4A2B50
:100820005B2B8C8190E0A0E0B0E0282B392B4A2B89
:100830005B2B8B8190E0A0E0B0E0BA2FA92F982F1E
:100840008827282B392B4A2B5B2BF70120833183F8
:100850004283538381E001C080E00F900F900F909E
:100860000F90CF91DF911F910F91FF90EF9008951E
:10087000DB01FC0130E020E04AE08081982F9053BA
:100880009A3050F4349F802D1124382F390F2F5F68
:100890003196233091F701C021113C93822F0895A6
:1008A0000F931F9306E210E0F80180818F7D808313
:1008B00084E190E00E946B02F80180818062808375
:1008C00084E190E00E946B02F8942CE088E190E0D3
:1008D0000FB6F894A895809360000FBE2093600037
:1008E000FFCF80913F01882329F481E080933F016D
:1008F0000E94EF090895CF92DF92FF920F931F930A
:10090000DF93CF9300D0CDB7DEB783E395E067EDFB
:1009100074E00E94CC090E947C0E682F07E511E06C
:10092000C8010E94A70F0E94C90F10923E011092A9
:100930003F01F801F68010E06E010894C11CD11C43
:1009400024C00E94020E0E94B20F082F882351F08B
:1009500080913E0180FF03C00E94710403C0C60164
:100960000E94760FFF2089F0112341F0002369F4E3
:1009700080E060E00E94AA0F10E007C0002329F089
:1009800080E061E00E94AA0F11E08091420188237B
:10099000C1F20E9407100E94A90F0F900F90CF91F3
:1009A000DF911F910F91FF90DF90CF9008950F93EB
:1009B0001F93CF93DF93EC0186E891E00E941C081F
:1009C0002FEF8D3F920791F12FEF8E3F920720F48A
:1009D0008C5F9F4FB1F532C02FEF8E3F920701F130
:1009E0008F5F9F4F71F580913E01856080933E013E
:1009F00087E591E060E871E00E946808882369F566
:100A000007E511E080E891E0B8010E94FC070E9430
:100A1000B1090E94A90FC80164E00E94A70F1DC080
:100A200080913E018E7F80933E0117C080913E01F0
:100A3000826080933E010E9471040FC0CE010E942B
:100A4000EE05CE010E94F60E80913E0180FD05C0AC
:100A5000866080933E010E94710481E0DF91CF9116
:100A60001F910F9108950F931F93CF93DF93EC0184
:100A700080913E0181FF1CC08D7F80933E010AE77B
:100A800011E080E091E0B8010E94FC07B8016A5FC4
:100A90007F4F87E591E00E94FC07C8010C966FEF3D
:100AA0007FEF0E9426088EE090E0998388830AC039
:100AB000CE010E94760F80913E0182FF03C08B7FA2
:100AC00080933E0110923F0181E0DF91CF911F9111
:100AD0000F9108950F931F93DF93CF9300D0CDB75D
:100AE000DEB782EB95E06EEC75E00E94CC090E94C7
:100AF0007C0E682F87E591E00E94A70F0E94C90F26
:100B00008E010F5F1F4F1FC00E94020E0E94B20F86
:100B10008823C9F0C8010E94760F8823A1F4898137
:100B20009A810E94230F882371F489819A810E94FF
:100B3000890E882341F089819A81909341018093A5
:100B400040010E94EF09809142018130E9F20E9448
:100B500007100E94A90F0F900F90CF91DF911F9166
:100B60000F910895FC018091400190914101918382
:100B700080838B5E954010F085E008958091690137
:100B8000882331F486E891E06DEF7FEF0E9426081C
:100B9000109241011092400181E00895CF93DF93BC
:100BA000EC0186E891E00E941C089C01809169019B
:100BB000882351F42D5F3F4F69F486E891E060E0AF
:100BC00078E00E94260803C02050384019F4CE0176
:100BD0000E94F60E81E0DF91CF91089580917A0115
:100BE000813011F40E945004089581E0089582E05C
:100BF000089580E00895DF93CF9300D000D0CDB763
:100C0000DEB7FB0182819381BE016F5F7F4F0E943F
:100C1000F008882311F481E107C0CE01019663E654
:100C200071E00E940B0880E00F900F900F900F90E2
:100C3000CF91DF9108950F931F93DF93CF9300D04F
:100C4000CDB7DEB7282FDB01ED91FC911197918193
:100C50008081843719F5903759F0943719F09C3614
:100C6000E9F403C001E611E005C00FE511E002C0A0
:100C700007E611E0213091F012968D919C91139727
:100C8000BE016F5F7F4F0E949E03882339F08981E8
:100C90009A81F8019183808380E001C081E10F9007
:100CA0000F90CF91DF911F910F910895EF92FF92D6
:100CB0001F93DF93CF930F92CDB7DEB7DB01ED919A
:100CC000FC91119790812181943741F42D3671F573
:100CD000E9E6F1E090817F0110E011C0963631F530
:100CE000233641F0243611F5EEE5F1E090817F01E5
:100CF00013E005C0EDE5F1E090817F0113E0813064
:100D000031F4F7011082992391F4808310C0129678
:100D10008D919C911397BE016F5F7F4F0E946F036F
:100D2000882321F08981F701808301C011E1812F9F
:100D30000F90CF91DF911F91FF90EF900895DF9377
:100D4000CF9300D000D000D0CDB7DEB7FB018281B9
:100D50009381BE016F5F7F4F0E94B708882311F413
:100D600081E107C0CE01019667E571E00E94FC07B2
:100D700080E026960FB6F894DEBF0FBECDBFCF91B0
:100D8000DF9108950E94C90F80E008950E94071026
:100D900080E008950E94710980E008950E94800912
:100DA0008111806208950E94B109811180620895C5
:100DB0000E944B0980E0089582E0809342010895EB
:100DC00083E080934201089510924201089581E0EA
:100DD00080934201089590E080914301882309F4B3
:100DE00091E09093430108950E943A0D089581E0A7
:100DF0000E94350D089580E00E94350D08950E94EF
:100E0000C90F08950E940710089508950895089540
:100E100006960E941C0808951F93CF93DF93FC0150
:100E20008081880F880F8C73EF01C80FD11D8185D9
:100E3000813141F4CE010E941C08CE0102960E942D
:100E40001C0818C08630B1F4CE010E941C08CE01E7
:100E500002960E941C08CE010C960E941C08182FB6
:100E6000CE0104960E942A0814FF04C0CE01089601
:100E70000E942A08DF91CF911F910895CF93DF93AD
:100E8000EC012E960C960E941C0828E086309207F2
:100E900021F4CE010E94080706C08050984019F442
:100EA000CE010E940C07DF91CF910895F894A89588
:100EB00014BEE0E6F0E0808188618083108278943F
:100EC0000E94F601A7E2B0E08C91807E8C93E8E26C
:100ED000F0E08081807E80838C9186608C9380811D
:100EE0008B6180838FEF8AB98C9180628C93E6E26C
:100EF000F0E08081806280830E94AA090E944B09F1
:100F000080914201823029F0833031F0813051F4F8
:100F100006C00E944A0DF4CF0E94300EF1CF0E940D
:100F20006A05EECF0E947B04EBCF8F929F92AF9227
:100F3000BF92CF92DF92EF92FF920F931F938C019B
:100F40005B014A01069662E070E00E942608CC240C
:100F5000DD246894C3F8C00ED11EB8016E5E7F4FC9
:100F6000C6010E94FC070F2EFEE0EF2EFF24F02D9D
:100F7000E00EF11E085E1F4FC701B8010E940B086A
:100F8000C501B6010E94FC07C401B7010E940B080D
:100F90001F910F91FF90EF90DF90CF90BF90AF9097
:100FA0009F908F9008950F931F93CF93DF93EC0141
:100FB0006C31710510F480E01AC00E941C088C018D
:100FC000CE0102960E941C082C813D810130110542
:100FD00061F48050984049F4263039F490E0343080
:100FE00009F091E081E0892702C080E090E0DF9184
:100FF000CF911F910F910895AC0125E0822F90E0D1
:10100000DB01A80FB91FFA01E80FF91F80818C934B
:101010002150A0F70895FC01DB01838113968C9386
:101020001397828112968C931297818111968C93DB
:10103000119780818C930895FC01218130E090818B
:1010400080E0282B392B822F932F0895FC01708389
:1010500061830895FC01238130E040E050E080810D
:1010600090E0A0E0B0E0B82FAA2799278827282B86
:10107000392B4A2B5B2B818190E0A0E0B0E0DC01B2
:1010800099278827282B392B4A2B5B2B828190E0CC
:10109000A0E0B0E0BA2FA92F982F8827282B392B52
:1010A0004A2B5B2B622F732F842F952F0895FC0101
:1010B000872F9927AA27BB278083CB01AA27BB2785
:1010C0008183BB27A72F962F852F82834383089583
:1010D000AC0120E030E0FA01E20FF31FDB01A20FC8
:1010E000B31F90818C91981711F080E008952F5FC5
:1010F0003F4F2630310579F781E00895AC0120E0BB
:1011000030E0FA01E20FF31FDB01A20FB31F908161
:101110008C91981711F080E008952F5F3F4F243095
:10112000310579F781E00895EF92FF920F931F93B5
:10113000CF93DF9320912401309125018C01E901A7
:10114000EE24FF246894E4F8E20EF31EF801819186
:101150008F01BE010E94F1022496CE15DF05B1F782
:10116000DF91CF911F910F91FF90EF900895AF9273
:10117000BF92CF92DF92EF92FF920F931F93DF9374
:10118000CF930F92CDB7DEB77C016B0100E010E08A
:101190005E010894A11CB11CC701B5010E946F0338
:1011A000882389F0F601E00FF11F898180830F5FAA
:1011B0001F4F0630110511F481E006C083E090E076
:1011C000E80EF91EE9CF80E00F90CF91DF911F91DB
:1011D0000F91FF90EF90DF90CF90BF90AF90089568
:1011E000AF92BF92CF92DF92EF92FF920F931F9335
:1011F000DF93CF930F92CDB7DEB77C016B0100E098
:1012000010E05E010894A11CB11CC701B5010E9449
:101210003804982F882391F0F601E00FF11F89819F
:1012200080830F5F1F4F0430110511F481E007C068
:10123000892F90E00196E80EF91EE7CF80E00F902D
:10124000CF91DF911F910F91FF90EF90DF90CF90A2
:10125000BF90AF900895EF92FF920F931F93CF939B
:10126000DF93E0903801F09039018C01C0E0D0E0CC
:10127000B7016C0F7D1FF80181918F010E94AF02B1
:101280002396C231D105A1F7DF91CF911F910F9124
:10129000FF90EF9008950895FC014FEF5FEF20E07D
:1012A00030E081914827842F82958427082E8695E7
:1012B00086958025082E869580258770042E452FDB
:1012C000869507948795502D482706948795502535
:1012D00048272F5F3F4F2331310519F7842F952F72
:1012E0000895A7E5B1E02BE933E04AE651E0F901C2
:1012F0002F5F3F4FE491ED93A417B507C1F7089511
:10130000EF92FF920F931F93F99B02C081E01DC0E3
:101310000F2EF7E5EF2EF1E0FF2EF02DC70160E074
:1013200070E043E150E00E94561083E190E00E949B
:1013300066108C01C7010E944C090817190711F4A7
:1013400080E003C00E94710982E01F910F91FF901D
:10135000EF9008950E948009882311F00E9471097E
:1013600008950F931F93F99B02C081E012C007E517
:1013700011E0C80160E070E043E150E00E946C10B1
:10138000C8010E944C09BC0183E190E00E948410D6
:1013900080E01F910F91089590934501809344013F
:1013A00070934701609346011AB8E8E2F0E080814B
:1013B0008B7F8083089586B1282F30E020713070B4
:1013C0003595279535952795359527953595279505
:1013D000220F331F8870880F880F822B0895E8E250
:1013E000F0E080818D7F808381E08A95F1F78081B4
:1013F000826080838091530190915401A0915501A6
:10140000B09156018093480190934901A0934A01FD
:10141000B0934B010895782F109252011092510110
:1014200040913A0150913B01E6E2F0E015C0808125
:10143000282F30E0C9018870907095958795959513
:10144000879595958795781711F481E0089524FD87
:1014500003C0862F836008958091510190915201BD
:101460008417950720F3862F826008952F923F926C
:101470004F925F926F927F928F929F92AF92BF92A4
:10148000CF92DF92EF92FF920F931F93DF93CF9350
:1014900000D0CDB7DEB710926A01349B02C0339BF7
:1014A00004C010926B0180E0ADC2A9B01A8219820B
:1014B00022E2A21619F084E4A81661F4E091440136
:1014C000F0914501CE0101960995813019F0809384
:1014D0006B0198C260905301709054018090550147
:1014E000909056011092850010928400E8E2F0E09E
:1014F000808184608083A2E2AA16A1F0AA1520F060
:10150000B1E1AB1649F475C0E3E3AE1609F47AC154
:10151000F4E4AF1609F4DDC0BB246894B2F8CC241F
:10152000DD24FCC1E980FA808FEF8AB981E060E2B6
:101530000E940B0AB82E21E0821709F057C0FBB8B1
:10154000E8E2F0E080818B7F808380E060E30E94AE
:101550000B0AB82E81E0B81609F048C0EBB8E8E2F3
:10156000F0E0808184608083C70101960F2EFEEF3A
:101570002F2EFFEF3F2EF02D282239222114310487
:1015800061F101E00F2EFAE7EF2EF1E0FF2EF02DD2
:10159000CC24DD240F2EF8E24F2E5524F02D14E03C
:1015A000802F60E40E940B0AB82EA1E08A17E1F4B4
:1015B000F7018081ABE2B0E08C93F201808181275A
:1015C00080830894C11CD11C2C143D0441F0089464
:1015D000E11CF11CF1E00F27E3CFCC24DD2481E0F6
:1015E00060E50E940B0AB82E1AB898C1CC24DD24FD
:1015F00095C181E060E20E940B0AB82E21E08217BB
:1016000009F064C009B1E8E2F0E080818B7F80835B
:1016100080E060E30E940B0AB82E81E0B81609F062
:1016200055C029B1902F80E030E0282B392BE8E21B
:10163000F0E0808194E089278083A5E02B3E3A0783
:1016400038F00F2EF5E0BF2EF02DCC24DD2466C13E
:10165000C90101960F2EFEEF2F2EFFEF3F2EF02D2A
:10166000282239222114310471F101E00F2EFAE70A
:10167000EF2EF1E0FF2EF02DCC24DD240F2EF8E22A
:101680004F2E5524F02D14E0802F60E40E940B0AA9
:10169000B82EB1E08B1709F041C1E9E2F0E080819A
:1016A000D7018C93F2018081812780830894C11C2B
:1016B000D11C2C143D0409F431C10894E11CF11C27
:1016C000F1E00F27E1CFCC24DD2428C1CC24DD2498
:1016D00025C1E980FA8081E060E20E940B0AB82E01
:1016E00021E0821709F08BC08FEF8AB9FBB8E8E2DE
:1016F000F0E080818B7F808380E060E30E940B0AB2
:10170000B82E81E0B81609F07AC0EBB8E8E2F0E054
:10171000808194E08927808381E060E40E940B0A45
:10172000B82EA1E08A1709F06AC0C7010196AC0182
:1017300056954795F894E8E2F0E0808194E0892797
:1017400080834115510591F10AE711E020E030E076
:101750009FE06BE270E0E6E2F0E0892F8A95F1F716
:10176000D8018C91DB018C93808183FF03C0808141
:1017700084FDFACF808184FF1BC0892F8A95F1F701
:10178000D80111968C91DB018C93808183FD03C07D
:10179000808184FDFACF808184FF0AC02F5F3F4F94
:1017A0002417350728F40E5F1F4FD7CF20E030E015
:1017B000E6E2F0E0A8E2B0E0789403C0808184FF24
:1017C000FBCF808183FDFACF8C9184608C9303C022
:1017D000808184FFF1CF808183FFFACF2417350702
:1017E00020F40F2EF2E4BF2EF02DE8E2F0E080812D
:1017F0008B7F80831AB86901CC0CDD1C8FC0CC2490
:10180000DD248CC081E060E20E940B0AB82EB1E0BA
:101810008B1709F081C009B1E8E2F0E080818B7F8D
:10182000808380E060E30E940B0AB82EE1E08E170F
:1018300009F072C029B1902F80E030E0822B932B09
:10184000F5E08B3E9F0738F00F2EF5E0BF2EF02D10
:10185000CC24DD2463C00196BC0176956795F8948D
:10186000E8E2F0E0808194E08927808361157105CA
:1018700029F42DC0808184FD09C00EC00AE711E063
:1018800020E030E0E6E2F0E049E250E0808183FDD4
:1018900003C0808184FDEECFDA018C91D8018C9356
:1018A00003C0808184FF06C0808183FF03C08081E4
:1018B00084FDF7CFDA018C91D80111968C932F5FBC
:1018C0003F4F2617370718F40E5F1F4FDFCF78946E
:1018D000E6E2F0E0A8E2B0E094E0808183FD03C09E
:1018E000808184FDFACF808184FF09C08C91892793
:1018F0008C93808183FF03C0808184FDFACF808137
:1019000084FFEBCFE8E2F0E0808194E089278083D8
:101910006B01CC0CDD1C02C0CC24DD2410925201E2
:101920001092510120913A0130913B01E6E2F0E042
:1019300003C0808184FF07C08091510190915201C2
:1019400082179307B0F3E8E2F0E080818B7F808319
:10195000E0908400F0908500B1E0BB1671F4E1E105
:10196000AE1621F0F3E3AF1609F061C0E091460135
:10197000F0914701C6010995B82E0AE611E0F80179
:10198000A192B082D8011596DC92CE921497179648
:10199000FC92EE921697C601B7010E948502F801EB
:1019A00091878087D8011C966D927D928D929C9232
:1019B0001F97B1E1AB1631F0E3E3AE1619F080E00A
:1019C00090E002C081E090E0ECE6F1E081931082CB
:1019D000882311F081E0808380916C01882319F0C5
:1019E00020E030E00AC020917601309177018091AB
:1019F000480190914901281B390B309375012093C0
:101A000074018B2D0F900F90CF91DF911F910F914B
:101A1000FF90EF90DF90CF90BF90AF909F908F900E
:101A20007F906F905F904F903F902F9008950AE6BF
:101A300011E0F801A19281E08083D8011596DC9233
:101A4000CE9214971796FC92EE921697C601B701A4
:101A50000E948502F80191878087D8011C966D92BB
:101A60007D928D929C921F97AACF80934E010E94E7
:101A7000EF09089590E080914D01882309F491E0E9
:101A800090934D01992329F081E00E94350D0E9429
:101A9000C90F08950F931F93CF93DF930E94C90F2F
:101AA00082EC9DE06FE87DE00E94CC0910924D0130
:101AB00010924C0110924E01CCE6D1E00AE611E002
:101AC00021C00E94020E8130A9F480914E0188232A
:101AD00019F4C8010E9407078881882399F0809132
:101AE0004D01882321F081E00E94350D0BC010923A
:101AF0004E0108C0882331F080914D01882311F0F8
:101B00000E943A0D809142018230D9F281E060E07A
:101B10000E940810DF91CF911F910F910895CF93EC
:101B2000DF93C0E0D0E020915F0130916001281781
:101B3000390711F0C1E0D0E08AE791E060E071E0A0
:101B40000E946808882309F4219680E891E067E5FF
:101B500071E00E946808882309F42196E1E6F1E02B
:101B60002081918180918601891719F480918701E4
:101B700082132196CD2B11F481E001C086E0DF9124
:101B8000CF910895EF92FF920F931F93CF93DF931E
:101B9000EC0180915F0190916001998388838B5E55
:101BA000954010F085E027C00F2EFAE7EF2EF1E008
:101BB000FF2EF02D80E091E0B7010E94FC0707E5C1
:101BC00011E0B7016A5F7F4FC8010E94FC07065F02
:101BD0001F4FF80190818181F70184879587888163
:101BE00099810E9739F0E8E8F1E020E021932F5F2A
:101BF0000197E1F781E0DF91CF911F910F91FF9065
:101C0000EF9008950F930E94360A082F882329F138
:101C1000813091F4EDE6F1E0618172814581568178
:101C200080810E94DE0F809143018823B1F08AE613
:101C300091E00E94070711C08AE691E00E94070721
:101C4000E0916D018CE0E89FF0011124EC59F84F10
:101C500086819781019697838683802F0F910895BF
:101C6000EF92FF920F931F93DF93CF9300D0CDB7E6
:101C7000DEB70E947C0E682F87E591E00E94A70FD7
:101C80000E94C90F7E010894E11CF11C02E817E0D4
:101C900020C00E94B20F8823E1F0C7010E94760F96
:101CA000882389F489819A810E94230F882389F4EB
:101CB00089819A810E94890E882359F089819A81AD
:101CC0000E94F60E06C0F8018081918101969183F1
:101CD0008083809142018330E1F280E061E00E94E4
:101CE00008100E94A90F0F900F90CF91DF911F91C4
:101CF0000F91FF90EF90089580915D01882311F07E
:101D00009CE001C094E080915E0181119160892F77
:101D100008958F929F92AF92BF92CF92DF92EF92EF
:101D2000FF920F931F93CF93DF9308E811E0F80120
:101D30008081880F880F8C735801A80EB11CC501D3
:101D400002960E941C08EC01005F1F4F83E691E0A1
:101D5000B8010E947E088823D9F180906701909095
:101D600068018C169D06A1F504E911E0B8016C5FCD
:101D70007F4FC8010E940B080F2EF3E6CF2EF1E033
:101D8000DF2EF02DC601B8010E940B08C5010E948C
:101D90001C087C01C501B4010E942608C5010296F9
:101DA000B7010E9426080F2EFCEEEF2EFFEFFF2E4C
:101DB000F02DE00EF11E0A511040C701B8010E943B
:101DC000FC07C6010C97B7010E94FC0781E001C027
:101DD00080E0DF91CF911F910F91FF90EF90DF9006
:101DE000CF90BF90AF909F908F900895FF920F93E8
:101DF0001F93CF93DF93EC0104E810E0F801118208
:101E000010828AE791E0BE010E94AE0FF82EF80121
:101E100060817181CE010E948502AC01FF2029F40E
:101E200083E0BE010E94DE0F07C0EEE8F7E080818C
:101E300091810196918380838F2DDF91CF911F91A6
:101E40000F91FF900895EF92FF920F931F93CF93FE
:101E5000DF93EC0186E891E00E941C0886509840D0
:101E6000D9F5CF30D105C0F1BE016E50704088E881
:101E700091E00E94D307882389F18EE891E00E94C7
:101E80001C08019759F580EA91E063E671E00E9431
:101E90007E08882319F108E811E00F2EF7E5EF2EF0
:101EA000F1E0FF2EF02DA701445F5F4FC801B7019D
:101EB0000E9495070E50104080E091E0B8010E940A
:101EC000FC070A5F1F4FC701B8010E94FC07CE0143
:101ED0000E94F60E81E003C080E001C081E0DF9146
:101EE000CF911F910F91FF90EF900895FF920F9364
:101EF0001F93CF93DF93EC0104E810E0F801118207
:101F000010828AE791E06AEE75E0AE010E94B00FA0
:101F1000F82EF80160817181888199810E94850283
:101F2000AC01FF2031F46881798182E00E94DE0FEC
:101F300007C0E2E8F7E08081918101969183808378
:101F40008F2DDF91CF911F910F91FF90089580E029
:101F50000895089580E0089580E0089580E0089550
:101F600080E0089580E00895E4E2F0E080818E62F0
:101F7000808380818E768083E5E2F0E08081877DBA
:101F8000808380818460808380E58CBD81E08DBD0D
:101F90000895E4E6F7E024E937E010821182128226
:101FA0001382158214821782168211861086138678
:101FB00012863C96E217F30781F708950F931F935B
:101FC0009CE0899FC0011124FC01EC59F84F8481E9
:101FD00095810196958384838B0120E030E0808198
:101FE0009181A281B381800F911FA21FB31F8083B3
:101FF0009183A283B383828593858417950710F418
:10200000538742871F910F91089508950895089569
:102010000895629FD001739FF001829FE00DF11D32
:10202000649FE00DF11D929FF00D839FF00D749F52
:10203000F00D659FF00D9927729FB00DE11DF91FFE
:10204000639FB00DE11DF91FBD01CF01112408955B
:10205000991B79E004C0991F961708F0961B881FFA
:102060007A95C9F780950895A1E21A2EAA1BBB1B89
:10207000FD010DC0AA1FBB1FEE1FFF1FA217B30754
:10208000E407F50720F0A21BB30BE40BF50B661F6A
:10209000771F881F991F1A9469F76095709580952E
:1020A00090959B01AC01BD01CF010895DC01CB01EE
:1020B000FC01F999FECF06C0F2BDE1BDF89A319658
:1020C00000B40D9241505040B8F70895A8E1B0E037
:1020D00042E050E00C945810DC01CB0103C02D917C
:1020E0000E94771041505040D0F70895262FF9995B
:1020F000FECF1FBA92BD81BD20BD0FB6F894FA9AEB
:10210000F99A0FBE019608950E947610272F0C941D
:062110007710F894FFCFE8
:10211600FFFFFFFFFFFF00000000000000000000BF
:10212600FFFFFFFF3030302E3030302E3030302E73
:1021360030303000140130303A30303A30303A30F6
:0C214600303A30303A3030002601881367
:00000001FF
