:100000000C94D8010C94F5010C94F5010C94F501B5
:100010000C94F5010C94F5010C94F5010C94F50188
:100020000C94F5010C94F5010C94F5010C9421024B
:100030000C94F5010C94F5010C94F5010C94F50168
:100040000C94F5010C94F5010C94F5010C94F50158
:100050000C94F5010C94F5010C94F5010C94F50148
:100060000C94F5010C94F501D4003E06D600E8008E
:100070004006EA00FC004206FE00150121071701B8
:1000800028011C072B0145011707480164011307CC
:10009000670183010F07860196010B079901AA01E9
:1000A000E806AC01C8019F06CB01E4019F06E70109
:1000B000FD0164060002170264061A0233024406B8
:1000C00036024B0264064E0260029F066302000085
:1000D0000000000071007175697420636F6D6D61BF
:1000E0006E64206D6F6465007200736F66742072B9
:1000F0006573657420646576696365007600707267
:10010000696E74206669726D7761726520766572BA
:1001100073696F6E0070007072696E742070617226
:10012000616D65746572730070730073617665202C
:10013000706172616D657465727320746F204545DE
:1001400050524F4D00706C006C6F61642070617292
:10015000616D65746572732066726F6D20454550E0
:10016000524F4D0070720072657365742070617239
:10017000616D657465727320746F20646566617566
:100180006C740073640064756D70207374617469BD
:10019000737469637300737200726573657420739E
:1001A000746174697374696373006D006D616320B9
:1001B00061646472657373206F6620646576696339
:1001C00065203C6D61633E00666400736574206663
:1001D000756C6C206475706C65206D6F6465205B58
:1001E0006F6E5D0066630073657420666C6F7720C8
:1001F000636F6E74726F6C205B6F6E5D00746C0069
:1002000074657374207061636B6574206C656E67D0
:100210007468203C6E3E00747400746573742070C2
:1002200061636B6574206574682074797065203C27
:100230006E3E0074690074657374204950206164D7
:100240006472657373203C69703E0074700074655D
:1002500073742055445020706F7274203C6E3E00C1
:10026000746D0074657374206D6F6465205B307C01
:10027000315D00312D07AA02323007BC0233290755
:10028000D302342507E702734B07FA025348070AE3
:10029000037634071B0370440731035040075203B1
:1002A000613D077C030000000000656E74657220EC
:1002B000627269646765206D6F646500656E746560
:1002C00072206272696467652074657374206D6F53
:1002D000646500656E7465722050494F20746573C3
:1002E00074206D6F646500656E74657220504220E5
:1002F00074657374206D6F64650064756D70207330
:1003000074617469737469637300726573657420D2
:100310007374617469737469637300746F67676C75
:100320006520766572626F7365206F757470757481
:100330000073656E6420612074657374207061635E
:100340006B65742028706274657374206D6F6465CA
:10035000290073656E642061207465737420706178
:10036000636B6574202873696C656E74292028702E
:100370006274657374206D6F64652900746F6767BC
:100380006C65206175746F2073656E6420287062DF
:1003900074657374206D6F646529001A11AFA047EE
:1003A000110000EA05FDFFC0A802DE901A0000005F
:1003B00011241FBECFEFD8E0DEBFCDBF11E0A0E01B
:1003C000B1E0E2EBF1E202C005900D92AC33B1076F
:1003D000D9F717E0ACE3B1E001C01D92A739B1072E
:1003E000E1F70E949F070C94D7100C940000F8943A
:1003F00088E08093800081E08093810080ED97E029
:100400009093890080938800109285001092840058
:1004100082E080936F00109251011092500110926F
:100420004F0110924E0110925201109253011092FE
:1004300054011092550110923D0110923C017894A4
:1004400008951F920F920FB60F9211248F939F93CE
:10045000AF93BF9310928500109284008091500159
:100460009091510101969093510180935001809198
:10047000520190915301A0915401B0915501019600
:10048000A11DB11D8093520190935301A09354017B
:10049000B093550180913C0190913D01019690935C
:1004A0003D0180933C018436910568F010923D0136
:1004B00010923C0180914E0190914F0101969093D2
:1004C0004F0180934E01BF91AF919F918F910F90FB
:1004D0000FBE0F901F9018959C0110924F01109223
:1004E0004E0180914E0190914F0182179307C8F3FE
:1004F00008959C0110925101109250018091500179
:100500009091510182179307C8F30895CF93DF9319
:10051000EB016115710519F420E030E016C0BC0153
:1005200080E090E020EA36E841E050E00E94571079
:100530009E0140E050E0220F331F441F551F220F41
:10054000331F441F551F0E948210822F932FDF916B
:10055000CF9108958A3010F4805D0895895C0895E4
:10056000FF920F931F93F82E8B0182958F700E943C
:10057000AA02F80180838F2D8F700E94AA02F801D1
:1005800081831F910F91FF900895FF920F931F9306
:10059000F82E8B01892F0E94B0020E5F1F4F8F2D06
:1005A000B8010E94B0021F910F91FF900895CF9261
:1005B000DF92EF92FF920F931F936B017C018A01F0
:1005C000AA27BB27BA010E94C5020C5F1F4FC601B4
:1005D000B8010E94C5021F910F91FF90EF90DF902C
:1005E000CF900895282FFB0164E60E947610392FE2
:1005F000822F0E947610805D8083832F6AE00E94A4
:100600007610805D8183832F0E947610905D9283A7
:100610000895AF92BF92CF92DF92EF92FF920F9325
:100620001F93CF93DF93C62ED72EE82EF92EB22E2E
:10063000822F90E00197EA01C80FD91F021708F432
:100640002196BB2041F110E00F2EFEE2AF2EF02DDF
:10065000101711F4A88221976C2D7D2D8E2D9F2DC2
:100660002AE030E040E050E00E948210605D688344
:100670001F5F1B1580F421976C2D7D2D8E2D9F2DD6
:100680002AE030E040E050E00E948210C22ED32EDB
:10069000E42EF52EDDCFDF91CF911F910F91FF90CA
:1006A000EF90DF90CF90BF90AF900895FB01982F0F
:1006B0008156863020F4865F808381E00895892FFB
:1006C0008154863020F4865F808381E00895892FED
:1006D00080538A3010F080E00895808381E008958F
:1006E000EF92FF920F931F93DF93CF930F92CDB7AB
:1006F000DEB78C017B01FC018081BE016F5F7F4F03
:100700000E945603882391F089818295807F898396
:10071000F8018181B7010E945603882339F0F7015F
:1007200080819981892B808381E001C080E00F90D6
:10073000CF91DF911F910F91FF90EF900895EF926D
:10074000FF920F931F93DF93CF9300D0CDB7DEB707
:100750008C017B01BE016F5F7F4F0E947003882375
:10076000A1F0C8010296BE016E5F7F4F0E94700328
:10077000882359F0998180E02A8130E0822B932BE5
:10078000F7019183808381E001C080E00F900F909A
:10079000CF91DF911F910F91FF90EF900895EF920D
:1007A000FF920F931F93DF93CF9300D000D0CDB76C
:1007B000DEB78C017B01BE016F5F7F4F0E9470032B
:1007C000882309F44AC0C8010296BE016E5F7F4FBC
:1007D0000E947003882309F440C0C8010496BE013A
:1007E0006D5F7F4F0E9470038823B9F1C8010696A0
:1007F000BE016C5F7F4F0E947003882371F12981D5
:1008000030E040E050E0522F4427332722278A81EE
:1008100090E0A0E0B0E0DC0199278827282B392B55
:100820004A2B5B2B8C8190E0A0E0B0E0282B392B89
:100830004A2B5B2B8B8190E0A0E0B0E0BA2FA92F70
:10084000982F8827282B392B4A2B5B2BF7012083E5
:1008500031834283538381E001C080E00F900F9089
:100860000F900F90CF91DF911F910F91FF90EF901C
:100870000895DB01FC0130E020E04AE08081982F00
:1008800090539A3050F4349F802D1124382F390F13
:100890002F5F3196233091F701C021113C93822FB5
:1008A0000895F8942CE088E190E00FB6F894A895AC
:1008B000809360000FBE20936000FFCF80913E01C7
:1008C000882329F481E080933E010E94600D089501
:1008D000CF92DF92FF920F931F93DF93CF9300D0BD
:1008E000CDB7DEB78BE295E064EC74E00E94130AAA
:1008F0000E94CA0E682F09E511E0C8010E94F50F99
:100900000E9417101092560110923E01F801F680D5
:1009100010E06E010894C11CD11C24C00E94500E2E
:100920000E940010082F882351F08091560180FF0B
:1009300003C00E945E0403C0C6010E94C40FFF20D2
:1009400089F0112341F0002369F480E060E00E9407
:10095000F80F10E007C0002329F080E061E00E945A
:10096000F80F11E0809141018823C1F20E945510D7
:100970000E94F70F0F900F90CF91DF911F910F9171
:10098000FF90DF90CF9008950F931F93CF93DF9345
:10099000EC0189E891E00E9463082FEF8D3F9207F8
:1009A00099F12FEF8E3F920728F48C5F9F4F09F04B
:1009B00040C032C02FEF8E3F920701F18F5F9F4FF3
:1009C000C1F58091560185608093560189E591E0DB
:1009D00063E871E00E94AF088823B9F509E511E0EA
:1009E00083E891E0B8010E9443080E94F8090E9440
:1009F000F70FC80164E00E94F50F27C080915601EF
:100A00008E7F8093560121C0809156018260809331
:100A100056010E945E0419C0CE010E94EF0580912C
:100A2000560188608093560110923E010E945E0438
:100A30000CC0CE010E94440F8091560180FD05C07C
:100A40008660809356010E945E0481E0DF91CF9121
:100A50001F910F9108950F931F93CF93DF93EC0194
:100A60008091560181FF1CC08D7F809356010DE758
:100A700011E080E091E0B8010E944308B8016A5F8C
:100A80007F4F89E591E00E944308C8010C966FEF03
:100A90007FEF0E946D088EE090E09983888313C0F9
:100AA00083FF07C0809157019091580199838883F3
:100AB0000AC0CE010E94C40F8091560182FF03C07C
:100AC0008B7F8093560110923E0181E0DF91CF91A0
:100AD0001F910F9108950F931F93DF93CF9300D031
:100AE000CDB7DEB783EB95E06FEC75E00E94130A9B
:100AF0000E94CA0E682F89E591E00E94F50F0E94BE
:100B000017108E010F5F1F4F1FC00E94500E0E94D2
:100B100000108823C9F0C8010E94C40F8823A1F4E3
:100B200089819A810E94710F882371F489819A8149
:100B30000E94D70E882341F089819A8190934001C9
:100B400080933F010E94600D809141018130E9F264
:100B50000E9455100E94F70F0F900F90CF91DF91D8
:100B60001F910F910895FC0180913F0190914001E8
:100B7000918380838B5E954010F085E0089580918D
:100B80006C01882331F489E891E06DEF7FEF0E94DA
:100B90006D081092400110923F0181E00895CF93BB
:100BA000DF93EC0189E891E00E9463089C01809149
:100BB0006C01882351F42D5F3F4F69F489E891E07F
:100BC00060E078E00E946D0803C02050384019F4BE
:100BD000CE010E94440F81E0DF91CF9108951F93D1
:100BE000EDE7F1E09081892F80688083933041F0B8
:100BF0009430B1F0913009F03FC00E9451043CC0E4
:100C0000ABE8B1E0E9E5F1E084E101900D928150BB
:100C1000E1F782E290E090935801809357012CC055
:100C200080917E018150823010F013E01DC0A9E553
:100C3000B1E0EBE8F1E084E101900D928150E1F741
:100C400080917E01823031F40E94F809882311F0EE
:100C500015E001C011E00E94F70F0E94CA0E682F34
:100C600089E591E00E94F50F10937E018EE090E0FF
:100C700090935801809357011F91089581E0089542
:100C800082E0089580E00895DF93CF9300D000D0F4
:100C9000CDB7DEB7FB0182819381BE016F5F7F4FCD
:100CA0000E943709882311F481E107C0CE01019623
:100CB00065E671E00E94520880E00F900F900F905F
:100CC0000F90CF91DF9108950F931F93DF93CF93F0
:100CD00000D0CDB7DEB7282FDB01ED91FC91119745
:100CE00091818081843719F5903759F0943719F044
:100CF0009C36E9F403C003E611E005C001E611E00B
:100D000002C009E611E0213091F012968D919C917C
:100D10001397BE016F5F7F4F0E949F03882339F0B6
:100D200089819A81F8019183808380E001C081E10B
:100D30000F900F90CF91DF911F910F910895EF9237
:100D4000FF921F93DF93CF930F92CDB7DEB7DB01F6
:100D5000ED91FC91119790812181943741F42D36CA
:100D600071F5ECE6F1E090817F0110E011C096365C
:100D700031F5233641F0243611F5E0E6F1E09081BB
:100D80007F0113E005C0EFE5F1E090817F0113E002
:100D9000813031F4F7011082992391F4808310C0DF
:100DA00012968D919C911397BE016F5F7F4F0E94A9
:100DB0007003882321F08981F701808301C011E14C
:100DC000812F0F90CF91DF911F91FF90EF900895A9
:100DD000DF93CF9300D000D000D0CDB7DEB7FB01BA
:100DE00082819381BE016F5F7F4F0E94FE0888233E
:100DF00011F481E107C0CE01019669E571E00E941E
:100E0000430880E026960FB6F894DEBF0FBECDBF34
:100E1000CF91DF9108950E94171080E008950E94FD
:100E2000551080E008950E94B80980E008950E945E
:100E3000C7098111806208950E94F80981118062BA
:100E400008950E94920980E0089582E08093410114
:100E5000089583E08093410108951092410108951F
:100E600081E080934101089590E0809142018823C0
:100E700009F491E09093420108950E94880D08952D
:100E800081E00E94830D089580E00E94830D089503
:100E90000E94171008950E9455100895089508950E
:100EA000089506960E94630808951F93CF93DF93D9
:100EB000FC018081880F880F8C73EF01C80FD11D52
:100EC0008185813141F4CE010E946308CE010296F2
:100ED0000E94630818C08630B1F4CE010E946308F6
:100EE000CE0102960E946308CE010C960E94630810
:100EF000182FCE0104960E94710814FF04C0CE0181
:100F000008960E947108DF91CF911F910895CF93A9
:100F1000DF93EC012E960C960E94630828E0863041
:100F2000920721F4CE010E94510706C080509840DC
:100F300019F4CE010E945507DF91CF910895F894DE
:100F4000A89514BEE0E6F0E080818861808310827D
:100F500078940E94F701A7E2B0E08C91807E8C9398
:100F6000E8E2F0E08081807E80838C9186608C93C3
:100F700080818B6180838FEF8AB98C9180628C93A2
:100F80008081806280830E94F1090E949209809191
:100F90004101823029F0833031F0813051F406C0B4
:100FA0000E94980DF4CF0E947E0EF1CF0E946B0537
:100FB000EECF0E946804EBCF8F929F92AF92BF92C8
:100FC000CF92DF92EF92FF920F931F938C015B0100
:100FD0004A01069662E070E00E946D08CC24DD2490
:100FE0006894C3F8C00ED11EB8016E5E7F4FC60173
:100FF0000E9443080F2EFEE0EF2EFF24F02DE00E9E
:10100000F11E085E1F4FC701B8010E945208C501BA
:10101000B6010E944308C401B7010E9452081F9103
:101020000F91FF90EF90DF90CF90BF90AF909F9087
:101030008F9008950F931F93CF93DF93EC016C3142
:10104000710510F480E01AC00E9463088C01CE0183
:1010500002960E9463082C813D810130110561F4E4
:101060008050984049F4263039F490E0343009F04B
:1010700091E081E0892702C080E090E0DF91CF918C
:101080001F910F910895AC0125E0822F90E0DB01C4
:10109000A80FB91FFA01E80FF91F80818C93215026
:1010A000A0F70895FC01DB01838113968C931397BD
:1010B000828112968C931297818111968C9311974D
:1010C00080818C930895FC01218130E0908180E043
:1010D000282B392B822F932F0895FC017083618375
:1010E0000895FC01238130E040E050E0808190E0F1
:1010F000A0E0B0E0B82FAA2799278827282B392B02
:101100004A2B5B2B818190E0A0E0B0E0DC019927C5
:101110008827282B392B4A2B5B2B828190E0A0E07B
:10112000B0E0BA2FA92F982F8827282B392B4A2BCC
:101130005B2B622F732F842F952F0895FC01872F2F
:101140009927AA27BB278083CB01AA27BB278183A6
:10115000BB27A72F962F852F828343830895AC0149
:1011600020E030E0FA01E20FF31FDB01A20FB31F12
:1011700090818C91981711F080E008952F5F3F4F78
:101180002630310579F781E00895AC0120E030E0A8
:10119000FA01E20FF31FDB01A20FB31F90818C91C4
:1011A000981711F080E008952F5F3F4F24303105EC
:1011B00079F781E00895EF92FF920F931F93CF93F9
:1011C000DF9320912401309125018C01E901EE2467
:1011D000FF246894E4F8E20EF31EF80181918F0178
:1011E000BE010E94F2022496CE15DF05B1F7DF9111
:1011F000CF911F910F91FF90EF900895AF92BF9202
:10120000CF92DF92EF92FF920F931F93DF93CF93D2
:101210000F92CDB7DEB77C016B0100E010E05E01FC
:101220000894A11CB11CC701B5010E94700388235A
:1012300089F0F601E00FF11F898180830F5F1F4F56
:101240000630110511F481E006C083E090E0E80E5D
:10125000F91EE9CF80E00F90CF91DF911F910F91A0
:10126000FF90EF90DF90CF90BF90AF900895AF9236
:10127000BF92CF92DF92EF92FF920F931F93DF9373
:10128000CF930F92CDB7DEB77C016B0100E010E089
:101290005E010894A11CB11CC701B5010E9439046C
:1012A000982F882391F0F601E00FF11F8981808348
:1012B0000F5F1F4F0430110511F481E007C0892F23
:1012C00090E00196E80EF91EE7CF80E00F90CF91F5
:1012D000DF911F910F91FF90EF90DF90CF90BF9023
:1012E000AF900895EF92FF920F931F93CF93DF93E8
:1012F000E0903801F09039018C01C0E0D0E0B701F6
:101300006C0F7D1FF80181918F010E94B00223961E
:10131000C231D105A1F7DF91CF911F910F91FF90BD
:10132000EF9008950895FC014FEF5FEF20E030E06B
:1013300081914827842F82958427082E869586954B
:101340008025082E869580258770042E452F86954A
:1013500007948795502D4827069487955025482750
:101360002F5F3F4F2431310519F7842F952F0895B2
:10137000A9E5B1E02BE933E04DE651E0F9012F5F3B
:101380003F4FE491ED93A417B507C1F70895EF928D
:10139000FF920F931F93F99B02C081E01DC00F2E97
:1013A000F9E5EF2EF1E0FF2EF02DC70160E070E0CF
:1013B00044E150E00E94A41084E190E00E94B41047
:1013C0008C01C7010E9493090817190711F480E0E6
:1013D00003C00E94B80982E01F910F91FF90EF9027
:1013E00008950E94C709882311F00E94B809089542
:1013F0000F931F93F99B02C081E012C009E511E031
:10140000C80160E070E044E150E00E94BA10C801F9
:101410000E949309BC0184E190E00E94D21080E018
:101420001F910F910895909344018093430170930D
:101430004601609345011AB8E8E2F0E080818B7FB5
:101440008083089586B1282F30E020713070359563
:101450002795359527953595279535952795220F0D
:10146000331F8870880F880F822B0895782F109271
:1014700051011092500140913A0150913B01E6E236
:10148000F0E015C08081282F30E0C901887090708D
:10149000959587959595879595958795781711F4E6
:1014A00081E0089524FD03C0862F83600895809114
:1014B0005001909151018417950720F3862F826087
:1014C00008952F923F924F925F926F927F928F92E8
:1014D0009F92AF92BF92CF92DF92EF92FF920F93C3
:1014E0001F93DF93CF9300D0CDB7DEB710926D017D
:1014F000349B02C0339B04C010926E0180E0ADC2E9
:10150000A9B01A82198222E2A21619F084E4A81660
:1015100061F4E0914301F0914401CE0101960995F7
:10152000813019F080936E0198C2609052017090E2
:1015300053018090540190905501109285001092B3
:101540008400E8E2F0E0808184608083A2E2AA1651
:10155000A1F0AA1520F0B1E1AB1649F475C0E3E3A0
:10156000AE1609F47AC1F4E4AF1609F4DDC0BB2469
:101570006894B2F8CC24DD24FCC1E980FA808FEFB6
:101580008AB981E060E20E94360AB82E21E0821713
:1015900009F057C0FBB8E8E2F0E080818B7F8083E0
:1015A00080E060E30E94360AB82E81E0B81609F0A8
:1015B00048C0EBB8E8E2F0E0808184608083C70136
:1015C00001960F2EFEEF2F2EFFEF3F2EF02D28223B
:1015D00039222114310461F101E00F2EFDE7EF2ED5
:1015E000F1E0FF2EF02DCC24DD240F2EF8E24F2E5B
:1015F0005524F02D14E0802F60E40E94360AB82EA6
:10160000A1E08A17E1F4F7018081ABE2B0E08C93AE
:10161000F2018081812780830894C11CD11C2C1485
:101620003D0441F00894E11CF11CF1E00F27E3CFE9
:10163000CC24DD2481E060E50E94360AB82E1AB879
:1016400098C1CC24DD2495C181E060E20E94360A75
:10165000B82E21E0821709F064C009B1E8E2F0E099
:1016600080818B7F808380E060E30E94360AB82E01
:1016700081E0B81609F055C029B1902F80E030E024
:10168000282B392BE8E2F0E0808194E089278083E1
:10169000A5E02B3E3A0738F00F2EF5E0BF2EF02DD7
:1016A000CC24DD2466C1C90101960F2EFEEF2F2E3A
:1016B000FFEF3F2EF02D282239222114310471F141
:1016C00001E00F2EFDE7EF2EF1E0FF2EF02DCC24F0
:1016D000DD240F2EF8E24F2E5524F02D14E0802F3C
:1016E00060E40E94360AB82EB1E08B1709F041C1C0
:1016F000E9E2F0E08081D7018C93F20180818127BB
:1017000080830894C11CD11C2C143D0409F431C100
:101710000894E11CF11CF1E00F27E1CFCC24DD247B
:1017200028C1CC24DD2425C1E980FA8081E060E273
:101730000E94360AB82E21E0821709F08BC08FEF85
:101740008AB9FBB8E8E2F0E080818B7F808380E09B
:1017500060E30E94360AB82E81E0B81609F07AC01C
:10176000EBB8E8E2F0E0808194E08927808381E0B3
:1017700060E40E94360AB82EA1E08A1709F06AC018
:10178000C7010196AC0156954795F894E8E2F0E060
:10179000808194E0892780834115510591F10DE7FF
:1017A00011E020E030E09FE06BE270E0E6E2F0E084
:1017B000892F8A95F1F7D8018C91DB018C93808178
:1017C00083FF03C0808184FDFACF808184FF1BC02A
:1017D000892F8A95F1F7D80111968C91DB018C93B2
:1017E000808183FD03C0808184FDFACF808184FFE6
:1017F0000AC02F5F3F4F2417350728F40E5F1F4F95
:10180000D7CF20E030E0E6E2F0E0A8E2B0E0789464
:1018100003C0808184FFFBCF808183FDFACF8C9150
:1018200084608C9303C0808184FFF1CF808183FF2B
:10183000FACF2417350720F40F2EF2E4BF2EF02D37
:10184000E8E2F0E080818B7F80831AB86901CC0CDC
:10185000DD1C8FC0CC24DD248CC081E060E20E94BE
:10186000360AB82EB1E08B1709F081C009B1E8E261
:10187000F0E080818B7F808380E060E30E94360A05
:10188000B82EE1E08E1709F072C029B1902F80E0E8
:1018900030E0822B932BF5E08B3E9F0738F00F2E24
:1018A000F5E0BF2EF02DCC24DD2463C00196BC01F1
:1018B00076956795F894E8E2F0E0808194E08927D6
:1018C00080836115710529F42DC0808184FD09C0D4
:1018D0000EC00DE711E020E030E0E6E2F0E049E282
:1018E00050E0808183FD03C0808184FDEECFDA016A
:1018F0008C91D8018C9303C0808184FF06C08081C5
:1019000083FF03C0808184FDF7CFDA018C91D80179
:1019100011968C932F5F3F4F2617370718F40E5FF1
:101920001F4FDFCF7894E6E2F0E0A8E2B0E094E069
:10193000808183FD03C0808184FDFACF808184FF94
:1019400009C08C9189278C93808183FF03C080819B
:1019500084FDFACF808184FFEBCFE8E2F0E0808164
:1019600094E0892780836B01CC0CDD1C02C0CC2461
:10197000DD24109251011092500120913A013091D2
:101980003B01E6E2F0E003C0808184FF07C0809164
:1019900050019091510182179307B0F3E8E2F0E013
:1019A00080818B7F8083E0908400F0908500B1E09F
:1019B000BB1671F4E1E1AE1621F0F3E3AF1609F0C6
:1019C00061C0E0914501F0914601C6010995B82E2C
:1019D0000DE611E0F801A192B082D8011596DC92D3
:1019E000CE9214971796FC92EE921697C601B70105
:1019F0000E948602F80191878087D8011C966D921B
:101A00007D928D929C921F97B1E1AB1631F0E3E38A
:101A1000AE1619F080E090E002C081E090E0EFE6C1
:101A2000F1E081931082882311F081E0808380911E
:101A30006F01882319F020E030E00AC0209179017D
:101A400030917A018091470190914801281B390B10
:101A500030937801209377018B2D0F900F90CF91C9
:101A6000DF911F910F91FF90EF90DF90CF90BF908B
:101A7000AF909F908F907F906F905F904F903F902E
:101A80002F9008950DE611E0F801A19281E0808386
:101A9000D8011596DC92CE9214971796FC92EE928E
:101AA0001697C601B7010E948602F80191878087C8
:101AB000D8011C966D927D928D929C921F97AACF11
:101AC0000F931F9308E210E0F80180818D7F8083DF
:101AD00084E190E00E947902F80180818260808335
:101AE0008091520190915301A0915401B091550100
:101AF0008093470190934801A0934901B0934A0114
:101B00001F910F91089580934D010E94600D0895DB
:101B100090E080914C01882309F491E090934C016E
:101B2000992329F081E00E94830D0E9417100895E7
:101B30000F931F93CF93DF930E94171080E19EE0D5
:101B40006DED7DE00E94130A10924C0110924B0142
:101B500010924D01CFE6D1E00DE611E021C00E94C8
:101B6000500E8130A9F480914D01882319F4C801E9
:101B70000E9450078881882399F080914C01882326
:101B800021F081E00E94830D0BC010924D0108C02E
:101B9000882331F080914C01882311F00E94880D38
:101BA000809141018230D9F281E060E00E945610BC
:101BB000DF91CF911F910F910895CF93DF93C0E0F4
:101BC000D0E020916101309162012817390711F0AE
:101BD000C1E0D0E08DE791E060E071E00E94AF08E5
:101BE000882309F4219683E891E069E571E00E9479
:101BF000AF08882309F42196E3E6F1E02081918182
:101C000080918901891719F480918A0182132196A4
:101C1000CD2B11F481E001C086E0DF91CF910895D2
:101C2000EF92FF920F931F93CF93DF93EC0180917C
:101C3000610190916201998388838B5E954010F0D9
:101C400085E027C00F2EFDE7EF2EF1E0FF2EF02DEF
:101C500080E091E0B7010E94430809E511E0B70177
:101C60006A5F7F4FC8010E944308065F1F4FF8015B
:101C700090818181F70184879587888199810E976A
:101C800039F0EBE8F1E020E021932F5F0197E1F7D5
:101C900081E0DF91CF911F910F91FF90EF90089518
:101CA0000F930E94610A082F882329F1813091F453
:101CB000E0E7F1E0618172814581568180810E9477
:101CC0002C10809142018823B1F08DE691E00E94B2
:101CD000500711C08DE691E00E945007E09170011D
:101CE0008CE0E89FF0011124E959F84F8681978133
:101CF000019697838683802F0F910895EF92FF922C
:101D00000F931F93DF93CF9300D0CDB7DEB70E9420
:101D1000CA0E682F89E591E00E94F50F0E94171006
:101D20007E010894E11CF11C05E817E020C00E9428
:101D300000108823E1F0C7010E94C40F882389F4B2
:101D400089819A810E94710F882389F489819A81FF
:101D50000E94D70E882359F089819A810E94440FEE
:101D600006C0F801808191810196918380838091E2
:101D700041018330E1F280E061E00E9456100E9450
:101D8000F70F0F900F90CF91DF911F910F91FF9060
:101D9000EF90089580915F01882311F09CE001C0CD
:101DA00094E08091600181119160892F08958F9254
:101DB0009F92AF92BF92CF92DF92EF92FF920F93DA
:101DC0001F93CF93DF930BE811E0F8018081880F18
:101DD000880F8C735801A80EB11CC50102960E9491
:101DE0006308EC01005F1F4F85E691E0B8010E9497
:101DF000C5088823D9F18090690190906A018C16FA
:101E00009D06A1F507E911E0B8016C5F7F4FC8019D
:101E10000E9452080F2EF5E6CF2EF1E0DF2EF02DB6
:101E2000C601B8010E945208C5010E9463087C01E6
:101E3000C501B4010E946D08C5010296B7010E9458
:101E40006D080F2EFCEEEF2EFFEFFF2EF02DE00EB3
:101E5000F11E0A511040C701B8010E944308C60193
:101E60000C97B7010E94430881E001C080E0DF9138
:101E7000CF911F910F91FF90EF90DF90CF90BF9087
:101E8000AF909F908F900895FF920F931F93CF93E1
:101E9000DF93EC0104E810E0F801118210828DE775
:101EA00091E0BE010E94FC0FF82EF8016081718163
:101EB000CE010E948602AC01FF2029F483E0BE011E
:101EC0000E942C1007C0E1E9F7E080819181019622
:101ED000918380838F2DDF91CF911F910F91FF9080
:101EE0000895EF92FF920F931F93CF93DF93EC012E
:101EF00089E891E00E94630886509840D9F5CF3078
:101F0000D105C0F1BE016E5070408BE891E00E9497
:101F10001A08882389F181E991E00E9463080197FA
:101F200059F583EA91E065E671E00E94C5088823CF
:101F300019F10BE811E00F2EF9E5EF2EF1E0FF2E7D
:101F4000F02DA701445F5F4FC801B7010E94DC0775
:101F50000E50104080E091E0B8010E9443080A5FF3
:101F60001F4FC701B8010E944308CE010E94440FD1
:101F700081E003C080E001C081E0DF91CF911F913B
:101F80000F91FF90EF900895FF920F931F93CF93BF
:101F9000DF93EC0104E810E0F801118210828DE774
:101FA00091E06AEE75E0AE010E94FE0FF82EF80196
:101FB00060817181888199810E948602AC01FF2035
:101FC00031F46881798182E00E942C1007C0E5E835
:101FD000F7E0808191810196918380838F2DDF913D
:101FE000CF911F910F91FF90089580E0089508957B
:101FF00080E0089580E0089580E0089580E00895ED
:1020000080E00895E4E2F0E080818E628083808148
:102010008E768083E5E2F0E08081877D8083808119
:102020008460808380E58CBD81E08DBD0895E7E606
:10203000F7E027E937E010821182128213821582BD
:1020400014821782168211861086138612863C9699
:10205000E217F30781F708950F931F939CE0899F80
:10206000C0011124FC01E959F84F84819581019642
:10207000958384838B0120E030E080819181A2816F
:10208000B381800F911FA21FB31F80839183A2830E
:10209000B383828593858417950710F4538742870D
:1020A0001F910F9108950895089508950895629FCE
:1020B000D001739FF001829FE00DF11D649FE00D40
:1020C000F11D929FF00D839FF00D749FF00D659FA1
:1020D000F00D9927729FB00DE11DF91F639FB00DA0
:1020E000E11DF91FBD01CF0111240895991B79E06D
:1020F00004C0991F961708F0961B881F7A95C9F798
:1021000080950895A1E21A2EAA1BBB1BFD010DC0EC
:10211000AA1FBB1FEE1FFF1FA217B307E407F50797
:1021200020F0A21BB30BE40BF50B661F771F881F73
:10213000991F1A9469F760957095809590959B0109
:10214000AC01BD01CF010895DC01CB01FC01F9997F
:10215000FECF06C0F2BDE1BDF89A319600B40D92F3
:1021600041505040B8F70895A8E1B0E042E050E097
:102170000C94A610DC01CB0103C02D910E94C51068
:1021800041505040D0F70895262FF999FECF1FBA3D
:1021900092BD81BD20BD0FB6F894FA9AF99A0FBE90
:1021A000019608950E94C410272F0C94C510F8942E
:0221B000FFCF5F
:1021B200FFFFFFFFFFFF0000000000000000000023
:1021C200FFFFFFFF3030302E3030302E3030302ED7
:1021D20030303000140130303A30303A30303A305A
:0C21E200303A30303A30300026018813CB
:00000001FF
