:100000000C94E4000C9401010C9401010C94010186
:100010000C9401010C9401010C9401010C94010158
:100020000C9401010C9401010C9401010C942D011C
:100030000C9401010C9401010C9401010C94010138
:100040000C9401010C9401010C9401010C94010128
:100050000C9401010C9401010C9401010C94010118
:100060000C9401010C940101AA007B05AD00BD00B8
:100070007705C000D1005405D300EF000B05F20056
:100080000B010B050E012401D00427013E01D00411
:1000900041015A01B0045D017201D004750187016C
:1000A0000B058A0100000000000073640064756D98
:1000B0007020737461746973746963730073720080
:1000C00072657365742073746174697374696373A2
:1000D000006D006D61632061646472657373206FED
:1000E0006620646576696365203C6D61633E0066E9
:1000F00064007365742066756C6C206475706C6543
:10010000206D6F6465205B6F6E5D006663007365D4
:100110007420666C6F7720636F6E74726F6C205BF7
:100120006F6E5D00746C0074657374207061636B36
:100130006574206C656E677468203C6E3E00747454
:100140000074657374207061636B657420657468F6
:100150002074797065203C6E3E007469007465738C
:10016000742049502061646472657373203C697027
:100170003E00747000746573742055445020706F95
:100180007274203C6E3E00746D0074657374206D53
:100190006F6465205B307C315D00737F05A40100D6
:1001A0000000000064756D7020737461746973746D
:1001B000696373001A11AFA047110000EA05FDFF43
:1001C000C0A802DE901A000011241FBECFEFD8E0B5
:1001D000DEBFCDBF11E0A0E0B1E0E4E1FFE102C08D
:1001E00005900D92AC33B107D9F717E0ACE3B1E05D
:1001F00001C01D92A239B107E1F70E9402060C94DA
:10020000880F0C940000F89488E08093800081E0CF
:100210008093810080ED97E090938900809388001F
:10022000109285001092840082E080936F001092FB
:100230004C0110924B0110924A0110924901109208
:100240004D0110924E0110924F01109250011092E8
:100250003D0110923C01789408951F920F920FB6C1
:100260000F9211248F939F93AF93BF9310928500A9
:100270001092840080914B0190914C0101969093D3
:100280004C0180934B0180914D0190914E01A091C2
:100290004F01B09150010196A11DB11D80934D01F8
:1002A00090934E01A0934F01B093500180913C0177
:1002B00090913D01019690933D0180933C018436DD
:1002C000910568F010923D0110923C018091490126
:1002D00090914A01019690934A0180934901BF9100
:1002E000AF919F918F910F900FBE0F901F90189517
:1002F0009C0110924A01109249018091490190910C
:100300004A0182179307C8F308959C0110924C018B
:1003100010924B0180914B0190914C0182179307F1
:10032000C8F30895CF93DF93EB016115710519F4BC
:1003300020E030E016C0BC0180E090E020EA36E822
:1003400041E050E00E94080F9E0140E050E0220F83
:10035000331F441F551F220F331F441F551F0E9478
:10036000330F822F932FDF91CF9108958A3010F4AD
:10037000805D0895895C0895FF920F931F93F82E76
:100380008B0182958F700E94B601F80180838F2DBA
:100390008F700E94B601F80181831F910F91FF9029
:1003A0000895FF920F931F93F82E8B01892F0E94BF
:1003B000BC010E5F1F4F8F2DB8010E94BC011F9121
:1003C0000F91FF900895CF92DF92EF92FF920F93DB
:1003D0001F936B017C018A01AA27BB27BA010E94E7
:1003E000D1010C5F1F4FC601B8010E94D1011F91BE
:1003F0000F91FF90EF90DF90CF900895282FFB0191
:1004000064E60E94270F392F822F0E94270F805DFC
:100410008083832F6AE00E94270F805D8183832F72
:100420000E94270F905D92830895AF92BF92CF9262
:10043000DF92EF92FF920F931F93CF93DF93C62E1D
:10044000D72EE82EF92EB22E822F90E00197EA01E6
:10045000C80FD91F021708F42196BB2041F110E004
:100460000F2EFEE2AF2EF02D101711F4A882219767
:100470006C2D7D2D8E2D9F2D2AE030E040E050E048
:100480000E94330F605D68831F5F1B1580F4219706
:100490006C2D7D2D8E2D9F2D2AE030E040E050E028
:1004A0000E94330FC22ED32EE42EF52EDDCFDF9126
:1004B000CF911F910F91FF90EF90DF90CF90BF9061
:1004C000AF900895FB01982F8156863020F4865F07
:1004D000808381E00895892F8154863020F4865FDF
:1004E000808381E00895892F80538A3010F080E066
:1004F0000895808381E00895EF92FF920F931F93F8
:10050000DF93CF930F92CDB7DEB78C017B01FC0157
:100510008081BE016F5F7F4F0E946202882391F04D
:1005200089818295807F8983F8018181B7010E944A
:100530006202882339F0F70180819981892B8083B9
:1005400081E001C080E00F90CF91DF911F910F916A
:10055000FF90EF900895EF92FF920F931F93DF9318
:10056000CF9300D0CDB7DEB78C017B01BE016F5FAA
:100570007F4F0E947C028823A1F0C8010296BE0131
:100580006E5F7F4F0E947C02882359F0998180E042
:100590002A8130E0822B932BF7019183808381E0C5
:1005A00001C080E00F900F90CF91DF911F910F91CC
:1005B000FF90EF900895EF92FF920F931F93DF93B8
:1005C000CF9300D000D0CDB7DEB78C017B01BE0148
:1005D0006F5F7F4F0E947C02882309F44AC0C801E4
:1005E0000296BE016E5F7F4F0E947C02882309F451
:1005F00040C0C8010496BE016D5F7F4F0E947C021F
:100600008823B9F1C8010696BE016C5F7F4F0E9436
:100610007C02882371F1298130E040E050E0522FC4
:100620004427332722278A8190E0A0E0B0E0DC0154
:1006300099278827282B392B4A2B5B2B8C8190E01C
:10064000A0E0B0E0282B392B4A2B5B2B8B8190E06C
:10065000A0E0B0E0BA2FA92F982F8827282B392B9C
:100660004A2B5B2BF701208331834283538381E044
:1006700001C080E00F900F900F900F90CF91DF910D
:100680001F910F91FF90EF900895DB01FC0130E086
:1006900020E04AE08081982F90539A3050F4349FA4
:1006A000802D1124382F390F2F5F3196233091F789
:1006B00001C021113C93822F0895F8942CE088E129
:1006C00090E00FB6F894A895809360000FBE209339
:1006D0006000FFCF80913E01882329F481E0809360
:1006E0003E010E944F0B0895CF92DF92FF920F932D
:1006F0001F93DF93CF9300D0CDB7DEB70E94D5070D
:100700000E94720B682F04E511E0C8010E94450D9C
:100710000E94C80E1092510110923E01F801F6801D
:1007200010E06E010894C11CD11C0E9426080E9492
:10073000410D082F882351F08091510180FF03C0A3
:100740000E946A0303C0C6010E94AC0BFF2069F33C
:10075000112341F0002349F780E060E00E94A40CDF
:1007600010E0E3CF002309F380E061E00E94A40CD5
:1007700011E0DBCF0F931F93CF93DF93EC0184E85D
:1007800091E00E94A6062FEF8D3F920799F12FEF7F
:100790008E3F920728F48C5F9F4F09F040C032C013
:1007A0002FEF8E3F920701F18F5F9F4FC1F5809130
:1007B000510185608093510184E591E06EE771E01D
:1007C0000E94F2068823B9F504E511E08EE791E076
:1007D000B8010E9486060E94E7050E949B0CC80192
:1007E00064E00E94450D27C0809151018E7F809367
:1007F000510121C0809151018260809351010E947A
:100800006A0319C0CE010E94610480915101886081
:100810008093510110923E010E946A030CC0CE01E8
:100820000E947F0B8091510180FD05C086608093FE
:1008300051010E946A0381E0DF91CF911F910F91D6
:1008400008950F931F93CF93DF93EC018091510193
:1008500081FF1CC08D7F8093510108E711E080E08B
:1008600091E0B8010E948606B8016A5F7F4F84E577
:1008700091E00E948606C8010C966FEF7FEF0E9400
:10088000B0068EE090E09983888313C083FF07C091
:100890008091520190915301998388830AC0CE01BF
:1008A0000E94AC0B8091510182FF03C08B7F80932B
:1008B000510110923E0181E0DF91CF911F910F9184
:1008C00008951F93E8E7F1E09081892F8068808385
:1008D000933041F09430B1F0913009F03FC00E9464
:1008E0005D033CC0A6E8B1E0E4E5F1E084E10190FD
:1008F0000D928150E1F782E290E090935301809352
:1009000052012CC0809179018150823010F013E0A7
:100910001DC0A4E5B1E0E6E8F1E084E101900D92AC
:100920008150E1F780917901823031F40E94E7052E
:10093000882311F015E001C011E00E949B0C0E9479
:10094000720B682F84E591E00E94450D10937901A8
:100950008EE090E090935301809352011F9108958F
:10096000DF93CF9300D000D0CDB7DEB7FB018281FB
:100970009381BE016F5F7F4F0E947A07882311F435
:1009800081E107C0CE01019660E671E00E94950604
:1009900080E00F900F900F900F90CF91DF9108950E
:1009A0000F931F93DF93CF9300D0CDB7DEB7282FDF
:1009B000DB01ED91FC91119791818081843719F5CC
:1009C000903759F0943719F09C36E9F403C00EE5DE
:1009D00011E005C00CE511E002C004E611E0213091
:1009E00091F012968D919C911397BE016F5F7F4F8E
:1009F0000E94AB02882339F089819A81F8019183A2
:100A0000808380E001C081E10F900F90CF91DF9152
:100A10001F910F910895EF92FF921F93DF93CF9351
:100A20000F92CDB7DEB7DB01ED91FC91119790816C
:100A30002181943741F42D3671F5E7E6F1E090819C
:100A40007F0110E011C0963631F5233641F024368F
:100A500011F5EBE5F1E090817F0113E005C0EAE5D7
:100A6000F1E090817F0113E0813031F4F7011082D1
:100A7000992391F4808310C012968D919C911397C5
:100A8000BE016F5F7F4F0E947C02882321F0898125
:100A9000F701808301C011E1812F0F90CF91DF9189
:100AA0001F91FF90EF900895DF93CF9300D000D077
:100AB00000D0CDB7DEB7FB0182819381BE016F5FAD
:100AC0007F4F0E944107882311F481E107C0CE01C6
:100AD000019664E571E00E94860680E026960FB6D6
:100AE000F894DEBF0FBECDBFCF91DF9108950E9475
:100AF000C80E80E008950E94060F80E008950E94CD
:100B0000060F0895FC0120E030E04FEF5FEF819188
:100B10004827842F82958427082E869586958025E0
:100B2000082E869580258770042E452F869507947C
:100B30008795502D482706948795502548272F5F85
:100B40003F4F2431310519F7842F952F0895A4E5DF
:100B5000B1E024EB31E048E651E0F9012F5F3F4F6F
:100B6000E491ED93A417B507C1F70895EF92FF92B2
:100B70000F931F93F99B02C081E01DC00F2EF4E577
:100B8000EF2EF1E0FF2EF02DC70160E070E044E1B0
:100B900050E00E94550F84E190E00E94650F8C01A7
:100BA000C7010E9482058017910711F480E003C0FD
:100BB0000E94A70582E01F910F91FF90EF9008958A
:100BC0000E94B605882311F00E94A70508950F938F
:100BD0001F93F99B02C081E012C004E511E0C80137
:100BE00060E070E044E150E00E946B0FC8010E9499
:100BF0008205BC0184E190E00E94830F80E01F9198
:100C00000F910895F894A89514BEE0E6F0E0808175
:100C100088618083108278940E940301E7E2F0E00B
:100C2000808180628083E8E2F0E08081806280835E
:100C30000E94E0050E94740380E090E008958F9286
:100C40009F92AF92BF92CF92DF92EF92FF920F935B
:100C50001F938C015B014A01069662E070E00E94DE
:100C6000B006CC24DD246894C3F8C00ED11EB801B0
:100C70006E5E7F4FC6010E9486060F2EFEE0EF2EAD
:100C8000FF24F02DE00EF11E085E1F4FC701B801D2
:100C90000E949506C501B6010E948606C401B701EF
:100CA0000E9495061F910F91FF90EF90DF90CF90DB
:100CB000BF90AF909F908F9008950F931F93CF9305
:100CC000DF93EC016C31710510F480E01AC00E94D2
:100CD000A6068C01CE0102960E94A6062C813D81BB
:100CE0000130110561F48050984049F4263039F400
:100CF00090E0343009F091E081E0892702C080E083
:100D000090E0DF91CF911F910F910895AC0125E004
:100D1000822F90E0DB01A80FB91FFA01E80FF91F3D
:100D200080818C932150A0F70895FC01DB01838121
:100D300013968C931397828112968C9312978181CC
:100D400011968C93119780818C930895FC012181D9
:100D500030E0908180E0282B392B822F932F08954B
:100D6000FC01708361830895FC01238130E040E041
:100D700050E0808190E0A0E0B0E0B82FAA2799274A
:100D80008827282B392B4A2B5B2B818190E0A0E010
:100D9000B0E0DC0199278827282B392B4A2B5B2BC5
:100DA000828190E0A0E0B0E0BA2FA92F982F882789
:100DB000282B392B4A2B5B2B622F732F842F952FD7
:100DC0000895FC01872F9927AA27BB278083CB0191
:100DD000AA27BB278183BB27A72F962F852F828326
:100DE00043830895AC0120E030E0FA01E20FF31FE5
:100DF000DB01A20FB31F90818C91981711F080E056
:100E000008952F5F3F4F2630310579F781E008952F
:100E1000AC0120E030E0FA01E20FF31FDB01A20F8A
:100E2000B31F90818C91981711F080E008952F5F87
:100E30003F4F2430310579F781E00895EF92FF921A
:100E40000F931F93CF93DF932091240130912501BD
:100E50008C01E901EE24FF246894E4F8E20EF31E0D
:100E6000F80181918F01BE010E94FE012496CE15EA
:100E7000DF05B1F7DF91CF911F910F91FF90EF90B8
:100E80000895AF92BF92CF92DF92EF92FF920F93AD
:100E90001F93DF93CF930F92CDB7DEB77C016B0129
:100EA00000E010E05E010894A11CB11CC701B5016F
:100EB0000E947C02882389F0F601E00FF11F8981EE
:100EC00080830F5F1F4F0630110511F481E006C0CB
:100ED00083E090E0E80EF91EE9CF80E00F90CF911B
:100EE000DF911F910F91FF90EF90DF90CF90BF9017
:100EF000AF900895AF92BF92CF92DF92EF92FF92A0
:100F00000F931F93DF93CF930F92CDB7DEB77C0182
:100F10006B0100E010E05E010894A11CB11CC70148
:100F2000B5010E944503982F882391F0F601E00F48
:100F3000F11F898180830F5F1F4F0430110511F469
:100F400081E007C0892F90E00196E80EF91EE7CFF7
:100F500080E00F90CF91DF911F910F91FF90EF9064
:100F6000DF90CF90BF90AF900895EF92FF920F93D4
:100F70001F93CF93DF93E0903801F09039018C01FB
:100F8000C0E0D0E0B7016C0F7D1FF80181918F01A7
:100F90000E94BC012396C231D105A1F7DF91CF9108
:100FA0001F910F91FF90EF900895A7E2B0E08C9110
:100FB000807E8C93E8E2F0E08081807E80838C915B
:100FC00086608C9380818B6180831AB8089586B186
:100FD000282F30E02071307035952795359527956D
:100FE0003595279535952795220F331F8870880FE3
:100FF000880F822B0895782F10924C0110924B018C
:1010000040913A0150913B01E6E2F0E015C0808149
:10101000282F30E0C9018870907095958795959537
:10102000879595958795781711F481E0089524FDAB
:1010300003C0862F8360089580914B0190914C01ED
:101040008417950720F3862F826008952F923F9290
:101050004F925F926F927F928F929F92AF92BF92C8
:10106000CF92DF92EF92FF920F931F93DF93CF9374
:1010700000D0CDB7DEB710926801349B02C0339B1D
:1010800004C01092690120E0D6C2A9B01A82198268
:1010900022E2A21619F084E4A816B9F4CE01019652
:1010A0000E942104282F813081F0E9E6F1E080835D
:1010B000E2818CE0E89FF0011124EE59F84F86811F
:1010C0009781019697838683B6C260904D01709098
:1010D0004E0180904F019090500110928500109227
:1010E0008400E8E2F0E0808184608083A2E2AA16B6
:1010F000A1F0AA1520F0B1E1AB1649F475C0E3E305
:10110000AE1609F47AC1F4E4AF1609F4DDC0BB24CD
:101110006894B2F8CC24DD2402C2E980FA808FEF13
:101120008AB981E060E20E94FB07B82E21E08217B5
:1011300009F057C0FBB8E8E2F0E080818B7F808344
:1011400080E060E30E94FB07B82E81E0B81609F04A
:1011500048C0EBB8E8E2F0E0808184608083C7019A
:1011600001960F2EFEEF2F2EFFEF3F2EF02D28229F
:1011700039222114310461F101E00F2EF8E7EF2E3E
:10118000F1E0FF2EF02DCC24DD240F2EF8E24F2EBF
:101190005524F02D14E0802F60E40E94FB07B82E48
:1011A000A1E08A17E1F4F7018081ABE2B0E08C9313
:1011B000F2018081812780830894C11CD11C2C14EA
:1011C0003D0441F00894E11CF11CF1E00F27E3CF4E
:1011D000CC24DD2481E060E50E94FB07B82E1AB81C
:1011E0009EC1CC24DD249BC181E060E20E94FB070C
:1011F000B82E21E0821709F064C009B1E8E2F0E0FE
:1012000080818B7F808380E060E30E94FB07B82EA3
:1012100081E0B81609F055C029B1902F80E030E088
:10122000282B392BE8E2F0E0808194E08927808345
:10123000A5E02B3E3A0738F00F2EF5E0BF2EF02D3B
:10124000CC24DD246CC1C90101960F2EFEEF2F2E98
:10125000FFEF3F2EF02D282239222114310471F1A5
:1012600001E00F2EF8E7EF2EF1E0FF2EF02DCC2459
:10127000DD240F2EF8E24F2E5524F02D14E0802FA0
:1012800060E40E94FB07B82EB1E08B1709F047C15C
:10129000E9E2F0E08081D7018C93F201808181271F
:1012A00080830894C11CD11C2C143D0409F437C15F
:1012B0000894E11CF11CF1E00F27E1CFCC24DD24E0
:1012C0002EC1CC24DD242BC1E980FA8081E060E2CC
:1012D0000E94FB07B82E21E0821709F08BC08FEF28
:1012E0008AB9FBB8E8E2F0E080818B7F808380E000
:1012F00060E30E94FB07B82E81E0B81609F07AC0BF
:10130000EBB8E8E2F0E0808194E08927808381E017
:1013100060E40E94FB07B82EA1E08A1709F06AC0BA
:10132000C7010196AC0156954795F894E8E2F0E0C4
:10133000808194E0892780834115510591F108E768
:1013400011E020E030E09FE06BE270E0E6E2F0E0E8
:10135000892F8A95F1F7D8018C91DB018C938081DC
:1013600083FF03C0808184FDFACF808184FF1BC08E
:10137000892F8A95F1F7D80111968C91DB018C9316
:10138000808183FD03C0808184FDFACF808184FF4A
:101390000AC02F5F3F4F2417350728F40E5F1F4FF9
:1013A000D7CF20E030E0E6E2F0E0A8E2B0E07894C9
:1013B00003C0808184FFFBCF808183FDFACF8C91B5
:1013C00084608C9303C0808184FFF1CF808183FF90
:1013D000FACF2417350720F40F2EF2E4BF2EF02D9C
:1013E000E8E2F0E080818B7F80831AB86901CC0C41
:1013F000DD1C95C0CC24DD2492C081E060E20E9417
:10140000FB07B82EB1E08B1709F087C009B1E8E2FD
:10141000F0E080818B7F808380E060E30E94FB07A7
:10142000B82EE1E08E1709F078C029B1902F80E046
:1014300030E0822B932BF5E08B3E9F0738F00F2E88
:10144000F5E0BF2EF02DCC24DD2469C00196BC014F
:1014500076956795F894E8E2F0E0808194E089273A
:1014600080836115710559F108E711E020E030E053
:10147000E6E2F0E049E250E0808183FD03C0808134
:1014800084FDFACF808184FF1CC0DA018C91D801E1
:101490008C93808183FF03C0808184FDFACF80819B
:1014A00084FF0FC0DA018C91D80111968C932F5FC5
:1014B0003F4F2617370728F40E5F1F4FDDCF20E080
:1014C00030E07894E6E2F0E0A8E2B0E094E08081D9
:1014D00083FD03C0808184FDFACF808184FF09C031
:1014E0008C9189278C93808183FF03C0808184FD48
:1014F000FACF808184FFEBCF2617370720F40F2E19
:10150000F2E4BF2EF02DE8E2F0E0808194E089273C
:1015100080836901CC0CDD1C02C0CC24DD24109238
:101520004C0110924B0120913A0130913B01E6E2CF
:10153000F0E003C0808184FF07C080914B0190914F
:101540004C0182179307B0F3E8E2F0E080818B7FD3
:101550008083E0908400F0908500B1E0BB1659F4E0
:10156000E1E1AE1621F0F3E3AF1609F07AC0C6014F
:101570000E94BA03B82E08E611E0F801A192B082E9
:10158000D8011596DC92CE9214971796FC92EE92A3
:101590001697C601B7010E949201F80191878087D2
:1015A000D8011C966D927D928D929C921F97B1E10D
:1015B000AB1631F0E3E3AE1619F080E090E002C024
:1015C00081E090E0EAE6F1E081931082882311F057
:1015D00081E0808380916A01882319F020E030E067
:1015E0000AC0209174013091750180914001909161
:1015F0004101281B390B3093730120937201F1E0F4
:10160000BF1659F4EBE6F1E06181728145815681A4
:1016100080810E94DD0E21E00EC0E0916B018CE024
:10162000E89FF0011124EE59F84F868197810196C9
:10163000978386832B2D822F0F900F90CF91DF9170
:101640001F910F91FF90EF90DF90CF90BF90AF90E0
:101650009F908F907F906F905F904F903F902F90D2
:10166000089508E611E0F801A19281E08083D80195
:101670001596DC92CE9214971796FC92EE921697DE
:10168000C601B7010E949201F80191878087D801B5
:101690001C966D927D928D929C921F978ECF0F9388
:1016A0001F9308E210E0F80180818D7F808384E140
:1016B00090E00E948501F8018081826080838091A2
:1016C0004D0190914E01A0914F01B0915001809336
:1016D000400190934101A0934201B09343011F91B7
:1016E0000F91089580915A01882311F09CE001C068
:1016F00094E080915B0181119160892F0895FF92A0
:101700000F931F93CF93DF93EC0104E810E0F801EF
:101710001182108288E791E0BE010E94E80CF82E49
:10172000F80160817181CE010E949201AC01FF201D
:1017300029F483E0BE010E94DD0E07C0ECE8F7E06B
:10174000808191810196918380838F2DDF91CF914C
:101750001F910F91FF900895FF920F931F93CF93C6
:10176000DF93EC0104E810E0F8011182108288E7B1
:1017700091E06AEE75E0AE010E94390EF82EF80194
:1017800060817181888199810E949201AC01FF2062
:1017900031F46881798182E00E94DD0E07C0E0E8C3
:1017A000F7E0808191810196918380838F2DDF9175
:1017B000CF911F910F91FF900895E5E2F0E09081A5
:1017C0009B7F9083962F9F71982B9EBDEDE4F0E058
:1017D00080818823ECF7662334F41EBCEDE4F0E04E
:1017E00080818823ECF71EBCEDE4F0E08081882343
:1017F000ECF78EB5E5E2F0E0908194609083089577
:10180000E5E2F0E090819B7F90836F71682B6EBD65
:10181000EDE4F0E080818823ECF74EBDEDE4F0E0EC
:1018200080818823ECF7E5E2F0E0808184608083AA
:101830000895CF93DF939C01DB01E5E2F0E0808126
:101840008B7F80838AE38EBDEDE4F0E08081882386
:10185000ECF72115310579F0CEE4D0E0EDE4F0E0CD
:10186000188280818823ECF788818C932150304046
:1018700011F01196F5CFE5E2F0E08081846080837D
:10188000DF91CF9108951F93182F282F30E02076F5
:1018900030708091440190E02817390781F080EA88
:1018A0006FE143E00E94000C412F407640934401D9
:1018B00042954695477080E86FE10E94000C1F91A9
:1018C00008951F93182F0E94430C80E0612F0E94FF
:1018D000DD0B1F9108950F931F93182F062F0E9461
:1018E000430C80E4612F402F0E94000C1F910F9148
:1018F00008950F931F93182F072F0E946B0C812FB1
:101900008F5F602F0E946B0C1F910F9108950F93B2
:101910001F93982F8B0184ED692F0E946B0C86ED2D
:10192000B8010E94790C8AEE0E94610C80FDFBCF09
:101930001F910F9108958FE10E94430C80EA6FE19F
:1019400044E00E94000C0895882311F081E008957E
:1019500080914701882331F0662311F463E004C0CD
:1019600062E002C0611161E087E70E946B0C80E0D9
:101970000895CF93DF93EB01882319F0813019F597
:1019800005C080914801888380E01FC084ED61E13B
:101990000E946B0C82ED61E00E946B0C8AEE0E944B
:1019A000610C80FDFBCF82ED60E00E946B0C89ED45
:1019B0000E94610C90E09695879596958795817029
:1019C000888380E002C0188281E0DF91CF91089582
:1019D0000F931F93CF93DF93EC018B0182E060E0C4
:1019E0007AE10E94790C8AE760E040E00E94000CF6
:1019F000E5E2F0E080818B7F80838AE78EBDEDE4B5
:101A0000F0E080818823ECF79801AEE4B0E0EDE4EB
:101A1000F0E008C088818C9380818823ECF72196C0
:101A20002150304021153105A9F7E5E2F0E0808131
:101A3000846080830FC08CE10E94610C81FF0AC02A
:101A400080E86FE140E80E94000C80EA6FE140E826
:101A50000E94000C80E06FE10E94DD0B83FDEBCF64
:101A6000B8016050764E86E00E94790C80E86FE104
:101A700048E00E94000C80E0DF91CF911F910F9110
:101A8000089589E30E94610C0895DF92EF92FF921E
:101A90000F931F93DF93CF930F92CDB7DEB77C01E7
:101AA000D62E0E94B30EE5E2F0E080818460808350
:101AB0008D2D8170809347018FEF60E04FEF0E9482
:101AC000000C84E190E00E94850100E010E008C075
:101AD0000F5F1F4F8FE00F3F180711F481E0C0C068
:101AE00080E06DE10E94DD0B882391F310924601A6
:101AF0001092450188E060E070E00E94790C8CE073
:101B000060E070E00E94790C8AE06FEF79E10E945A
:101B1000790C84E060E07AE10E94790C86E06FEF56
:101B20007FE10E94790CD2FE05C088E361EA0E9441
:101B30006B0C04C088E360EA0E946B0C88E26FE3E0
:101B400070E30E94790C80E369EF77EF0E94790CD3
:101B500080EC6DE00E946B0C81EC60E00E946B0CED
:101B600080914701882311F063E301C062E382ECB6
:101B70000E946B0C80914701882351F084EC65E151
:101B80000E946B0C86EC62E170E00E94790C09C047
:101B900084EC62E10E946B0C86EC62E17CE00E94C6
:101BA000790C8AEC6EEE75E00E94790C8091470109
:101BB000882359F080E060E071E00E94870C80E1AA
:101BC00060E070E00E94870C0AC080E060E070E096
:101BD0000E94870C80E160E071E00E94870C88E73A
:101BE00060ED77E00E94790C82E70E94610C80939F
:101BF0004801863018F08F5F8093480184EEF7012A
:101C000060810E946B0C85EEF70161810E946B0C74
:101C100082EEF70162810E946B0C83EEF701638113
:101C20000E946B0C80EEF70164810E946B0C81EEC8
:101C3000F70165810E946B0C8FE10E94430C80E8E4
:101C40006BE140EC0E94000C80E86FE144E00E94F0
:101C5000000C80E0BE016F5F7F4F0E94B90C80E0F6
:101C60000F90CF91DF911F910F91FF90EF90DF9038
:101C70000895AF92BF92CF92DF92EF92FF920F93AF
:101C80001F93DF93CF9300D000D000D0CDB7DEB745
:101C90005C016B018A01609145017091460180E011
:101CA0000E94790C86E090E0BE016F5F7F4F0E943A
:101CB000190CE980FA80F0924601E09245018B818F
:101CC0009C819C0124503040F801318320838D8118
:101CD0008823BCF0B70161507040FAE160307F07A3
:101CE00030F08CE06FEF79E10E94790C03C08CE05A
:101CF0000E94790C80E86EE140E40E94000C03E051
:101D000020C0C216D30618F4960102E001C000E01C
:101D1000C901B5010E94190CB701615070408AE1F8
:101D20006030780730F08CE06FEF79E10E94790C39
:101D300003C08CE00E94790C80E86EE140E40E94D0
:101D4000000C802F26960FB6F894DEBF0FBECDBFD5
:101D5000CF91DF911F910F91FF90EF90DF90CF9087
:101D6000BF90AF900895E4E2F0E080818E628083BE
:101D700080818E768083E5E2F0E08081877D8083BC
:101D800080818460808380E58CBD81E08DBD089575
:101D9000E2E6F7E022E937E0108211821282138234
:101DA0001582148217821682118610861386128677
:101DB0003C96E217F30781F708950F931F939CE079
:101DC000899FC0011124FC01EE59F84F848195814F
:101DD0000196958384838B0120E030E0808191819E
:101DE000A281B381800F911FA21FB31F80839183B3
:101DF000A283B383828593858417950710F4538754
:101E000042871F910F9108950895089508950895A8
:101E1000629FD001739FF001829FE00DF11D649FCE
:101E2000E00DF11D929FF00D839FF00D749FF00D5A
:101E3000659FF00D9927729FB00DE11DF91F639FFB
:101E4000B00DE11DF91FBD01CF0111240895991BAB
:101E500079E004C0991F961708F0961B881F7A95A1
:101E6000C9F780950895A1E21A2EAA1BBB1BFD019C
:101E70000DC0AA1FBB1FEE1FFF1FA217B307E40769
:101E8000F50720F0A21BB30BE40BF50B661F771FC1
:101E9000881F991F1A9469F76095709580959095A1
:101EA0009B01AC01BD01CF010895DC01CB01FC0118
:101EB000F999FECF06C0F2BDE1BDF89A319600B4A3
:101EC0000D9241505040B8F70895A8E1B0E042E0CB
:101ED00050E00C94570FDC01CB0103C02D910E9400
:101EE000760F41505040D0F70895262FF999FECF34
:101EF0001FBA92BD81BD20BD0FB6F894FA9AF99A27
:101F00000FBE019608950E94750F272F0C94760F2F
:041F1000F894FFCF73
:101F1400FFFFFFFFFFFF00000000000000000000C3
:101F2400FFFFFFFF3030302E3030302E3030302E77
:101F340030303000140130303A30303A30303A30FA
:0C1F4400303A30303A303000260188136B
:00000001FF
