:100000000C94E4000C9401010C9401010C94010186
:100010000C9401010C9401010C9401010C94010158
:100020000C9401010C9401010C9401010C942D011C
:100030000C9401010C9401010C9401010C94010138
:100040000C9401010C9401010C9401010C94010128
:100050000C9401010C9401010C9401010C94010118
:100060000C9401010C940101AA009C05AD00BD0097
:100070009805C000D1007505D300EF002C05F200F3
:100080000B012C050E012401F10427013E01F104AE
:1000900041015A01D1045D017201F104750187012A
:1000A0002C058A0100000000000073640064756D77
:1000B0007020737461746973746963730073720080
:1000C00072657365742073746174697374696373A2
:1000D000006D006D61632061646472657373206FED
:1000E0006620646576696365203C6D61633E0066E9
:1000F00064007365742066756C6C206475706C6543
:10010000206D6F6465205B6F6E5D006663007365D4
:100110007420666C6F7720636F6E74726F6C205BF7
:100120006F6E5D00746C0074657374207061636B36
:100130006574206C656E677468203C6E3E00747454
:100140000074657374207061636B657420657468F6
:100150002074797065203C6E3E007469007465738C
:10016000742049502061646472657373203C697027
:100170003E00747000746573742055445020706F95
:100180007274203C6E3E00746D0074657374206D53
:100190006F6465205B307C315D0073A005A40100B5
:1001A0000000000064756D7020737461746973746D
:1001B000696373001A11AFA047110000EA05FDFF43
:1001C000C0A802DE901A000011241FBECFEFD8E0B5
:1001D000DEBFCDBF11E0A0E0B1E0E2E8FFE102C088
:1001E00005900D92AC33B107D9F717E0ACE3B1E05D
:1001F00001C01D92A339B107E1F70E9423060C94B8
:10020000BF0F0C940000F89488E08093800081E098
:100210008093810080ED97E090938900809388001F
:10022000109285001092840082E080936F001092FB
:100230004D0110924C0110924B0110924A01109204
:100240004E0110924F0110925001109251011092E4
:100250003D0110923C01789408951F920F920FB6C1
:100260000F9211248F939F93AF93BF93EF93FF93BC
:10027000109285001092840080914C0190914D0164
:10028000019690934D0180934C0180914E01909185
:100290004F01A0915001B09151010196A11DB11DD6
:1002A00080934E0190934F01A0935001B093510160
:1002B00080913C0190913D01019690933D01809386
:1002C0003C018436910568F010923D0110923C018A
:1002D00080914A0190914B01019690934B0180933C
:1002E0004A0180914401882331F0E7E2F0E0808107
:1002F0008062808305C0E7E2F0E080818F7D8083AB
:10030000FF91EF91BF91AF919F918F910F900FBE91
:100310000F901F9018959C0110924B0110924A016A
:1003200080914A0190914B0182179307C8F3089579
:100330009C0110924D0110924C0180914C019091C2
:100340004D0182179307C8F30895CF93DF93EB0114
:100350006115710519F420E030E016C0BC0180E0A1
:1003600090E020EA36E841E050E00E943F0F9E0115
:1003700040E050E0220F331F441F551F220F331F50
:10038000441F551F0E946A0F822F932FDF91CF9138
:1003900008958A3010F4805D0895895C0895FF9275
:1003A0000F931F93F82E8B0182958F700E94C901C5
:1003B000F80180838F2D8F700E94C901F80181831D
:1003C0001F910F91FF900895FF920F931F93F82EA6
:1003D0008B01892F0E94CF010E5F1F4F8F2DB80117
:1003E0000E94CF011F910F91FF900895CF92DF924D
:1003F000EF92FF920F931F936B017C018A01AA2752
:10040000BB27BA010E94E4010C5F1F4FC601B8016F
:100410000E94E4011F910F91FF90EF90DF90CF9029
:100420000895282FFB0164E60E945E0F392F822F6A
:100430000E945E0F805D8083832F6AE00E945E0FC2
:10044000805D8183832F0E945E0F905D928308956B
:10045000AF92BF92CF92DF92EF92FF920F931F93D2
:10046000CF93DF93C62ED72EE82EF92EB22E822FF1
:1004700090E00197EA01C80FD91F021708F42196EE
:10048000BB2041F110E00F2EFEE2AF2EF02D101731
:1004900011F4A88221976C2D7D2D8E2D9F2D2AE0A1
:1004A00030E040E050E00E946A0F605D68831F5FAB
:1004B0001B1580F421976C2D7D2D8E2D9F2D2AE00C
:1004C00030E040E050E00E946A0FC22ED32EE42EAE
:1004D000F52EDDCFDF91CF911F910F91FF90EF901F
:1004E000DF90CF90BF90AF900895FB01982F815679
:1004F000863020F4865F808381E00895892F8154BF
:10050000863020F4865F808381E00895892F8053B0
:100510008A3010F080E00895808381E00895EF92A2
:10052000FF920F931F93DF93CF930F92CDB7DEB758
:100530008C017B01FC018081BE016F5F7F4F0E94B7
:100540007502882391F089818295807F8983F801E3
:100550008181B7010E947502882339F0F7018081FB
:100560009981892B808381E001C080E00F90CF9139
:10057000DF911F910F91FF90EF900895EF92FF92FE
:100580000F931F93DF93CF9300D0CDB7DEB78C01CD
:100590007B01BE016F5F7F4F0E948F028823A1F015
:1005A000C8010296BE016E5F7F4F0E948F028823B2
:1005B00059F0998180E02A8130E0822B932BF7015A
:1005C0009183808381E001C080E00F900F90CF91F4
:1005D000DF911F910F91FF90EF900895EF92FF929E
:1005E0000F931F93DF93CF9300D000D0CDB7DEB72A
:1005F0008C017B01BE016F5F7F4F0E948F028823B9
:1006000009F44AC0C8010296BE016E5F7F4F0E9486
:100610008F02882309F440C0C8010496BE016D5FB3
:100620007F4F0E948F028823B9F1C8010696BE0150
:100630006C5F7F4F0E948F02882371F1298130E027
:1006400040E050E0522F4427332722278A8190E050
:10065000A0E0B0E0DC0199278827282B392B4A2B12
:100660005B2B8C8190E0A0E0B0E0282B392B4A2B4B
:100670005B2B8B8190E0A0E0B0E0BA2FA92F982FE0
:100680008827282B392B4A2B5B2BF70120833183BA
:100690004283538381E001C080E00F900F900F9060
:1006A0000F90CF91DF911F910F91FF90EF900895E0
:1006B000DB01FC0130E020E04AE08081982F90537C
:1006C0009A3050F4349F802D1124382F390F2F5F2A
:1006D0003196233091F701C021113C93822F089568
:1006E000F8942CE088E190E00FB6F894A8958093F8
:1006F00060000FBE20936000FFCF80913E018823F1
:1007000029F481E080933E010E946B0B0895CF9203
:10071000DF92FF920F931F93DF93CF9300D0CDB75B
:10072000DEB70E94F1070E948E0B682F05E511E0ED
:10073000C8010E946F0D0E94FF0E1092520110928C
:100740003E01F801F68010E06E010894C11CD11C36
:100750000E9442080E946B0D082F882351F080915F
:10076000520180FF03C00E947D0303C0C6010E94A6
:10077000C80BFF2069F3112341F0002349F780E003
:1007800060E00E94CB0C10E0E3CF002309F380E08F
:1007900061E00E94CB0C11E0DBCF0F931F93CF934E
:1007A000DF93EC0108E210E0F80180818F7D808307
:1007B00084E190E00E948B01F80180818062808357
:1007C00085E891E00E94C206FFEF8D3F9F0799F1F7
:1007D0002FEF8E3F920728F48C5F9F4F09F040C0A7
:1007E00032C0FFEF8E3F9F0701F18F5F9F4FC1F532
:1007F0008091520185608093520185E591E06FE719
:1008000071E00E940E078823B9F505E511E08FE736
:1008100091E0B8010E94A2060E9408060E94C00C46
:10082000C80164E00E946F0D27C0809152018E7F45
:100830008093520121C080915201826080935201C5
:100840000E947D0319C0CE010E9482048091520152
:1008500088608093520110923E010E947D030CC07B
:10086000CE010E949B0B8091520180FD05C08660E5
:10087000809352010E947D0381E0DF91CF911F910F
:100880000F9108950F931F93CF93DF93EC01809105
:10089000520181FF1CC08D7F8093520109E711E056
:1008A00080E091E0B8010E94A206B8016A5F7F4F24
:1008B00085E591E00E94A206C8010C966FEF7FEFDC
:1008C0000E94CC068EE090E09983888313C083FF5A
:1008D00007C08091530190915401998388830AC085
:1008E000CE010E94C80B8091520182FF03C08B7F12
:1008F0008093520110923E0181E0DF91CF911F91D0
:100900000F9108951F93E9E7F1E09081892F8068A6
:100910008083933041F09430B1F0913009F03FC0C2
:100920000E9470033CC0A7E8B1E0E5E5F1E084E196
:1009300001900D928150E1F782E290E09093540192
:10094000809353012CC080917A018150823010F045
:1009500013E01DC0A5E5B1E0E7E8F1E084E1019016
:100960000D928150E1F780917A01823031F40E943A
:100970000806882311F015E001C011E00E94C00CA8
:100980000E948E0B682F85E591E00E946F0D1093F9
:100990007A018EE090E090935401809353011F916F
:1009A0000895DF93CF9300D000D0CDB7DEB7FB0121
:1009B00082819381BE016F5F7F4F0E9496078823DB
:1009C00011F481E107C0CE01019661E671E00E9459
:1009D000B10680E00F900F900F900F90CF91DF91B4
:1009E00008950F931F93DF93CF9300D0CDB7DEB759
:1009F000282FDB01ED91FC91119791818081843743
:100A000019F5903759F0943719F09C36E9F403C082
:100A10000FE511E005C00DE511E002C005E611E0AB
:100A2000213091F012968D919C911397BE016F5FCA
:100A30007F4F0E94BE02882339F089819A81F80194
:100A40009183808380E001C081E10F900F90CF916E
:100A5000DF911F910F910895EF92FF921F93DF9303
:100A6000CF930F92CDB7DEB7DB01ED91FC911197DB
:100A700090812181943741F42D3671F5E8E6F1E05B
:100A800090817F0110E011C0963631F5233641F098
:100A9000243611F5ECE5F1E090817F0113E005C00B
:100AA000EBE5F1E090817F0113E0813031F4F70153
:100AB0001082992391F4808310C012968D919C919D
:100AC0001397BE016F5F7F4F0E948F02882321F032
:100AD0008981F701808301C011E1812F0F90CF91AF
:100AE000DF911F91FF90EF900895DF93CF9300D097
:100AF00000D000D0CDB7DEB7FB0182819381BE016B
:100B00006F5F7F4F0E945D07882311F481E107C06A
:100B1000CE01019665E571E00E94A20680E026966E
:100B20000FB6F894DEBF0FBECDBFCF91DF91089511
:100B30000E94FF0E80E008950E943D0F80E008951E
:100B40000E943D0F0895FC0120E030E04FEF5FEF81
:100B500081914827842F82958427082E8695869533
:100B60008025082E869580258770042E452F869532
:100B700007948795502D4827069487955025482738
:100B80002F5F3F4F2431310519F7842F952F08959A
:100B9000A5E5B1E024EB31E049E651E0F9012F5F32
:100BA0003F4FE491ED93A417B507C1F70895EF9275
:100BB000FF920F931F93F99B02C081E01DC00F2E7F
:100BC000F5E5EF2EF1E0FF2EF02DC70160E070E0BB
:100BD00044E150E00E948C0F84E190E00E949C0F61
:100BE0008C01C7010E94A3058017910711F480E0D2
:100BF00003C00E94C80582E01F910F91FF90EF9003
:100C000008950E94D705882311F00E94C805089511
:100C10000F931F93F99B02C081E012C005E511E01C
:100C2000C80160E070E044E150E00E94A20FC801FA
:100C30000E94A305BC0184E190E00E94BA0F80E00D
:100C40001F910F910895F894A89514BEE0E6F0E086
:100C5000808188618083108278940E940301E8E299
:100C6000F0E08081806280830E9401060E948703F9
:100C700080E090E008958F929F92AF92BF92CF92C2
:100C8000DF92EF92FF920F931F938C015B014A0159
:100C9000069662E070E00E94CC06CC24DD246894C5
:100CA000C3F8C00ED11EB8016E5E7F4FC6010E9410
:100CB000A2060F2EFEE0EF2EFF24F02DE00EF11E17
:100CC000085E1F4FC701B8010E94B106C501B601F9
:100CD0000E94A206C401B7010E94B1061F910F91A4
:100CE000FF90EF90DF90CF90BF90AF909F908F904C
:100CF00008950F931F93CF93DF93EC016C3171052F
:100D000010F480E01AC00E94C2068C01CE01029647
:100D10000E94C2062C813D810130110561F4805092
:100D2000984049F4263039F490E0343009F091E0ED
:100D300081E0892702C080E090E0DF91CF911F9190
:100D40000F910895AC0125E0822F90E0DB01A80F00
:100D5000B91FFA01E80FF91F80818C932150A0F789
:100D60000895FC01DB01838113968C931397828194
:100D700012968C931297818111968C931197808192
:100D80008C930895FC01218130E0908180E0282B34
:100D9000392B822F932F0895FC017083618308956E
:100DA000FC01238130E040E050E0808190E0A0E051
:100DB000B0E0B82FAA2799278827282B392B4A2B50
:100DC0005B2B818190E0A0E0B0E0DC0199278827CF
:100DD000282B392B4A2B5B2B828190E0A0E0B0E0DE
:100DE000BA2FA92F982F8827282B392B4A2B5B2B1A
:100DF000622F732F842F952F0895FC01872F992739
:100E0000AA27BB278083CB01AA27BB278183BB27C7
:100E1000A72F962F852F828343830895AC0120E06E
:100E200030E0FA01E20FF31FDB01A20FB31F908144
:100E30008C91981711F080E008952F5F3F4F263076
:100E4000310579F781E00895AC0120E030E0FA0146
:100E5000E20FF31FDB01A20FB31F90818C91981753
:100E600011F080E008952F5F3F4F2430310579F76E
:100E700081E00895EF92FF920F931F93CF93DF933A
:100E800020912401309125018C01E901EE24FF24F9
:100E90006894E4F8E20EF31EF80181918F01BE011F
:100EA0000E9411022496CE15DF05B1F7DF91CF9194
:100EB0001F910F91FF90EF900895AF92BF92CF9244
:100EC000DF92EF92FF920F931F93DF93CF930F92D6
:100ED000CDB7DEB77C016B0100E010E05E01089445
:100EE000A11CB11CC701B5010E948F02882389F0A3
:100EF000F601E00FF11F898180830F5F1F4F0630DD
:100F0000110511F481E006C083E090E0E80EF91EBF
:100F1000E9CF80E00F90CF91DF911F910F91FF906B
:100F2000EF90DF90CF90BF90AF900895AF92BF92B7
:100F3000CF92DF92EF92FF920F931F93DF93CF93A5
:100F40000F92CDB7DEB77C016B0100E010E05E01CF
:100F50000894A11CB11CC701B5010E945803982F29
:100F6000882391F0F601E00FF11F898180830F5FE4
:100F70001F4F0430110511F481E007C0892F90E064
:100F80000196E80EF91EE7CF80E00F90CF91DF9138
:100F90001F910F91FF90EF90DF90CF90BF90AF9097
:100FA0000895EF92FF920F931F93CF93DF93E090FA
:100FB0003801F09039018C01C0E0D0E0B7016C0F2E
:100FC0007D1FF80181918F010E94CF012396C231CC
:100FD000D105A1F7DF91CF911F910F91FF90EF9075
:100FE0000895A7E2B0E08C91807E8C93E8E2F0E077
:100FF0008081807E80838C9186608C9380818B61E0
:1010000080831AB8089586B1282F30E0207130709F
:1010100035952795359527953595279535952795B8
:10102000220F331F8870880F880F822B0895782F26
:1010300010924D0110924C0140913A0150913B01A8
:10104000E6E2F0E015C08081282F30E0C901887009
:10105000907095958795959587959595879578172F
:1010600011F481E0089524FD03C0862F8360089564
:1010700080914C0190914D018417950720F3862FA4
:10108000826008952F923F924F925F926F927F926B
:101090008F929F92AF92BF92CF92DF92EF92FF9288
:1010A0000F931F93DF93CF9300D0CDB7DEB710928D
:1010B0006901349B02C0339B04C010926A0120E096
:1010C000D6C2A9B01A82198222E2A21619F084E4CB
:1010D000A816B9F4CE0101960E944204282F81304F
:1010E00081F0EAE6F1E08083E2818CE0E89FF001A4
:1010F0001124ED59F84F8681978101969783868355
:10110000B6C260904E0170904F0180905001909057
:1011100051011092850010928400E8E2F0E0808195
:1011200084608083A2E2AA16A1F0AA1520F0B1E1A2
:10113000AB1649F475C0E3E3AE1609F47AC1F4E4E2
:10114000AF1609F4DDC0BB246894B2F8CC24DD24CA
:1011500002C2E980FA808FEF8AB981E060E20E94E2
:101160001708B82E21E0821709F057C0FBB8E8E253
:10117000F0E080818B7F808380E060E30E9417082D
:10118000B82E81E0B81609F048C0EBB8E8E2F0E00C
:10119000808184608083C70101960F2EFEEF2F2E81
:1011A000FFEF3F2EF02D282239222114310461F166
:1011B00001E00F2EF9E7EF2EF1E0FF2EF02DCC2409
:1011C000DD240F2EF8E24F2E5524F02D14E0802F51
:1011D00060E40E941708B82EA1E08A17E1F4F70135
:1011E0008081ABE2B0E08C93F20180818127808323
:1011F0000894C11CD11C2C143D0441F00894E11C3E
:10120000F11CF1E00F27E3CFCC24DD2481E060E581
:101210000E941708B82E1AB89EC1CC24DD249BC1A9
:1012200081E060E20E941708B82E21E0821709F0E1
:1012300064C009B1E8E2F0E080818B7F808380E0C8
:1012400060E30E941708B82E81E0B81609F055C077
:1012500029B1902F80E030E0282B392BE8E2F0E034
:10126000808194E089278083A5E02B3E3A0738F0FF
:101270000F2EF5E0BF2EF02DCC24DD246CC1C9016A
:1012800001960F2EFEEF2F2EFFEF3F2EF02D28227E
:1012900039222114310471F101E00F2EF9E7EF2E0C
:1012A000F1E0FF2EF02DCC24DD240F2EF8E24F2E9E
:1012B0005524F02D14E0802F60E40E941708B82E0A
:1012C000B1E08B1709F047C1E9E2F0E08081D70176
:1012D0008C93F2018081812780830894C11CD11CEA
:1012E0002C143D0409F437C10894E11CF11CF1E011
:1012F0000F27E1CFCC24DD242EC1CC24DD242BC14B
:10130000E980FA8081E060E20E941708B82E21E0AF
:10131000821709F08BC08FEF8AB9FBB8E8E2F0E0E2
:1013200080818B7F808380E060E30E941708B82E65
:1013300081E0B81609F07AC0EBB8E8E2F0E080810D
:1013400094E08927808381E060E40E941708B82E2A
:10135000A1E08A1709F06AC0C7010196AC01569551
:101360004795F894E8E2F0E0808194E08927808353
:101370004115510591F109E711E020E030E09FE0CF
:101380006BE270E0E6E2F0E0892F8A95F1F7D80190
:101390008C91DB018C93808183FF03C0808184FD6D
:1013A000FACF808184FF1BC0892F8A95F1F7D8017D
:1013B00011968C91DB018C93808183FD03C0808129
:1013C00084FDFACF808184FF0AC02F5F3F4F24172E
:1013D000350728F40E5F1F4FD7CF20E030E0E6E25C
:1013E000F0E0A8E2B0E0789403C0808184FFFBCFF6
:1013F000808183FDFACF8C9184608C9303C08081BF
:1014000084FFF1CF808183FFFACF2417350720F4C2
:101410000F2EF2E4BF2EF02DE8E2F0E080818B7F0A
:1014200080831AB86901CC0CDD1C95C0CC24DD2466
:1014300092C081E060E20E941708B82EB1E08B17DD
:1014400009F087C009B1E8E2F0E080818B7F8083FA
:1014500080E060E30E941708B82EE1E08E1709F0E3
:1014600078C029B1902F80E030E0822B932BF5E0FB
:101470008B3E9F0738F00F2EF5E0BF2EF02DCC24C9
:10148000DD2469C00196BC0176956795F894E8E281
:10149000F0E0808194E0892780836115710559F11E
:1014A00009E711E020E030E0E6E2F0E049E250E058
:1014B000808183FD03C0808184FDFACF808184FF19
:1014C0001CC0DA018C91D8018C93808183FF03C00A
:1014D000808184FDFACF808184FF0FC0DA018C9176
:1014E000D80111968C932F5F3F4F2617370728F4AA
:1014F0000E5F1F4FDDCF20E030E07894E6E2F0E0B1
:10150000A8E2B0E094E0808183FD03C0808184FD87
:10151000FACF808184FF09C08C9189278C938081C8
:1015200083FF03C0808184FDFACF808184FFEBCFED
:101530002617370720F40F2EF2E4BF2EF02DE8E235
:10154000F0E0808194E0892780836901CC0CDD1C68
:1015500002C0CC24DD2410924D0110924C01209148
:101560003A0130913B01E6E2F0E003C0808184FF64
:1015700007C080914C0190914D0182179307B0F301
:10158000E8E2F0E080818B7F8083E0908400F0903F
:101590008500B1E0BB1659F4E1E1AE1621F0F3E3AA
:1015A000AF1609F07AC0C6010E94CD03B82E09E635
:1015B00011E0F801A192B082D8011596DC92CE928A
:1015C00014971796FC92EE921697C601B7010E94E7
:1015D000A501F80191878087D8011C966D927D92B4
:1015E0008D929C921F97B1E1AB1631F0E3E3AE16FA
:1015F00019F080E090E002C081E090E0EBE6F1E0DD
:1016000081931082882311F081E0808380916B01A7
:10161000882319F020E030E00AC020917501309154
:1016200076018091400190914101281B390B309344
:10163000740120937301F1E0BF1659F4ECE6F1E078
:10164000618172814581568180810E94140F21E061
:101650000EC0E0916C018CE0E89FF0011124ED597F
:10166000F84F868197810196978386832B2D822F51
:101670000F900F90CF91DF911F910F91FF90EF90FE
:10168000DF90CF90BF90AF909F908F907F906F90A2
:101690005F904F903F902F90089509E611E0F80178
:1016A000A19281E08083D8011596DC92CE921497A6
:1016B0001796FC92EE921697C601B7010E94A501FB
:1016C000F80191878087D8011C966D927D928D924A
:1016D0009C921F978ECF0F931F9308E210E0F801A2
:1016E00080818D7F808384E190E00E949801F801E1
:1016F00080818260808380914E0190914F01A09102
:101700005001B09151018093400190934101A09309
:101710004201B09343011F910F91089580915B01A5
:10172000882311F09CE001C094E080915C0181115C
:101730009160892F0895FF920F931F93CF93DF93AA
:10174000EC0104E810E0F8011182108289E791E0D1
:10175000BE010E940F0DF82EF80160817181CE014B
:101760000E94A501AC01FF2029F483E0BE010E9484
:10177000140F07C0EDE8F7E0808191810196918315
:1017800080838F2DDF91CF911F910F91FF9008954E
:10179000FF920F931F93CF93DF93EC0104E810E0C7
:1017A000F8011182108289E791E06AEE75E0AE01DE
:1017B0000E946D0EF82EF8016081718188819981F7
:1017C0000E94A501AC01FF2031F46881798182E09B
:1017D0000E94140F07C0E1E8F7E080819181019633
:1017E000918380838F2DDF91CF911F910F91FF9077
:1017F0000895E5E2F0E090819260908390819B7F74
:101800009083962F9F71982B9EBDEDE4F0E0808130
:101810008823ECF7662334F41EBCEDE4F0E080810D
:101820008823ECF71EBCEDE4F0E080818823ECF720
:101830008EB5E5E2F0E09081946090830895E5E252
:10184000F0E090819260908390819B7F90836F7194
:10185000682B6EBDEDE4F0E080818823ECF74EBD8F
:10186000EDE4F0E080818823ECF7E5E2F0E08081B0
:10187000846080830895CF93DF939C01DB01E5E2D0
:10188000F0E080818260808380818B7F80838AE327
:101890008EBDEDE4F0E080818823ECF72115310561
:1018A00079F0CEE4D0E0EDE4F0E018828081882386
:1018B000ECF788818C932150304011F01196F5CFD0
:1018C000E5E2F0E0808184608083DF91CF9108952C
:1018D0001F93182F282F30E020763070809145011B
:1018E00090E02817390781F080EA6FE143E00E9419
:1018F0001F0C412F40764093450142954695477015
:1019000080E86FE10E941F0C1F9108951F93182F0C
:101910000E94680C80E0612F0E94F90B1F910895CE
:101920000F931F93182F062F0E94680C80E4612FDD
:10193000402F0E941F0C1F910F9108950F931F932A
:10194000182F072F0E94900C812F8F5F602F0E940D
:10195000900C1F910F9108950F931F93982F8B0157
:1019600084ED692F0E94900C86EDB8010E949E0CB8
:101970008AEE0E94860C80FDFBCF1F910F91089587
:101980008FE10E94680C80EA6FE144E00E941F0C26
:10199000109244010895882311F081E00895809108
:1019A0004801882331F0662311F463E004C062E04B
:1019B00002C0611161E087E70E94900C80E0089509
:1019C000CF93DF93EB01882319F0813019F505C01F
:1019D00080914901888380E01FC084ED61E10E940D
:1019E000900C82ED61E00E94900C8AEE0E94860CC1
:1019F00080FDFBCF82ED60E00E94900C89ED0E949B
:101A0000860C90E09695879596958795817088834A
:101A100080E002C0188281E0DF91CF9108950F939A
:101A20001F93CF93DF93EC018B0182E060E07AE1BA
:101A30000E949E0C8AE760E040E00E941F0CE5E2F5
:101A4000F0E080818260808380818B7F80838AE761
:101A50008EBDEDE4F0E080818823ECF79801AEE4E0
:101A6000B0E0EDE4F0E008C088818C9380818823A9
:101A7000ECF721962150304021153105A9F7E5E218
:101A8000F0E08081846080830FC08CE10E94860C2E
:101A900081FF0AC080E86FE140E80E941F0C80EAE5
:101AA0006FE140E80E941F0C80E06FE10E94F90B9B
:101AB00083FDEBCFB8016050764E86E00E949E0C0D
:101AC00080E86FE148E00E941F0C80E0DF91CF9139
:101AD0001F910F91089589E30E94860C0895DF926B
:101AE000EF92FF920F931F93DF93CF930F92CDB797
:101AF000DEB77C01D62E0E94E70EE5E2F0E08081A1
:101B0000846080838D2D8170809348018FEF60E029
:101B10004FEF0E941F0C84E190E00E94980100E0CA
:101B200010E00BC081E090E00E9498010F5F1F4F12
:101B30008FE00F3F180709F4C6C080E06DE10E94F6
:101B4000F90B882379F3109247011092460188E03F
:101B500060E070E00E949E0C8CE060E070E00E940B
:101B60009E0C8AE06FEF79E10E949E0C84E060E0B9
:101B70007AE10E949E0C86E06FEF7FE10E949E0C4E
:101B8000D2FE05C088E361EA0E94900C04C088E39D
:101B900060EA0E94900C88E26FE370E30E949E0C62
:101BA00080E369EF77EF0E949E0C80EC6DE00E946D
:101BB000900C81EC60E00E94900C80914801882399
:101BC00011F063E301C062E382EC0E94900C80910B
:101BD0004801882351F084EC65E10E94900C86EC6A
:101BE00062E170E00E949E0C09C084EC62E10E94F8
:101BF000900C86EC62E17CE00E949E0C8AEC6EEE1A
:101C000075E00E949E0C80914801882359F080E085
:101C100060E071E00E94AC0C80E160E070E00E9446
:101C2000AC0C0AC080E060E070E00E94AC0C80E187
:101C300060E071E00E94AC0C88E760ED77E00E9404
:101C40009E0C82E70E94860C80934901863018F032
:101C50008F5F8093490184EEF70160810E94900CB0
:101C600085EEF70161810E94900C82EEF70162819E
:101C70000E94900C83EEF70163810E94900C80EE2D
:101C8000F70164810E94900C81EEF70165810E944A
:101C9000900C8FE10E94680C80E86BE140EC0E94A0
:101CA0001F0C80E86FE144E00E941F0C80E0BE0141
:101CB0006F5F7F4F0E94E00C882329F481E08093BE
:101CC000440180E001C081E00F90CF91DF911F912E
:101CD0000F91FF90EF90DF900895AF92BF92CF9257
:101CE000DF92EF92FF920F931F93DF93CF9300D079
:101CF00000D000D0CDB7DEB75C016B018A016091E6
:101D000046017091470180E00E949E0C86E090E0C1
:101D1000BE016F5F7F4F0E943B0CE980FA80F0921A
:101D20004701E09246018B819C819C012450304008
:101D3000F801318320838D818823BCF0B701615085
:101D40007040FAE160307F0730F08CE06FEF79E1AE
:101D50000E949E0C03C08CE00E949E0C80E86EE105
:101D600040E40E941F0C03E020C0C216D30618F402
:101D7000960102E001C000E0C901B5010E943B0CE0
:101D8000B701615070408AE16030780730F08CE034
:101D90006FEF79E10E949E0C03C08CE00E949E0CC4
:101DA00080E86EE140E40E941F0C802F26960FB65B
:101DB000F894DEBF0FBECDBFCF91DF911F910F9181
:101DC000FF90EF90DF90CF90BF90AF900895E4E246
:101DD000F0E080818E62808380818E768083E5E270
:101DE000F0E08081877D8083808184608083808132
:101DF0008260808380E58CBD81E08DBD0895E3E63F
:101E0000F7E023E937E010821182128213821582F3
:101E100014821782168211861086138612863C96CB
:101E2000E217F30781F708950F931F939CE0899FB2
:101E3000C0011124FC01ED59F84F84819581019670
:101E4000958384838B0120E030E080819181A281A1
:101E5000B381800F911FA21FB31F80839183A28340
:101E6000B383828593858417950710F4538742873F
:101E70001F910F9108950895089508950895629F00
:101E8000D001739FF001829FE00DF11D649FE00D72
:101E9000F11D929FF00D839FF00D749FF00D659FD3
:101EA000F00D9927729FB00DE11DF91F639FB00DD2
:101EB000E11DF91FBD01CF0111240895991B79E09F
:101EC00004C0991F961708F0961B881F7A95C9F7CA
:101ED00080950895A1E21A2EAA1BBB1BFD010DC01F
:101EE000AA1FBB1FEE1FFF1FA217B307E407F507CA
:101EF00020F0A21BB30BE40BF50B661F771F881FA6
:101F0000991F1A9469F760957095809590959B013B
:101F1000AC01BD01CF010895DC01CB01FC01F999B1
:101F2000FECF06C0F2BDE1BDF89A319600B40D9225
:101F300041505040B8F70895A8E1B0E042E050E0C9
:101F40000C948E0FDC01CB0103C02D910E94AD0FCC
:101F500041505040D0F70895262FF999FECF1FBA6F
:101F600092BD81BD20BD0FB6F894FA9AF99A0FBEC2
:101F7000019608950E94AC0F272F0C94AD0FF89492
:021F8000FFCF91
:101F8200FFFFFFFFFFFF0000000000000000000055
:101F9200FFFFFFFF3030302E3030302E3030302E09
:101FA20030303000140130303A30303A30303A308C
:0C1FB200303A30303A30300026018813FD
:00000001FF
