:100000000C943E000C945B000C945B000C945B0021
:100010000C945B000C945B000C945B000C945B00F4
:100020000C945B000C945B000C945B000C947206C7
:100030000C945B000C945B000C945B000C945B00D4
:100040000C945B000C945B000C9474080C945B00A3
:100050000C945B000C945B000C945B000C945B00B4
:100060000C945B000C945B001A11AFA047110000C8
:10007000EA05FDFFC0A802DE901A000011241FBE91
:10008000CFEFD8E0DEBFCDBF11E0A0E0B1E0E8ECFB
:10009000F7E102C005900D92A833B107D9F727E028
:1000A000A8E3B1E001C01D92A23AB207E1F70E94B5
:1000B0004C0B0C94E20B0C9400008091720188238D
:1000C00031F08CE09091730191118160089584E08A
:1000D000F9CF1F93CF93DF93EC011092850010921C
:1000E0008400AC016AEE75E080EB91E00E94EC0ABE
:1000F000182F6091840070918500888199810E94F9
:10010000DD0611110BC068817981AC0182E00E948B
:10011000DC04812FDF91CF911F91089580919E0182
:1001200090919F01019690939F0180939E01F1CF42
:100130001F93CF93DF93EC011092850010928400FF
:10014000BC0180EB91E00E94A20A182F609184000C
:1001500070918500CE010E94DD0611110AC0AC012C
:10016000BE0183E00E94DC04812FDF91CF911F91BB
:1001700008958091AA019091AB0101969093AB01F3
:100180008093AA01F1CF10929D0710929C072091B5
:1001900000013091010140919C0750919D07421749
:1001A000530718F0862F8260089596B193FB442779
:1001B00040F9841729F094FDEECF862F83600895CF
:1001C00081E0089587B1807E87B988B1807E88B943
:1001D00087B1866087B988B18B6188B91AB80895EC
:1001E00096B194FB222720F930E0220F331F98703C
:1001F000990F990F892F822B0895419884E190E0FF
:100200000E94D106419A80919E0790919F07A091EC
:10021000A007B091A1078093380190933901A09372
:100220003A01B0933B0108954F925F926F927F9293
:100230008F929F92AF92BF92CF92DF92EF92FF92F6
:100240000F931F93CF93DF9300D0CDB7DEB71092FB
:100250005901349B02C0339B17C010925A01F12CF4
:100260008F2D0F900F90DF91CF911F910F91FF90E5
:10027000EF90DF90CF90BF90AF909F908F907F9046
:100280006F905F904F900895E9B01A82198222E230
:10029000E21619F084E4E81218C0CE0101960E941B
:1002A0009603F82E91E0891781F080935A01E0912E
:1002B0005C012CE0E29FF0011124E058FE4F8681A2
:1002C0009781019697838683CBCF40909E0750906D
:1002D0009F076090A0077090A10710928500109270
:1002E0008400429A82E2E81609F459C08E1548F05B
:1002F00091E1E91609F493C010E000E084E0F82EE3
:10030000B1C0E3E3EE1609F459C1F4E4EF12F4CFFF
:1003100009811A8160E281E00E94C300F82EF1E0B9
:100320008F13A5C18FEF8AB91BB9429860E380E0B3
:100330000E94C300F82E21E0821399C10BB988B145
:1003400064E0D62E8D2588B960E481E00E94C30068
:10035000F82E81E0F8128BC10F5F1F4FC8019695F0
:100360008795F89428B12D2528B9E0EBF1E010E04D
:1003700000E02FE08017910709F000C18C0178940C
:10038000339916C1429A339B16C10817190710F406
:1003900042E4F42E42981AB8000F111F63C0C980BE
:1003A000DA808FEF8AB960E281E00E94C300F82E04
:1003B00021E082135CC1DBB8429860E380E00E94D8
:1003C000C300F82E81E0F81252C1CBB8429A9FEFD9
:1003D000C91AD90AE894C0F8A0EBAA2EA1E0BA2E57
:1003E00010E000E0B4E09B2EC016D10639F460E5C1
:1003F00081E00E94C3001AB8F82E34C060E48F2D4B
:100400000E94C3008130B9F7F50191915F019BB95A
:1004100098B1992598B90F5F1F4FF826E5CF60E294
:1004200081E00E94C300F82EF1E08F1320C1A9B033
:10043000429860E380E00E94C300F82E21E082131E
:1004400016C189B1BA2CA82E88B194E0892788B941
:100450008BEEA81685E0B80608F46BC010E000E04B
:10046000F5E0FF2E10929D0710929C0780910001ED
:100470009091010120919C0730919D072817390721
:1004800010F43499F7CF4298C0908400D090850042
:1004900021E0F2120AC081E1E81619F093E3E912B3
:1004A00004C0C8010E94CE03F82EE0925901F092D8
:1004B0005A0110935E0100935D01D0926001C092D9
:1004C0005F01B601C8010E94DD06AC019093620194
:1004D00080936101409265015092660160926701CC
:1004E00070926801E1E121E030E0EE1639F091E030
:1004F00080E0F3E3EF1290E0292F382F822F209332
:100500005B0120935C012111B5C0609138017091AD
:100510003901461A570A509264014092630191E0F2
:10052000F912ABC060915D0170915E010E94DC0424
:1005300097CE9FEFA91AB90AE894A0F870EBC72EDE
:1005400071E0D72E9924939410E000E0E4E08E2E21
:10055000A016B10609F486CF60E4892D0E94C3007D
:10056000813009F049CF99B1F60191936F0198B1AB
:10057000982598B998260F5F1F4FEACF322F3A95EA
:10058000F1F730813BB9339B02C03499FCCF349BE7
:10059000F6CE322F3A95F1F731813BB9339902C04B
:1005A0003499FCCF3296349BEACE0F5F1F4FE2CED8
:1005B0003499E6CEE4CE3499E6CEE1CE60E281E035
:1005C0000E94C300F82E91E0891351C019B14298DE
:1005D00060E380E00E94C300F82EE1E08E1347C084
:1005E00089B1912F8B3EF5E09F0708F037CF019638
:1005F00096958795F89428B134E0232728B9E0EB45
:10060000F1E010E000E08017910711F48C0106C0C2
:10061000339902C03499FCCF34991BC0789434E0EC
:10062000339902C03499FCCF349B07C028B12327EB
:1006300028B9339B02C03499FCCF349BF1CF081703
:10064000190710F422E4F22E88B194E0892788B9C2
:10065000A3CE29B12083339B02C03499FCCF349BB5
:10066000DDCF29B121830F5F1F4F3296CCCF10E031
:1006700000E0F8CE512C412C4ECF8CE0829FF0014F
:10068000839FF00D112419CECF938091B001982F44
:1006900090689093B001833039F08430B1F08130AC
:1006A00091F4CF910C94520884E1ECE6F1E0AEEBCA
:1006B000B1E001900D928A95E1F782E290E090938B
:1006C0006A0180936901CF9108958091B1019FEFF4
:1006D000980FC3E09230A8F494E1EEEBF1E0ACE6C1
:1006E000B1E001900D929A95E1F7823079F0C1E086
:1006F0000E94530A0E945D00682F8CE691E00E94E0
:100700008109C093B1018EE090E0D9CF0E948104AD
:10071000882369F3C5E0ECCF80913D01811105C0CC
:1007200081E080933D010C94FD000895CF93DF9309
:10073000EC0180916B0181FF1FC08D7F80936B0165
:1007400060EB71E080E191E00E94570566EB71E09B
:100750008CE691E00E9457056FEF7FEF8CEB91E004
:100760000E947E058EE090E09983888310923D017F
:1007700081E0DF91CF91089583FF05C080916901E9
:1007800090916A01F1CFCE010E94690080916B01C6
:1007900082FFECCF8B7F80936B01E8CFCF93DF9309
:1007A000EC018CEB91E00E9477058D3F2FEF9207D3
:1007B000C1F158F40496D9F1CE010E9498008091BD
:1007C0006B0180FD24C086602FC08E3F2FEF920703
:1007D00011F1019689F780916B01856080936B011F
:1007E00066EB71E08CE691E00E94260681110FC055
:1007F0006CE671E086EB91E00E9457050E9481044F
:100800000E94530A64E08CE691E00E94810981E035
:10081000DF91CF91089580916B018E7F80936B0162
:10082000F6CF80916B01826080936B010AC0CE018C
:100830000E94440380916B01886080936B01109249
:100840003D010E948C03E3CFCF93DF9300D0CDB75F
:10085000DEB70E94E2000E945D00682F8CE691E006
:100860000E9481090E94C80410926B0110923D0100
:10087000F090720110E00E9414010E94390B082FC1
:10088000882331F080916B0180FF0DC00E948C03A2
:10089000FF2089F3112361F00111EDCF60E080E0CA
:1008A0000E945E0AE7CFCE0101960E946900F0CF58
:1008B000002309F361E080E00E945E0A11E0DBCFD3
:1008C0008FEF9FEFECE6F1E021918227282F229510
:1008D0002827022E269526952025022E26952025AE
:1008E0002770082E892F269507942795902D82270B
:1008F000069427959025822721E0E038F20721F71A
:100900000895F99911C044E150E062E070E08CE68E
:1009100091E00E94C50B0E946004BC0180E090E061
:100920000E94DD0B80E0089581E00895E8E6F0E0A4
:10093000ACE6B1E084918D93319680E0EC37F80716
:10094000C9F70895CF93DF93F99918C044E150E0B7
:1009500062E070E08CE691E00E94AF0B80E090E0F6
:100960000E94BF0BEC010E946004C817D90741F038
:100970000E94960482E0DF91CF91089581E0FBCF41
:1009800080E0F9CF0E94A20481110C94960408958E
:10099000E0E8F1E010821182128213821582148243
:1009A0001782168211861086138612863C9681E085
:1009B000E03BF80779F708959CE0899FF001112446
:1009C000E058FE4F848195810196958384838081D0
:1009D0009181A281B381860F971FA11DB11D8083D4
:1009E0009183A283B383828593858417950710F43E
:1009F000538742870895089508950F931F93CF93C7
:100A0000DF93EC016C317105A8F00E9477058C0131
:100A1000CE0102960E947705AC012C819D810130A8
:100A2000110541F44115584029F4263019F481E0AC
:100A3000943009F080E0DF91CF911F910F910895DC
:100A4000AF92BF92CF92DF92EF92FF920F931F93DC
:100A5000CF93DF93EC016B017A0162E070E00696C0
:100A60000E947E055E0188E0A80EB11CBE016E5E8C
:100A70007F4FC5010E9457058E01025F1F4FBE01C7
:100A8000685E7F4FC8010E946705B501C6010E94DC
:100A90005705B801C701DF91CF911F910F91FF90CA
:100AA000EF90DF90CF90BF90AF900C946705AC01B2
:100AB00096E0915008F40895292F30E0FA01E20FF2
:100AC000F31F8081260F371FF9018083F2CFAC011D
:100AD00094E0915008F40895292F30E0FA01E20FD4
:100AE000F31F8081260F371FF9018083F2CFFC01AD
:100AF000808191819827892798270895FC01708328
:100B000061830895FC0160817181828193810E94DB
:100B10008E0B0895FC017083618352834383089593
:100B2000EF92FF920F931F93CF93DF93EC0106E1B7
:100B300011E07C0186E0E80EF11CB80189910E9469
:100B4000FC060D5F1F4FCE15DF05B9F7DF91CF9182
:100B50001F910F91FF90EF900895CF92DF92EF9247
:100B6000FF920F931F93CF93DF931F92CDB7DEB702
:100B70006C018B017B0184E0E80EF11CBE016F5F0C
:100B80007F4FC6010E943D08882361F090E00196E6
:100B9000C80ED91E8981F80181938F01EE16FF06D8
:100BA00069F781E00F90DF91CF911F910F91FF9036
:100BB000EF90DF90CF900895CF92DF92EF92FF9267
:100BC0000F931F93CF93DF931F92CDB7DEB78C01A6
:100BD0007B016C0182E1C80ED11CBE016F5F7F4FAB
:100BE000C8010E949107882351F00D5F1F4F898132
:100BF000F70181937F010C151D0579F781E00F90B6
:100C0000DF91CF911F910F91FF90EF90DF90CF90E8
:100C10000895EF92FF920F931F93CF93DF93EC0110
:100C200008E211E07C0184E0E80EF11CB801899132
:100C30000E9437070C5F1F4FCE15DF05B9F7DF9114
:100C4000CF911F910F91FF90EF900895FB019C01B0
:100C50002A5F3F4FDC015D91CD014191541305C0E6
:100C6000A217B307B9F781E0089580E00895FB016A
:100C70009C012C5F3F4FDC015D91CD0141915413EC
:100C800005C0A217B307B9F781E0089580E0089581
:100C9000F89488E08093800081E08093810080ED6B
:100CA00097E09093890080938800109285001092BD
:100CB000840082E080936F0010929D0710929C0741
:100CC00010929B0710929A0710929E0710929F070E
:100CD0001092A0071092A10710923F0110923E01BE
:100CE000789408951F920F920FB60F9211248F934C
:100CF0009F93AF93BF9310928500109284008091D0
:100D00009C0790919D07019690939D0780939C0767
:100D100080919E0790919F07A091A007B091A10795
:100D20000196A11DB11D80939E0790939F07A093EC
:100D3000A007B093A10780913E0190913F010196D9
:100D40008436910590F490933F0180933E01809109
:100D500053018823C1F03D9ABF91AF919F918F912C
:100D60000F900FBE0F901F90189510923F01109298
:100D70003E0180919A0790919B07019690939B0763
:100D800080939A07E4CF3D98E7CF10929B0710928B
:100D90009A0720919A0730919B0728173907C8F3C3
:100DA000089510929D0710929C0720919C07309106
:100DB0009D0728173907C8F30895FB013097A1F064
:100DC000DC0120EA36E841E050E00E94950B9F01EB
:100DD00050E040E0E2E0220F331F441F551FEA9528
:100DE000D1F70E946C0BF901CF0108958A3010F4FD
:100DF000805D0895895C08951F93CF93DF93182F2A
:100E0000EB0182958F700E94F6068883812F8F7088
:100E10000E94F6068983DF91CF911F9108951F9359
:100E2000CF93DF93182FEB01892F0E94FC06BE01A0
:100E30006E5F7F4F812FDF91CF911F910C94FC0645
:100E4000CF92DF92EF92FF92CF93DF936B01EA0193
:100E5000BA010E940F07BE016C5F7F4FC601DF9190
:100E6000CF91FF90EF90DF90CF900C940F07FB0194
:100E700064E60E94600B805D8083892F6AE00E9497
:100E8000600B805D8183905D928308958F929F9225
:100E9000AF92BF92EF92FF920F931F93CF93DF9386
:100EA000F22E30E0021710F021503109EA01C20F92
:100EB000D31F10E02EE2E22E3AE0832E912CA12CDB
:100EC000B12C1F110BC0DF91CF911F910F91FF909B
:100ED000EF90BF90AF909F908F900895101302C035
:100EE000E8822197A50194010E946C0B605D6883E4
:100EF0002197B901CA011F5FE4CFFB019FE9980F59
:100F0000963020F48755808381E008959FEB980FF9
:100F1000963010F48753F7CF80538A30A0F380E0E7
:100F20000895EF92FF920F931F93CF93DF931F9239
:100F3000CDB7DEB77C018B01BE016F5F7F4FFC0137
:100F400080810E947D07811109C080E00F90DF91B0
:100F5000CF911F910F91FF90EF9008958981829515
:100F6000807F8983B801F70181810E947D078823F2
:100F700061F3F80180819981892B808381E0E6CF3C
:100F8000EF92FF920F931F93CF93DF9300D0CDB7D3
:100F9000DEB78C017B01BE016E5F7F4F0E9491071F
:100FA00081110AC080E00F900F90DF91CF911F91C7
:100FB0000F91FF90EF900895BE016F5F7F4FC801C2
:100FC00002960E949107882369F38A819981892773
:100FD00098278927F7019183808381E0E4CFEF92FE
:100FE000FF920F931F93CF93DF9300D000D0CDB724
:100FF000DEB77C018B01BE016C5F7F4F0E949107C1
:1010000081110CC080E00F900F900F900F90DF9136
:10101000CF911F910F91FF90EF900895BE016D5FEA
:101020007F4FC70102960E949107882359F3BE01A2
:101030006E5F7F4FC70104960E949107882311F3CA
:10104000BE016F5F7F4FC70106960E9491078823FC
:10105000C9F22C818B8190E0B0E0A0E0DC019927FF
:101060008827B22B2981822B2A81922BF801808339
:101070009183A283B38381E0C6CFFC0180E020E0AE
:101080003AE0919190539A3050F4239F900D11249F
:10109000292F8F5F8330A9F7FB01208302C08111C4
:1010A000FBCF0895F89488E19CE00FB6F894A895DA
:1010B000809360000FBE90936000FFCFF894E1EC46
:1010C000F0E010821092C50084E18093C40088E9AA
:1010D000808386E88093C200789410924201109237
:1010E00041011092400108951F920F920FB60F9286
:1010F00011248F93EF93FF938091C600E0914101FB
:10110000F0E0ED5BFE4F8083809141018F5F809323
:10111000410180914101803111F41092410180918F
:1011200040018F5F80934001FF91EF918F910F906D
:101130000FBE0F901F901895209142019091410190
:1011400081E0291301C080E00895909142018091CF
:1011500041019817D1F3F894E0914201F0E0ED5B82
:10116000FE4F8081909142019F5F90934201909148
:101170004201903111F4109242019091400191503E
:1011800090934001789408959091C00095FFFCCF12
:101190008093C60008958EBD0DB407FEFDCF08955F
:1011A000299A2A9808952A9A08951F93CF93DF9336
:1011B000182FC62FD42F0E94D0088C2F8F71812B0F
:1011C0000E94CB088D2F0E94CB08DF91CF911F91F9
:1011D0000C94D308CF93C82FC076809158018C17F8
:1011E00081F043E06FE180EA0E94D508C093580186
:1011F0004C2F4295469547706FE180E8CF910C9453
:10120000D508CF910895CF93DF93C82FD62F0E9492
:10121000EA084D2F6C2F80E4DF91CF910C94D50814
:10122000CF93DF93C82FD72F0E9403096D2F81E042
:101230008C0FDF91CF910C9403096091560170914E
:1012400057016150710961158AE1780710F06FEF5D
:1012500079E18CE00E94100940E46EE180E80C9492
:10126000D508CF93C82F0E94D0088C2F8F710E9471
:10127000CB08C7FF03C080E00E94CB081EBC0DB4A2
:1012800007FEFDCFCEB50E94D3088C2FCF910895D5
:10129000CF93C82F0E94EA088C2FCF910C9431096C
:1012A000CF93DF93EB01682F84ED0E940309BE0109
:1012B00086ED0E9410098AEE0E94480980FDFBCF4E
:1012C000DF91CF9108950F931F93CF93DF93EC019C
:1012D0008B010E94D0088AE30E94CB08F801C00F5E
:1012E000D11FEC17FD0731F4DF91CF911F910F91C2
:1012F0000C94D3081EBC0DB407FEFDCF8EB58193B0
:10130000F0CFFF920F931F93CF93DF93EC01F62E54
:101310000E943C0B0E94D3088F2D81708093550151
:101320004FEF60E08FEF0E94D50884E190E00E94CB
:10133000D1060FEF1FE08DE10E943109882309F4E7
:1013400097C0109257011092560170E060E088E05B
:101350000E94100970E060E08CE00E9410096FEFBD
:1013600079E18AE00E94100960E07AE184E00E945D
:1013700010096FEF7FE186E00E94100961EAF2FE3A
:1013800060EA88E30E9403096FE370E388E20E9449
:10139000100969EF77EF80E30E9410096DE080EC9F
:1013A0000E94030960E081EC0E940309109155013D
:1013B00062E3111163E382EC0E940309112309F433
:1013C00061C065E184EC0E94030962E170E086EC93
:1013D0000E9410096EEE75E08AEC0E94100911233C
:1013E00009F457C060E071E080E00E94500970E0AD
:1013F00060E080E10E94500960ED77E088E70E949C
:10140000100982E70E944809863008F04AC080939C
:101410005401688184EE0E940309698185EE0E946F
:1014200003096A8182EE0E9403096B8183EE0E94A8
:1014300003096C8180EE0E9403096D8181EE0E9498
:1014400003098FE10E94EA0840EC6BE180E80E940A
:10145000D50844E06FE180E80E94D50881E08093E0
:10146000530180E0DF91CF911F910F91FF9008957C
:1014700081E090E00E94D1060150110909F05BCF94
:1014800081E0F0CF62E184EC0E94030962E17CE03C
:101490009ECF70E060E080E00E94500960E071E063
:1014A000A8CF8F5FB4CF8FE10E94EA0844E06FE1DC
:1014B00080EA0E94D508109253010895CF93C82F57
:1014C000811114C080915501882329F083E066239F
:1014D00031F082E004C081E0611101C080E0682F3A
:1014E00087E70E9403098C2FCF910895C1E0FBCFBD
:1014F000CF93DF93EB01882329F0813049F01882E4
:1015000081E003C0909154019883DF91CF910895B9
:1015100061E184ED0E94030961E082ED0E9403090C
:101520008AEE0E94480980FDFBCF60E082ED0E94B8
:10153000030989ED0E94480982FB882780F9888386
:1015400080E0E3CFEF92FF920F931F93CF93DF934F
:101550007C018B0160E07AE182E00E94100940E0AA
:1015600060E08AE70E94D5080E94D0088AE70E94BE
:10157000CB08E701E00EF11ECE15DF05C9F40E948D
:10158000D3088FE10E94310983FD16C0B801765E51
:1015900086E00E94100948E06FE180E80E94D508CB
:1015A00080E0DF91CF911F910F91FF90EF90089510
:1015B00089910E94CB08E0CF8CE10E94480981FF0D
:1015C000E0CF40E86FE180E80E94D50840E86FE195
:1015D00080EA0E94D508D5CFCF92DF92EF92FF929A
:1015E0000F931F93CF93DF9300D000D000D0CDB7DF
:1015F000DEB77C018B016A01609156017091570141
:1016000080E00E941009BE016F5F7F4F86E090E08E
:101610000E94630989819A819093570180935601B2
:101620008B819C810497F601918380832D8127FD16
:1016300013C00E941D0913E0812F26960FB6F8945F
:10164000DEBF0FBECDBFDF91CF911F910F91FF90F5
:10165000EF90DF90CF9008950817190740F4C80164
:1016600012E0B7010E9463090E941D09E5CF10E056
:10167000F8CF89E30C94480984B18E6284B984B1AF
:101680008E7684B985B1877D85B92A9A299A80E5B5
:101690008CBD81E08DBD0895F894A89514BEE0E658
:1016A000F0E0808188618083108278940E944806EF
:1016B000459A0E94C2040E94240490E080E00895AC
:1016C000991B79E004C0991F961708F0961B881F94
:1016D0007A95C9F780950895A1E21A2EAA1BBB1B23
:1016E000FD010DC0AA1FBB1FEE1FFF1FA217B307EE
:1016F000E407F50720F0A21BB30BE40BF50B661F04
:10170000771F881F991F1A9469F7609570958095C7
:1017100090959B01AC01BD01CF01089569279627E3
:10172000692778278727782708950E94A00BA59F0F
:10173000900DB49F900DA49F800D911D11240895CC
:10174000A29FB001B39FC001A39F700D811D112402
:10175000911DB29F700D811D1124911D0895DC0112
:10176000CB01FC01F999FECF06C0F2BDE1BDF89AAC
:10177000319600B40D9241505040B8F70895A8E159
:10178000B0E042E050E00C94B10BDC01CB0103C0AF
:101790002D910E94D00B41505040D0F70895262F34
:1017A000F999FECF1FBA92BD81BD20BD0FB6F89446
:1017B000FA9AF99A0FBE019608950E94CF0B272F2F
:0817C0000C94D00BF894FFCF4C
:1017C8008813FFFFFFFF000000000000000000007A
:1017D800FFFFFFFFFFFF30303A30303A30303A3009
:1017E800303A30303A3030003030302E3030302E11
:0817F8003030302E303030009B
:00000001FF
